{
  "contractName": "EnlistmentToContract",
  "abi": [
    {
      "constant": true,
      "inputs": [],
      "name": "locked",
      "outputs": [
        {
          "name": "",
          "type": "bool"
        }
      ],
      "payable": false,
      "stateMutability": "view",
      "type": "function"
    },
    {
      "inputs": [
        {
          "name": "landlordEmail",
          "type": "string"
        },
        {
          "name": "streetName",
          "type": "string"
        },
        {
          "name": "floorNr",
          "type": "int256"
        },
        {
          "name": "apartmentNr",
          "type": "int256"
        },
        {
          "name": "houseNr",
          "type": "int256"
        },
        {
          "name": "postalCode",
          "type": "int256"
        }
      ],
      "payable": false,
      "stateMutability": "nonpayable",
      "type": "constructor"
    },
    {
      "constant": true,
      "inputs": [],
      "name": "getOwner",
      "outputs": [
        {
          "name": "",
          "type": "address"
        }
      ],
      "payable": false,
      "stateMutability": "view",
      "type": "function"
    },
    {
      "constant": true,
      "inputs": [],
      "name": "getLandlord",
      "outputs": [
        {
          "name": "",
          "type": "string"
        }
      ],
      "payable": false,
      "stateMutability": "view",
      "type": "function"
    },
    {
      "constant": true,
      "inputs": [],
      "name": "getEnlistment",
      "outputs": [
        {
          "name": "",
          "type": "string"
        },
        {
          "name": "",
          "type": "int256"
        },
        {
          "name": "",
          "type": "int256"
        },
        {
          "name": "",
          "type": "int256"
        },
        {
          "name": "",
          "type": "int256"
        }
      ],
      "payable": false,
      "stateMutability": "view",
      "type": "function"
    },
    {
      "constant": false,
      "inputs": [
        {
          "name": "amount",
          "type": "int256"
        },
        {
          "name": "tenantName",
          "type": "string"
        },
        {
          "name": "tenantEmail",
          "type": "string"
        }
      ],
      "name": "sendOffer",
      "outputs": [],
      "payable": true,
      "stateMutability": "payable",
      "type": "function"
    },
    {
      "constant": false,
      "inputs": [
        {
          "name": "tenantEmail",
          "type": "string"
        }
      ],
      "name": "cancelOffer",
      "outputs": [],
      "payable": true,
      "stateMutability": "payable",
      "type": "function"
    },
    {
      "constant": true,
      "inputs": [
        {
          "name": "tenantEmail",
          "type": "string"
        }
      ],
      "name": "getOffer",
      "outputs": [
        {
          "name": "",
          "type": "bool"
        },
        {
          "name": "",
          "type": "int256"
        },
        {
          "name": "",
          "type": "string"
        },
        {
          "name": "",
          "type": "string"
        },
        {
          "name": "",
          "type": "uint8"
        }
      ],
      "payable": false,
      "stateMutability": "view",
      "type": "function"
    },
    {
      "constant": false,
      "inputs": [
        {
          "name": "result",
          "type": "bool"
        },
        {
          "name": "tenantEmail",
          "type": "string"
        }
      ],
      "name": "reviewOffer",
      "outputs": [],
      "payable": true,
      "stateMutability": "payable",
      "type": "function"
    },
    {
      "constant": false,
      "inputs": [
        {
          "name": "tenantEmail",
          "type": "string"
        },
        {
          "name": "landlordName",
          "type": "string"
        },
        {
          "name": "agreementTenantName",
          "type": "string"
        },
        {
          "name": "agreementTenantEmail",
          "type": "string"
        },
        {
          "name": "leaseStart",
          "type": "uint256"
        },
        {
          "name": "handoverDate",
          "type": "uint256"
        },
        {
          "name": "leasePeriod",
          "type": "uint256"
        },
        {
          "name": "otherTerms",
          "type": "string"
        },
        {
          "name": "hashStr",
          "type": "string"
        }
      ],
      "name": "submitDraft",
      "outputs": [],
      "payable": true,
      "stateMutability": "payable",
      "type": "function"
    },
    {
      "constant": true,
      "inputs": [
        {
          "name": "tenantEmail",
          "type": "string"
        }
      ],
      "name": "getAgreementParticipants",
      "outputs": [
        {
          "name": "",
          "type": "string"
        },
        {
          "name": "",
          "type": "string"
        },
        {
          "name": "",
          "type": "string"
        }
      ],
      "payable": false,
      "stateMutability": "view",
      "type": "function"
    },
    {
      "constant": true,
      "inputs": [
        {
          "name": "tenantEmail",
          "type": "string"
        }
      ],
      "name": "getAgreementDetails",
      "outputs": [
        {
          "name": "",
          "type": "int256"
        },
        {
          "name": "",
          "type": "uint256"
        },
        {
          "name": "",
          "type": "uint256"
        },
        {
          "name": "",
          "type": "uint256"
        },
        {
          "name": "",
          "type": "string"
        }
      ],
      "payable": false,
      "stateMutability": "view",
      "type": "function"
    },
    {
      "constant": true,
      "inputs": [
        {
          "name": "tenantEmail",
          "type": "string"
        }
      ],
      "name": "getAgreementHashes",
      "outputs": [
        {
          "name": "",
          "type": "string"
        },
        {
          "name": "",
          "type": "string"
        },
        {
          "name": "",
          "type": "string"
        }
      ],
      "payable": false,
      "stateMutability": "view",
      "type": "function"
    },
    {
      "constant": true,
      "inputs": [
        {
          "name": "tenantEmail",
          "type": "string"
        }
      ],
      "name": "getAgreementStatus",
      "outputs": [
        {
          "name": "",
          "type": "uint8"
        }
      ],
      "payable": false,
      "stateMutability": "view",
      "type": "function"
    },
    {
      "constant": false,
      "inputs": [
        {
          "name": "tenantEmail",
          "type": "string"
        },
        {
          "name": "result",
          "type": "bool"
        }
      ],
      "name": "reviewAgreement",
      "outputs": [],
      "payable": true,
      "stateMutability": "payable",
      "type": "function"
    },
    {
      "constant": false,
      "inputs": [
        {
          "name": "tenantEmail",
          "type": "string"
        },
        {
          "name": "landlordSignedHash",
          "type": "string"
        }
      ],
      "name": "landlordSignAgreement",
      "outputs": [],
      "payable": true,
      "stateMutability": "payable",
      "type": "function"
    },
    {
      "constant": false,
      "inputs": [
        {
          "name": "tenantEmail",
          "type": "string"
        },
        {
          "name": "tenantSignedHash",
          "type": "string"
        }
      ],
      "name": "tenantSignAgreement",
      "outputs": [],
      "payable": true,
      "stateMutability": "payable",
      "type": "function"
    },
    {
      "constant": false,
      "inputs": [
        {
          "name": "tenantEmail",
          "type": "string"
        }
      ],
      "name": "cancelAgreement",
      "outputs": [],
      "payable": true,
      "stateMutability": "payable",
      "type": "function"
    },
    {
      "constant": false,
      "inputs": [
        {
          "name": "tenantEmail",
          "type": "string"
        }
      ],
      "name": "receiveFirstMonthRent",
      "outputs": [],
      "payable": true,
      "stateMutability": "payable",
      "type": "function"
    },
    {
      "constant": false,
      "inputs": [
        {
          "name": "tenantEmail",
          "type": "string"
        },
        {
          "name": "amount",
          "type": "int256"
        }
      ],
      "name": "receiveMonthlyRent",
      "outputs": [],
      "payable": true,
      "stateMutability": "payable",
      "type": "function"
    }
  ],
  "bytecode": "0x60806040526000600260006101000a81548160ff0219169083151502179055503480156200002c57600080fd5b50604051620060c5380380620060c5833981018060405260c08110156200005257600080fd5b8101908080516401000000008111156200006b57600080fd5b828101905060208101848111156200008257600080fd5b8151856001820283011164010000000082111715620000a057600080fd5b50509291906020018051640100000000811115620000bd57600080fd5b82810190506020810184811115620000d457600080fd5b8151856001820283011164010000000082111715620000f257600080fd5b50509291906020018051906020019092919080519060200190929190805190602001909291908051906020019092919050505060a06040519081016040528086815260200185815260200184815260200183815260200182815250600360008201518160000190805190602001906200016d929190620001fe565b50602082015181600101556040820151816002015560608201518160030155608082015181600401559050508560019080519060200190620001b192919062000285565b50336000806101000a81548173ffffffffffffffffffffffffffffffffffffffff021916908373ffffffffffffffffffffffffffffffffffffffff16021790555050505050505062000334565b828054600181600116156101000203166002900490600052602060002090601f016020900481019282601f106200024157805160ff191683800117855562000272565b8280016001018555821562000272579182015b828111156200027157825182559160200191906001019062000254565b5b5090506200028191906200030c565b5090565b828054600181600116156101000203166002900490600052602060002090601f016020900481019282601f10620002c857805160ff1916838001178555620002f9565b82800160010185558215620002f9579182015b82811115620002f8578251825591602001919060010190620002db565b5b5090506200030891906200030c565b5090565b6200033191905b808211156200032d57600081600090555060010162000313565b5090565b90565b615d8180620003446000396000f3fe6080604052600436106200011a576000357c0100000000000000000000000000000000000000000000000000000000900463ffffffff168062ff22c6146200011f57806303746e06146200027a578063104347ce14620003d5578063222a7af914620004a0578063265adc3314620008825780632c863d8414620009e95780632d63ce271462000b4e5780632fcc176d1462000c0f57806331ae8ed01462000cdc5780634d45780e1462000d8e578063673a95ef1462000e4f57806371ca15871462000f1c5780637a5101161462001145578063893d20e81462001327578063cf3090121462001381578063d441a15214620013b3578063ec2b2a1214620015dc578063f278f78414620016ce578063f502236d146200178f575b600080fd5b62000278600480360360408110156200013757600080fd5b81019080803590602001906401000000008111156200015557600080fd5b8201836020820111156200016857600080fd5b803590602001918460018302840111640100000000831117156200018b57600080fd5b91908080601f016020809104026020016040519081016040528093929190818152602001838380828437600081840152601f19601f82011690508083019250505050505050919291929080359060200190640100000000811115620001ef57600080fd5b8201836020820111156200020257600080fd5b803590602001918460018302840111640100000000831117156200022557600080fd5b91908080601f016020809104026020016040519081016040528093929190818152602001838380828437600081840152601f19601f82011690508083019250505050505050919291929050505062001825565b005b620003d3600480360360408110156200029257600080fd5b8101908080359060200190640100000000811115620002b057600080fd5b820183602082011115620002c357600080fd5b80359060200191846001830284011164010000000083111715620002e657600080fd5b91908080601f016020809104026020016040519081016040528093929190818152602001838380828437600081840152601f19601f820116905080830192505050505050509192919290803590602001906401000000008111156200034a57600080fd5b8201836020820111156200035d57600080fd5b803590602001918460018302840111640100000000831117156200038057600080fd5b91908080601f016020809104026020016040519081016040528093929190818152602001838380828437600081840152601f19601f82011690508083019250505050505050919291929050505062001b84565b005b6200049e60048036036040811015620003ed57600080fd5b81019080803590602001906401000000008111156200040b57600080fd5b8201836020820111156200041e57600080fd5b803590602001918460018302840111640100000000831117156200044157600080fd5b91908080601f016020809104026020016040519081016040528093929190818152602001838380828437600081840152601f19601f8201169050808301925050505050505091929192908035906020019092919050505062001f1b565b005b620008806004803603610120811015620004b957600080fd5b8101908080359060200190640100000000811115620004d757600080fd5b820183602082011115620004ea57600080fd5b803590602001918460018302840111640100000000831117156200050d57600080fd5b91908080601f016020809104026020016040519081016040528093929190818152602001838380828437600081840152601f19601f820116905080830192505050505050509192919290803590602001906401000000008111156200057157600080fd5b8201836020820111156200058457600080fd5b80359060200191846001830284011164010000000083111715620005a757600080fd5b91908080601f016020809104026020016040519081016040528093929190818152602001838380828437600081840152601f19601f820116905080830192505050505050509192919290803590602001906401000000008111156200060b57600080fd5b8201836020820111156200061e57600080fd5b803590602001918460018302840111640100000000831117156200064157600080fd5b91908080601f016020809104026020016040519081016040528093929190818152602001838380828437600081840152601f19601f82011690508083019250505050505050919291929080359060200190640100000000811115620006a557600080fd5b820183602082011115620006b857600080fd5b80359060200191846001830284011164010000000083111715620006db57600080fd5b91908080601f016020809104026020016040519081016040528093929190818152602001838380828437600081840152601f19601f820116905080830192505050505050509192919290803590602001909291908035906020019092919080359060200190929190803590602001906401000000008111156200075d57600080fd5b8201836020820111156200077057600080fd5b803590602001918460018302840111640100000000831117156200079357600080fd5b91908080601f016020809104026020016040519081016040528093929190818152602001838380828437600081840152601f19601f82011690508083019250505050505050919291929080359060200190640100000000811115620007f757600080fd5b8201836020820111156200080a57600080fd5b803590602001918460018302840111640100000000831117156200082d57600080fd5b91908080601f016020809104026020016040519081016040528093929190818152602001838380828437600081840152601f19601f8201169050808301925050505050505091929192905050506200227b565b005b3480156200088f57600080fd5b506200094f60048036036020811015620008a857600080fd5b8101908080359060200190640100000000811115620008c657600080fd5b820183602082011115620008d957600080fd5b80359060200191846001830284011164010000000083111715620008fc57600080fd5b91908080601f016020809104026020016040519081016040528093929190818152602001838380828437600081840152601f19601f8201169050808301925050505050505091929192905050506200289c565b6040518086815260200185815260200184815260200183815260200180602001828103825283818151815260200191508051906020019080838360005b83811015620009a95780820151818401526020810190506200098c565b50505050905090810190601f168015620009d75780820380516001836020036101000a031916815260200191505b50965050505050505060405180910390f35b62000b4c6004803603606081101562000a0157600080fd5b81019080803590602001909291908035906020019064010000000081111562000a2957600080fd5b82018360208201111562000a3c57600080fd5b8035906020019184600183028401116401000000008311171562000a5f57600080fd5b91908080601f016020809104026020016040519081016040528093929190818152602001838380828437600081840152601f19601f8201169050808301925050505050505091929192908035906020019064010000000081111562000ac357600080fd5b82018360208201111562000ad657600080fd5b8035906020019184600183028401116401000000008311171562000af957600080fd5b91908080601f016020809104026020016040519081016040528093929190818152602001838380828437600081840152601f19601f82011690508083019250505050505050919291929050505062002a3d565b005b62000c0d6004803603602081101562000b6657600080fd5b810190808035906020019064010000000081111562000b8457600080fd5b82018360208201111562000b9757600080fd5b8035906020019184600183028401116401000000008311171562000bba57600080fd5b91908080601f016020809104026020016040519081016040528093929190818152602001838380828437600081840152601f19601f82011690508083019250505050505050919291929050505062002dd8565b005b62000cda6004803603604081101562000c2757600080fd5b810190808035151590602001909291908035906020019064010000000081111562000c5157600080fd5b82018360208201111562000c6457600080fd5b8035906020019184600183028401116401000000008311171562000c8757600080fd5b91908080601f016020809104026020016040519081016040528093929190818152602001838380828437600081840152601f19601f8201169050808301925050505050505091929192905050506200326f565b005b34801562000ce957600080fd5b5062000cf4620034ad565b6040518080602001868152602001858152602001848152602001838152602001828103825287818151815260200191508051906020019080838360005b8381101562000d4e57808201518184015260208101905062000d31565b50505050905090810190601f16801562000d7c5780820380516001836020036101000a031916815260200191505b50965050505050505060405180910390f35b62000e4d6004803603602081101562000da657600080fd5b810190808035906020019064010000000081111562000dc457600080fd5b82018360208201111562000dd757600080fd5b8035906020019184600183028401116401000000008311171562000dfa57600080fd5b91908080601f016020809104026020016040519081016040528093929190818152602001838380828437600081840152601f19601f820116905080830192505050505050509192919290505050620035de565b005b62000f1a6004803603604081101562000e6757600080fd5b810190808035906020019064010000000081111562000e8557600080fd5b82018360208201111562000e9857600080fd5b8035906020019184600183028401116401000000008311171562000ebb57600080fd5b91908080601f016020809104026020016040519081016040528093929190818152602001838380828437600081840152601f19601f82011690508083019250505050505050919291929080351515906020019092919050505062003ba0565b005b34801562000f2957600080fd5b5062000fe96004803603602081101562000f4257600080fd5b810190808035906020019064010000000081111562000f6057600080fd5b82018360208201111562000f7357600080fd5b8035906020019184600183028401116401000000008311171562000f9657600080fd5b91908080601f016020809104026020016040519081016040528093929190818152602001838380828437600081840152601f19601f82011690508083019250505050505050919291929050505062003e87565b60405180806020018060200180602001848103845287818151815260200191508051906020019080838360005b838110156200103357808201518184015260208101905062001016565b50505050905090810190601f168015620010615780820380516001836020036101000a031916815260200191505b50848103835286818151815260200191508051906020019080838360005b838110156200109c5780820151818401526020810190506200107f565b50505050905090810190601f168015620010ca5780820380516001836020036101000a031916815260200191505b50848103825285818151815260200191508051906020019080838360005b8381101562001105578082015181840152602081019050620010e8565b50505050905090810190601f168015620011335780820380516001836020036101000a031916815260200191505b50965050505050505060405180910390f35b3480156200115257600080fd5b5062001212600480360360208110156200116b57600080fd5b81019080803590602001906401000000008111156200118957600080fd5b8201836020820111156200119c57600080fd5b80359060200191846001830284011164010000000083111715620011bf57600080fd5b91908080601f016020809104026020016040519081016040528093929190818152602001838380828437600081840152601f19601f82011690508083019250505050505050919291929050505062004153565b604051808615151515815260200185815260200180602001806020018460038111156200123b57fe5b60ff168152602001838103835286818151815260200191508051906020019080838360005b838110156200127d57808201518184015260208101905062001260565b50505050905090810190601f168015620012ab5780820380516001836020036101000a031916815260200191505b50838103825285818151815260200191508051906020019080838360005b83811015620012e6578082015181840152602081019050620012c9565b50505050905090810190601f168015620013145780820380516001836020036101000a031916815260200191505b5097505050505050505060405180910390f35b3480156200133457600080fd5b506200133f620043ad565b604051808273ffffffffffffffffffffffffffffffffffffffff1673ffffffffffffffffffffffffffffffffffffffff16815260200191505060405180910390f35b3480156200138e57600080fd5b506200139962004432565b604051808215151515815260200191505060405180910390f35b348015620013c057600080fd5b506200148060048036036020811015620013d957600080fd5b8101908080359060200190640100000000811115620013f757600080fd5b8201836020820111156200140a57600080fd5b803590602001918460018302840111640100000000831117156200142d57600080fd5b91908080601f016020809104026020016040519081016040528093929190818152602001838380828437600081840152601f19601f82011690508083019250505050505050919291929050505062004445565b60405180806020018060200180602001848103845287818151815260200191508051906020019080838360005b83811015620014ca578082015181840152602081019050620014ad565b50505050905090810190601f168015620014f85780820380516001836020036101000a031916815260200191505b50848103835286818151815260200191508051906020019080838360005b838110156200153357808201518184015260208101905062001516565b50505050905090810190601f168015620015615780820380516001836020036101000a031916815260200191505b50848103825285818151815260200191508051906020019080838360005b838110156200159c5780820151818401526020810190506200157f565b50505050905090810190601f168015620015ca5780820380516001836020036101000a031916815260200191505b50965050505050505060405180910390f35b348015620015e957600080fd5b50620016a9600480360360208110156200160257600080fd5b81019080803590602001906401000000008111156200162057600080fd5b8201836020820111156200163357600080fd5b803590602001918460018302840111640100000000831117156200165657600080fd5b91908080601f016020809104026020016040519081016040528093929190818152602001838380828437600081840152601f19601f82011690508083019250505050505050919291929050505062004711565b60405180826007811115620016ba57fe5b60ff16815260200191505060405180910390f35b6200178d60048036036020811015620016e657600080fd5b81019080803590602001906401000000008111156200170457600080fd5b8201836020820111156200171757600080fd5b803590602001918460018302840111640100000000831117156200173a57600080fd5b91908080601f016020809104026020016040519081016040528093929190818152602001838380828437600081840152601f19601f820116905080830192505050505050509192919290505050620047fa565b005b3480156200179c57600080fd5b50620017a762004a20565b6040518080602001828103825283818151815260200191508051906020019080838360005b83811015620017e9578082015181840152602081019050620017cc565b50505050905090810190601f168015620018175780820380516001836020036101000a031916815260200191505b509250505060405180910390f35b6000809054906101000a900473ffffffffffffffffffffffffffffffffffffffff1673ffffffffffffffffffffffffffffffffffffffff163373ffffffffffffffffffffffffffffffffffffffff161415156200188157600080fd5b81600115156008826040518082805190602001908083835b602083101515620018c0578051825260208201915060208101905060208303925062001899565b6001836020036101000a038019825116818451168082178552505050505050905001915050908152602001604051809103902060000160009054906101000a900460ff1615151415156200191357600080fd5b6003838160038111156200192357fe5b6008826040518082805190602001908083835b6020831015156200195d578051825260208201915060208101905060208303925062001936565b6001836020036101000a038019825116818451168082178552505050505050905001915050908152602001604051809103902060040160009054906101000a900460ff166003811115620019ad57fe5b141515620019ba57600080fd5b600585816007811115620019ca57fe5b6009826040518082805190602001908083835b60208310151562001a045780518252602082019150602081019050602083039250620019dd565b6001836020036101000a0380198251168184511680821785525050505050509050019150509081526020016040518091039020600b0160009054906101000a900460ff16600781111562001a5457fe5b14151562001a6157600080fd5b856009886040518082805190602001908083835b60208310151562001a9c578051825260208201915060208101905060208303925062001a75565b6001836020036101000a0380198251168184511680821785525050505050509050019150509081526020016040518091039020600a01908051906020019062001ae792919062004b22565b5060066009886040518082805190602001908083835b60208310151562001b24578051825260208201915060208101905060208303925062001afd565b6001836020036101000a0380198251168184511680821785525050505050509050019150509081526020016040518091039020600b0160006101000a81548160ff0219169083600781111562001b7657fe5b021790555050505050505050565b6000809054906101000a900473ffffffffffffffffffffffffffffffffffffffff1673ffffffffffffffffffffffffffffffffffffffff163373ffffffffffffffffffffffffffffffffffffffff1614151562001be057600080fd5b600260009054906101000a900460ff1615151562001bfd57600080fd5b81600115156008826040518082805190602001908083835b60208310151562001c3c578051825260208201915060208101905060208303925062001c15565b6001836020036101000a038019825116818451168082178552505050505050905001915050908152602001604051809103902060000160009054906101000a900460ff16151514151562001c8f57600080fd5b60038381600381111562001c9f57fe5b6008826040518082805190602001908083835b60208310151562001cd9578051825260208201915060208101905060208303925062001cb2565b6001836020036101000a038019825116818451168082178552505050505050905001915050908152602001604051809103902060040160009054906101000a900460ff16600381111562001d2957fe5b14151562001d3657600080fd5b60038581600781111562001d4657fe5b6009826040518082805190602001908083835b60208310151562001d80578051825260208201915060208101905060208303925062001d59565b6001836020036101000a0380198251168184511680821785525050505050509050019150509081526020016040518091039020600b0160009054906101000a900460ff16600781111562001dd057fe5b14151562001ddd57600080fd5b856009886040518082805190602001908083835b60208310151562001e18578051825260208201915060208101905060208303925062001df1565b6001836020036101000a0380198251168184511680821785525050505050509050019150509081526020016040518091039020600901908051906020019062001e6392919062004b22565b5060056009886040518082805190602001908083835b60208310151562001ea0578051825260208201915060208101905060208303925062001e79565b6001836020036101000a0380198251168184511680821785525050505050509050019150509081526020016040518091039020600b0160006101000a81548160ff0219169083600781111562001ef257fe5b02179055506001600260006101000a81548160ff02191690831515021790555050505050505050565b6000809054906101000a900473ffffffffffffffffffffffffffffffffffffffff1673ffffffffffffffffffffffffffffffffffffffff163373ffffffffffffffffffffffffffffffffffffffff1614151562001f7757600080fd5b81600115156008826040518082805190602001908083835b60208310151562001fb6578051825260208201915060208101905060208303925062001f8f565b6001836020036101000a038019825116818451168082178552505050505050905001915050908152602001604051809103902060000160009054906101000a900460ff1615151415156200200957600080fd5b6003838160038111156200201957fe5b6008826040518082805190602001908083835b6020831015156200205357805182526020820191506020810190506020830392506200202c565b6001836020036101000a038019825116818451168082178552505050505050905001915050908152602001604051809103902060040160009054906101000a900460ff166003811115620020a357fe5b141515620020b057600080fd5b600785816007811115620020c057fe5b6009826040518082805190602001908083835b602083101515620020fa5780518252602082019150602081019050602083039250620020d3565b6001836020036101000a0380198251168184511680821785525050505050509050019150509081526020016040518091039020600b0160009054906101000a900460ff1660078111156200214a57fe5b1415156200215757600080fd5b600a60009054906101000a900473ffffffffffffffffffffffffffffffffffffffff1673ffffffffffffffffffffffffffffffffffffffff1663104347ce88886040518363ffffffff167c01000000000000000000000000000000000000000000000000000000000281526004018080602001838152602001828103825284818151815260200191508051906020019080838360005b838110156200220a578082015181840152602081019050620021ed565b50505050905090810190601f168015620022385780820380516001836020036101000a031916815260200191505b509350505050600060405180830381600087803b1580156200225957600080fd5b505af11580156200226e573d6000803e3d6000fd5b5050505050505050505050565b6000809054906101000a900473ffffffffffffffffffffffffffffffffffffffff1673ffffffffffffffffffffffffffffffffffffffff163373ffffffffffffffffffffffffffffffffffffffff16141515620022d757600080fd5b88600115156008826040518082805190602001908083835b602083101515620023165780518252602082019150602081019050602083039250620022ef565b6001836020036101000a038019825116818451168082178552505050505050905001915050908152602001604051809103902060000160009054906101000a900460ff1615151415156200236957600080fd5b60038a8160038111156200237957fe5b6008826040518082805190602001908083835b602083101515620023b357805182526020820191506020810190506020830392506200238c565b6001836020036101000a038019825116818451168082178552505050505050905001915050908152602001604051809103902060040160009054906101000a900460ff1660038111156200240357fe5b1415156200241057600080fd5b8b600060078111156200241f57fe5b6009826040518082805190602001908083835b60208310151562002459578051825260208201915060208101905060208303925062002432565b6001836020036101000a0380198251168184511680821785525050505050509050019150509081526020016040518091039020600b0160009054906101000a900460ff166007811115620024a957fe5b14806200254b575060026007811115620024bf57fe5b6009826040518082805190602001908083835b602083101515620024f95780518252602082019150602081019050602083039250620024d2565b6001836020036101000a0380198251168184511680821785525050505050509050019150509081526020016040518091039020600b0160009054906101000a900460ff1660078111156200254957fe5b145b80620025ec5750600460078111156200256057fe5b6009826040518082805190602001908083835b6020831015156200259a578051825260208201915060208101905060208303925062002573565b6001836020036101000a0380198251168184511680821785525050505050509050019150509081526020016040518091039020600b0160009054906101000a900460ff166007811115620025ea57fe5b145b1515620025f857600080fd5b600060088e6040518082805190602001908083835b6020831015156200263457805182526020820191506020810190506020830392506200260d565b6001836020036101000a0380198251168184511680821785525050505050509050019150509081526020016040518091039020600101549050610180604051908101604052808e81526020018d81526020018c81526020018281526020018b81526020018a8152602001898152602001888152602001878152602001602060405190810160405280600081525081526020016020604051908101604052806000815250815260200160016007811115620026ea57fe5b81525060098f6040518082805190602001908083835b60208310151562002727578051825260208201915060208101905060208303925062002700565b6001836020036101000a038019825116818451168082178552505050505050905001915050908152602001604051809103902060008201518160000190805190602001906200277892919062004ba9565b5060208201518160010190805190602001906200279792919062004ba9565b506040820151816002019080519060200190620027b692919062004ba9565b50606082015181600301556080820151816004015560a0820151816005015560c0820151816006015560e0820151816007019080519060200190620027fd92919062004ba9565b506101008201518160080190805190602001906200281d92919062004ba9565b506101208201518160090190805190602001906200283d92919062004ba9565b5061014082015181600a0190805190602001906200285d92919062004ba9565b5061016082015181600b0160006101000a81548160ff021916908360078111156200288457fe5b02179055509050505050505050505050505050505050565b60008060008060606000809054906101000a900473ffffffffffffffffffffffffffffffffffffffff1673ffffffffffffffffffffffffffffffffffffffff163373ffffffffffffffffffffffffffffffffffffffff161415156200290057600080fd5b60006009876040518082805190602001908083835b6020831015156200293c578051825260208201915060208101905060208303925062002915565b6001836020036101000a03801982511681845116808217855250505050505090500191505090815260200160405180910390209050806003015481600401548260050154836006015484600701808054600181600116156101000203166002900480601f01602080910402602001604051908101604052809291908181526020018280546001816001161561010002031660029004801562002a225780601f10620029f65761010080835404028352916020019162002a22565b820191906000526020600020905b81548152906001019060200180831162002a0457829003601f168201915b50505050509050955095509550955095505091939590929450565b6000809054906101000a900473ffffffffffffffffffffffffffffffffffffffff1673ffffffffffffffffffffffffffffffffffffffff163373ffffffffffffffffffffffffffffffffffffffff1614151562002a9957600080fd5b80600015156008826040518082805190602001908083835b60208310151562002ad8578051825260208201915060208101905060208303925062002ab1565b6001836020036101000a038019825116818451168082178552505050505050905001915050908152602001604051809103902060000160009054906101000a900460ff161515148062002bc057506001600381111562002b3457fe5b6008826040518082805190602001908083835b60208310151562002b6e578051825260208201915060208101905060208303925062002b47565b6001836020036101000a038019825116818451168082178552505050505050905001915050908152602001604051809103902060040160009054906101000a900460ff16600381111562002bbe57fe5b145b8062002c6157506002600381111562002bd557fe5b6008826040518082805190602001908083835b60208310151562002c0f578051825260208201915060208101905060208303925062002be8565b6001836020036101000a038019825116818451168082178552505050505050905001915050908152602001604051809103902060040160009054906101000a900460ff16600381111562002c5f57fe5b145b151562002c6d57600080fd5b600260009054906101000a900460ff1615151562002c8a57600080fd5b62002c9462004c30565b60a0604051908101604052806001151581526020018681526020018581526020018481526020016000600381111562002cc957fe5b8152509050806008846040518082805190602001908083835b60208310151562002d09578051825260208201915060208101905060208303925062002ce2565b6001836020036101000a038019825116818451168082178552505050505050905001915050908152602001604051809103902060008201518160000160006101000a81548160ff02191690831515021790555060208201518160010155604082015181600201908051906020019062002d8492919062004ba9565b50606082015181600301908051906020019062002da392919062004ba9565b5060808201518160040160006101000a81548160ff0219169083600381111562002dc957fe5b02179055509050505050505050565b6000809054906101000a900473ffffffffffffffffffffffffffffffffffffffff1673ffffffffffffffffffffffffffffffffffffffff163373ffffffffffffffffffffffffffffffffffffffff1614151562002e3457600080fd5b80600115156008826040518082805190602001908083835b60208310151562002e73578051825260208201915060208101905060208303925062002e4c565b6001836020036101000a038019825116818451168082178552505050505050905001915050908152602001604051809103902060000160009054906101000a900460ff16151514151562002ec657600080fd5b8160006008826040518082805190602001908083835b60208310151562002f03578051825260208201915060208101905060208303925062002edc565b6001836020036101000a038019825116818451168082178552505050505050905001915050908152602001604051809103902060040160009054906101000a900460ff1690506000600381111562002f5757fe5b81600381111562002f6457fe5b148062002f88575060038081111562002f7957fe5b81600381111562002f8657fe5b145b151562002f9457600080fd5b60006009836040518082805190602001908083835b60208310151562002fd0578051825260208201915060208101905060208303925062002fa9565b6001836020036101000a0380198251168184511680821785525050505050509050019150509081526020016040518091039020600b0160009054906101000a900460ff169050600460078111156200302457fe5b8160078111156200303157fe5b1480620030565750600660078111156200304757fe5b8160078111156200305457fe5b145b806200307957506007808111156200306a57fe5b8160078111156200307757fe5b145b1515156200308657600080fd5b60026008866040518082805190602001908083835b602083101515620030c257805182526020820191506020810190506020830392506200309b565b6001836020036101000a038019825116818451168082178552505050505050905001915050908152602001604051809103902060040160006101000a81548160ff021916908360038111156200311457fe5b0217905550600060078111156200312757fe5b6009866040518082805190602001908083835b6020831015156200316157805182526020820191506020810190506020830392506200313a565b6001836020036101000a0380198251168184511680821785525050505050509050019150509081526020016040518091039020600b0160009054906101000a900460ff166007811115620031b157fe5b1415156200324d5760046009866040518082805190602001908083835b602083101515620031f55780518252602082019150602081019050602083039250620031ce565b6001836020036101000a0380198251168184511680821785525050505050509050019150509081526020016040518091039020600b0160006101000a81548160ff021916908360078111156200324757fe5b02179055505b6000600260006101000a81548160ff0219169083151502179055505050505050565b6000809054906101000a900473ffffffffffffffffffffffffffffffffffffffff1673ffffffffffffffffffffffffffffffffffffffff163373ffffffffffffffffffffffffffffffffffffffff16141515620032cb57600080fd5b80600115156008826040518082805190602001908083835b6020831015156200330a5780518252602082019150602081019050602083039250620032e3565b6001836020036101000a038019825116818451168082178552505050505050905001915050908152602001604051809103902060000160009054906101000a900460ff1615151415156200335d57600080fd5b6000828160038111156200336d57fe5b6008826040518082805190602001908083835b602083101515620033a7578051825260208201915060208101905060208303925062003380565b6001836020036101000a038019825116818451168082178552505050505050905001915050908152602001604051809103902060040160009054906101000a900460ff166003811115620033f757fe5b1415156200340457600080fd5b846200341257600162003415565b60035b6008856040518082805190602001908083835b6020831015156200344f578051825260208201915060208101905060208303925062003428565b6001836020036101000a038019825116818451168082178552505050505050905001915050908152602001604051809103902060040160006101000a81548160ff02191690836003811115620034a157fe5b02179055505050505050565b60606000806000806000809054906101000a900473ffffffffffffffffffffffffffffffffffffffff1673ffffffffffffffffffffffffffffffffffffffff163373ffffffffffffffffffffffffffffffffffffffff161415156200351157600080fd5b60036000016003600101546003600201546003800154600360040154848054600181600116156101000203166002900480601f016020809104026020016040519081016040528092919081815260200182805460018160011615610100020316600290048015620035c65780601f106200359a57610100808354040283529160200191620035c6565b820191906000526020600020905b815481529060010190602001808311620035a857829003601f168201915b50505050509450945094509450945094509091929394565b6000809054906101000a900473ffffffffffffffffffffffffffffffffffffffff1673ffffffffffffffffffffffffffffffffffffffff163373ffffffffffffffffffffffffffffffffffffffff161415156200363a57600080fd5b80600115156008826040518082805190602001908083835b60208310151562003679578051825260208201915060208101905060208303925062003652565b6001836020036101000a038019825116818451168082178552505050505050905001915050908152602001604051809103902060000160009054906101000a900460ff161515141515620036cc57600080fd5b600382816003811115620036dc57fe5b6008826040518082805190602001908083835b602083101515620037165780518252602082019150602081019050602083039250620036ef565b6001836020036101000a038019825116818451168082178552505050505050905001915050908152602001604051809103902060040160009054906101000a900460ff1660038111156200376657fe5b1415156200377357600080fd5b6006848160078111156200378357fe5b6009826040518082805190602001908083835b602083101515620037bd578051825260208201915060208101905060208303925062003796565b6001836020036101000a0380198251168184511680821785525050505050509050019150509081526020016040518091039020600b0160009054906101000a900460ff1660078111156200380d57fe5b1415156200381a57600080fd5b60076009876040518082805190602001908083835b6020831015156200385657805182526020820191506020810190506020830392506200382f565b6001836020036101000a0380198251168184511680821785525050505050509050019150509081526020016040518091039020600b0160006101000a81548160ff02191690836007811115620038a857fe5b0217905550856009876040518082805190602001908083835b602083101515620038e85780518252602082019150602081019050602083039250620038c1565b6001836020036101000a03801982511681845116808217855250505050505090500191505090815260200160405180910390206001016009886040518082805190602001908083835b60208310151562003958578051825260208201915060208101905060208303925062003931565b6001836020036101000a0380198251168184511680821785525050505050509050019150509081526020016040518091039020600001606464e8d4a51000620039a062004c6e565b80806020018060200180602001868152602001858152602001848103845289818151815260200191508051906020019080838360005b83811015620039f3578082015181840152602081019050620039d6565b50505050905090810190601f16801562003a215780820380516001836020036101000a031916815260200191505b5084810383528881815460018160011615610100020316600290048152602001915080546001816001161561010002031660029004801562003aa75780601f1062003a7b5761010080835404028352916020019162003aa7565b820191906000526020600020905b81548152906001019060200180831162003a8957829003601f168201915b505084810382528781815460018160011615610100020316600290048152602001915080546001816001161561010002031660029004801562003b2e5780601f1062003b025761010080835404028352916020019162003b2e565b820191906000526020600020905b81548152906001019060200180831162003b1057829003601f168201915b505098505050505050505050604051809103906000f08015801562003b57573d6000803e3d6000fd5b50600a60006101000a81548173ffffffffffffffffffffffffffffffffffffffff021916908373ffffffffffffffffffffffffffffffffffffffff160217905550505050505050565b6000809054906101000a900473ffffffffffffffffffffffffffffffffffffffff1673ffffffffffffffffffffffffffffffffffffffff163373ffffffffffffffffffffffffffffffffffffffff1614151562003bfc57600080fd5b81600115156008826040518082805190602001908083835b60208310151562003c3b578051825260208201915060208101905060208303925062003c14565b6001836020036101000a038019825116818451168082178552505050505050905001915050908152602001604051809103902060000160009054906101000a900460ff16151514151562003c8e57600080fd5b60038381600381111562003c9e57fe5b6008826040518082805190602001908083835b60208310151562003cd8578051825260208201915060208101905060208303925062003cb1565b6001836020036101000a038019825116818451168082178552505050505050905001915050908152602001604051809103902060040160009054906101000a900460ff16600381111562003d2857fe5b14151562003d3557600080fd5b60018581600781111562003d4557fe5b6009826040518082805190602001908083835b60208310151562003d7f578051825260208201915060208101905060208303925062003d58565b6001836020036101000a0380198251168184511680821785525050505050509050019150509081526020016040518091039020600b0160009054906101000a900460ff16600781111562003dcf57fe5b14151562003ddc57600080fd5b8562003dea57600262003ded565b60035b6009886040518082805190602001908083835b60208310151562003e27578051825260208201915060208101905060208303925062003e00565b6001836020036101000a0380198251168184511680821785525050505050509050019150509081526020016040518091039020600b0160006101000a81548160ff0219169083600781111562003e7957fe5b021790555050505050505050565b60608060606000809054906101000a900473ffffffffffffffffffffffffffffffffffffffff1673ffffffffffffffffffffffffffffffffffffffff163373ffffffffffffffffffffffffffffffffffffffff1614151562003ee857600080fd5b60006009856040518082805190602001908083835b60208310151562003f24578051825260208201915060208101905060208303925062003efd565b6001836020036101000a03801982511681845116808217855250505050505090500191505090815260200160405180910390209050806000018160010182600201828054600181600116156101000203166002900480601f01602080910402602001604051908101604052809291908181526020018280546001816001161561010002031660029004801562003ffe5780601f1062003fd25761010080835404028352916020019162003ffe565b820191906000526020600020905b81548152906001019060200180831162003fe057829003601f168201915b50505050509250818054600181600116156101000203166002900480601f0160208091040260200160405190810160405280929190818152602001828054600181600116156101000203166002900480156200409e5780601f1062004072576101008083540402835291602001916200409e565b820191906000526020600020905b8154815290600101906020018083116200408057829003601f168201915b50505050509150808054600181600116156101000203166002900480601f0160208091040260200160405190810160405280929190818152602001828054600181600116156101000203166002900480156200413e5780601f1062004112576101008083540402835291602001916200413e565b820191906000526020600020905b8154815290600101906020018083116200412057829003601f168201915b50505050509050935093509350509193909250565b60008060608060008060009054906101000a900473ffffffffffffffffffffffffffffffffffffffff1673ffffffffffffffffffffffffffffffffffffffff163373ffffffffffffffffffffffffffffffffffffffff16141515620041b757600080fd5b60006008876040518082805190602001908083835b602083101515620041f35780518252602082019150602081019050602083039250620041cc565b6001836020036101000a038019825116818451168082178552505050505050905001915050908152602001604051809103902090508060000160009054906101000a900460ff16816001015482600201836003018460040160009054906101000a900460ff16828054600181600116156101000203166002900480601f016020809104026020016040519081016040528092919081815260200182805460018160011615610100020316600290048015620042f25780601f10620042c657610100808354040283529160200191620042f2565b820191906000526020600020905b815481529060010190602001808311620042d457829003601f168201915b50505050509250818054600181600116156101000203166002900480601f016020809104026020016040519081016040528092919081815260200182805460018160011615610100020316600290048015620043925780601f10620043665761010080835404028352916020019162004392565b820191906000526020600020905b8154815290600101906020018083116200437457829003601f168201915b50505050509150955095509550955095505091939590929450565b60008060009054906101000a900473ffffffffffffffffffffffffffffffffffffffff1673ffffffffffffffffffffffffffffffffffffffff163373ffffffffffffffffffffffffffffffffffffffff161415156200440b57600080fd5b6000809054906101000a900473ffffffffffffffffffffffffffffffffffffffff16905090565b600260009054906101000a900460ff1681565b60608060606000809054906101000a900473ffffffffffffffffffffffffffffffffffffffff1673ffffffffffffffffffffffffffffffffffffffff163373ffffffffffffffffffffffffffffffffffffffff16141515620044a657600080fd5b60006009856040518082805190602001908083835b602083101515620044e25780518252602082019150602081019050602083039250620044bb565b6001836020036101000a03801982511681845116808217855250505050505090500191505090815260200160405180910390209050806008018160090182600a01828054600181600116156101000203166002900480601f016020809104026020016040519081016040528092919081815260200182805460018160011615610100020316600290048015620045bc5780601f106200459057610100808354040283529160200191620045bc565b820191906000526020600020905b8154815290600101906020018083116200459e57829003601f168201915b50505050509250818054600181600116156101000203166002900480601f0160208091040260200160405190810160405280929190818152602001828054600181600116156101000203166002900480156200465c5780601f1062004630576101008083540402835291602001916200465c565b820191906000526020600020905b8154815290600101906020018083116200463e57829003601f168201915b50505050509150808054600181600116156101000203166002900480601f016020809104026020016040519081016040528092919081815260200182805460018160011615610100020316600290048015620046fc5780601f10620046d057610100808354040283529160200191620046fc565b820191906000526020600020905b815481529060010190602001808311620046de57829003601f168201915b50505050509050935093509350509193909250565b60008060009054906101000a900473ffffffffffffffffffffffffffffffffffffffff1673ffffffffffffffffffffffffffffffffffffffff163373ffffffffffffffffffffffffffffffffffffffff161415156200476f57600080fd5b60006009836040518082805190602001908083835b602083101515620047ab578051825260208201915060208101905060208303925062004784565b6001836020036101000a0380198251168184511680821785525050505050509050019150509081526020016040518091039020905080600b0160009054906101000a900460ff16915050919050565b6000809054906101000a900473ffffffffffffffffffffffffffffffffffffffff1673ffffffffffffffffffffffffffffffffffffffff163373ffffffffffffffffffffffffffffffffffffffff161415156200485657600080fd5b8060006009826040518082805190602001908083835b6020831015156200489357805182526020820191506020810190506020830392506200486c565b6001836020036101000a0380198251168184511680821785525050505050509050019150509081526020016040518091039020600b0160009054906101000a900460ff16905060046007811115620048e757fe5b816007811115620048f457fe5b1480620049195750600660078111156200490a57fe5b8160078111156200491757fe5b145b806200493c57506007808111156200492d57fe5b8160078111156200493a57fe5b145b80620049605750600260078111156200495157fe5b8160078111156200495e57fe5b145b1515156200496d57600080fd5b60046009846040518082805190602001908083835b602083101515620049a9578051825260208201915060208101905060208303925062004982565b6001836020036101000a0380198251168184511680821785525050505050509050019150509081526020016040518091039020600b0160006101000a81548160ff02191690836007811115620049fb57fe5b02179055506000600260006101000a81548160ff021916908315150217905550505050565b60606000809054906101000a900473ffffffffffffffffffffffffffffffffffffffff1673ffffffffffffffffffffffffffffffffffffffff163373ffffffffffffffffffffffffffffffffffffffff1614151562004a7e57600080fd5b60018054600181600116156101000203166002900480601f01602080910402602001604051908101604052809291908181526020018280546001816001161561010002031660029004801562004b185780601f1062004aec5761010080835404028352916020019162004b18565b820191906000526020600020905b81548152906001019060200180831162004afa57829003601f168201915b5050505050905090565b828054600181600116156101000203166002900490600052602060002090601f016020900481019282601f1062004b6557805160ff191683800117855562004b96565b8280016001018555821562004b96579182015b8281111562004b9557825182559160200191906001019062004b78565b5b50905062004ba5919062004c7f565b5090565b828054600181600116156101000203166002900490600052602060002090601f016020900481019282601f1062004bec57805160ff191683800117855562004c1d565b8280016001018555821562004c1d579182015b8281111562004c1c57825182559160200191906001019062004bff565b5b50905062004c2c919062004c7f565b5090565b60a0604051908101604052806000151581526020016000815260200160608152602001606081526020016000600381111562004c6857fe5b81525090565b6040516110ae8062004ca883390190565b62004ca491905b8082111562004ca057600081600090555060010162004c86565b5090565b9056fe608060405260008060006101000a81548160ff0219169083151502179055503480156200002b57600080fd5b50604051620010ae380380620010ae833981018060405260a08110156200005157600080fd5b8101908080516401000000008111156200006a57600080fd5b828101905060208101848111156200008157600080fd5b81518560018202830111640100000000821117156200009f57600080fd5b50509291906020018051640100000000811115620000bc57600080fd5b82810190506020810184811115620000d357600080fd5b8151856001820283011164010000000082111715620000f157600080fd5b505092919060200180516401000000008111156200010e57600080fd5b828101905060208101848111156200012557600080fd5b81518560018202830111640100000000821117156200014357600080fd5b5050929190602001805190602001909291908051906020019092919050505080420160038190555033600060016101000a81548173ffffffffffffffffffffffffffffffffffffffff021916908373ffffffffffffffffffffffffffffffffffffffff1602179055508360029080519060200190620001c4929190620004aa565b508260019080519060200190620001dd929190620004aa565b50620001e862000531565b60606040519081016040528087815260200142815260200184815250905060c06040519081016040528085815260200186815260200187815260200182815260200182602001518152602001600354815250600460008201518160000190805190602001906200025a92919062000553565b5060208201518160010190805190602001906200027992919062000553565b5060408201518160020190805190602001906200029892919062000553565b506060820151816003016000820151816000019080519060200190620002c092919062000553565b50602082015181600101556040820151816002015550506080820151816006015560a082015181600701559050506004600d876040518082805190602001908083835b6020831015156200032a578051825260208201915060208101905060208303925062000303565b6001836020036101000a03801982511681845116808217855250505050505090500191505090815260200160405180910390206000820181600001908054600181600116156101000203166002900462000386929190620005da565b5060018201816001019080546001816001161561010002031660029004620003b0929190620005da565b5060028201816002019080546001816001161561010002031660029004620003da929190620005da565b506003820181600301600082018160000190805460018160011615610100020316600290046200040c929190620005da565b50600182015481600101556002820154816002015550506006820154816006015560078201548160070155905050600c819080600181540180825580915050906001820390600052602060002090600302016000909192909190915060008201518160000190805190602001906200048692919062000553565b50602082015181600101556040820151816002015550505050505050505062000690565b828054600181600116156101000203166002900490600052602060002090601f016020900481019282601f10620004ed57805160ff19168380011785556200051e565b828001600101855582156200051e579182015b828111156200051d57825182559160200191906001019062000500565b5b5090506200052d919062000668565b5090565b6060604051908101604052806060815260200160008152602001600081525090565b828054600181600116156101000203166002900490600052602060002090601f016020900481019282601f106200059657805160ff1916838001178555620005c7565b82800160010185558215620005c7579182015b82811115620005c6578251825591602001919060010190620005a9565b5b509050620005d6919062000668565b5090565b828054600181600116156101000203166002900490600052602060002090601f016020900481019282601f1062000615578054855562000655565b828001600101855582156200065557600052602060002091601f016020900482015b828111156200065457825482559160010191906001019062000637565b5b50905062000664919062000668565b5090565b6200068d91905b80821115620006895760008160009055506001016200066f565b5090565b90565b610a0e80620006a06000396000f3fe608060405260043610610062576000357c0100000000000000000000000000000000000000000000000000000000900463ffffffff168063042171c414610064578063104347ce146100935780631c02708d1461016557806375f12b211461017c575b005b34801561007057600080fd5b506100796101ab565b604051808215151515815260200191505060405180910390f35b34801561009f57600080fd5b50610163600480360360408110156100b657600080fd5b81019080803590602001906401000000008111156100d357600080fd5b8201836020820111156100e557600080fd5b8035906020019184600183028401116401000000008311171561010757600080fd5b91908080601f016020809104026020016040519081016040528093929190818152602001838380828437600081840152601f19601f820116905080830192505050505050509192919290803590602001909291905050506101b7565b005b34801561017157600080fd5b5061017a610872565b005b34801561018857600080fd5b50610191610909565b604051808215151515815260200191505060405180910390f35b60006003544211905090565b600060019054906101000a900473ffffffffffffffffffffffffffffffffffffffff1673ffffffffffffffffffffffffffffffffffffffff163373ffffffffffffffffffffffffffffffffffffffff1614151561021357600080fd5b61021b6101ab565b151561086e5781606060046002018054600181600116156101000203166002900480601f0160208091040260200160405190810160405280929190818152602001828054600181600116156101000203166002900480156102bd5780601f10610292576101008083540402835291602001916102bd565b820191906000526020600020905b8154815290600101906020018083116102a057829003601f168201915b505050505090506060600d836040518082805190602001908083835b6020831015156102fe57805182526020820191506020810190506020830392506102d9565b6001836020036101000a03801982511681845116808217855250505050505090500191505090815260200160405180910390206001018054600181600116156101000203166002900480601f0160208091040260200160405190810160405280929190818152602001828054600181600116156101000203166002900480156103c85780601f1061039d576101008083540402835291602001916103c8565b820191906000526020600020905b8154815290600101906020018083116103ab57829003601f168201915b50505050509050606060028054600181600116156101000203166002900480601f0160208091040260200160405190810160405280929190818152602001828054600181600116156101000203166002900480156104675780601f1061043c57610100808354040283529160200191610467565b820191906000526020600020905b81548152906001019060200180831161044a57829003601f168201915b50505050509050826040516020018082805190602001908083835b6020831015156104a75780518252602082019150602081019050602083039250610482565b6001836020036101000a03801982511681845116808217855250505050505090500191505060405160208183030381529060405280519060200120846040516020018082805190602001908083835b60208310151561051b57805182526020820191506020810190506020830392506104f6565b6001836020036101000a038019825116818451168082178552505050505050905001915050604051602081830303815290604052805190602001201415156105cb576040517f08c379a00000000000000000000000000000000000000000000000000000000081526004018080602001828103825260148152602001807f4e4f54205448452052494748542054454e414e5400000000000000000000000081525060200191505060405180910390fd5b816040516020018082805190602001908083835b60208310151561060457805182526020820191506020810190506020830392506105df565b6001836020036101000a03801982511681845116808217855250505050505090500191505060405160208183030381529060405280519060200120816040516020018082805190602001908083835b6020831015156106785780518252602082019150602081019050602083039250610653565b6001836020036101000a03801982511681845116808217855250505050505090500191505060405160208183030381529060405280519060200120141515610728576040517f08c379a00000000000000000000000000000000000000000000000000000000081526004018080602001828103825260148152602001807f4e4f54205448452052494748542054454e414e5400000000000000000000000081525060200191505060405180910390fd5b61073061091b565b606060405190810160405280888152602001428152602001878152509050600c8190806001815401808255809150509060018203906000526020600020906003020160009091929091909150600082015181600001908051906020019061079892919061093d565b5060208201518160010155604082015181600201555050507fe13f15adebe940e007d6e953ac9952e15e6b205a24d34253368bd162fc117f468160000151826020015183604001516040518080602001848152602001838152602001828103825285818151815260200191508051906020019080838360005b8381101561082c578082015181840152602081019050610811565b50505050905090810190601f1680156108595780820380516001836020036101000a031916815260200191505b5094505050505060405180910390a150505050505b5050565b600060019054906101000a900473ffffffffffffffffffffffffffffffffffffffff1673ffffffffffffffffffffffffffffffffffffffff163373ffffffffffffffffffffffffffffffffffffffff161415156108ce57600080fd5b600060019054906101000a900473ffffffffffffffffffffffffffffffffffffffff1673ffffffffffffffffffffffffffffffffffffffff16ff5b6000809054906101000a900460ff1681565b6060604051908101604052806060815260200160008152602001600081525090565b828054600181600116156101000203166002900490600052602060002090601f016020900481019282601f1061097e57805160ff19168380011785556109ac565b828001600101855582156109ac579182015b828111156109ab578251825591602001919060010190610990565b5b5090506109b991906109bd565b5090565b6109df91905b808211156109db5760008160009055506001016109c3565b5090565b9056fea165627a7a723058209cc99b86a564a62708f638cbfdd511f382b38284be41b01f46ebfdfa577c61950029a165627a7a72305820ea072cea41264affd6d4e2831a4ffb36b0b5341bdfb6b588bf593e7e39de4e710029",
  "source": "pragma solidity ^0.5.0;\n\nimport \"./RentToContract.sol\";\n\ncontract EnlistmentToContract {\n\n    // MAIN VARIABLES THE CONTRACT WILL BE WORKING WITH\n\n    address owner;\n    string landlord;\n    bool public locked = false;\n    Enlistment enlistment;\n    mapping(string => Offer) tenantOfferMap;\n    mapping(string => AgreementDraft) tenantAgreementMap;\n    RentToContract rentToContract;\n\n    constructor(string memory landlordEmail, string memory streetName, int floorNr, int apartmentNr, int houseNr, int postalCode) public\n    {   // CREATE A NEW ENLISTMENT STRUCT OBJECT FROM THE PASSED IN ARGUMENTS \n        enlistment = Enlistment(streetName, floorNr, apartmentNr, houseNr, postalCode);\n        landlord = landlordEmail;\n        owner = msg.sender;\n    }\n\n    // GETTER FUNCTIONS \n\n    function getOwner() public view ownerOnly() returns (address) {\n        return owner;\n    }\n\n    function getLandlord() public view ownerOnly() returns (string memory) {\n        return landlord;\n    }\n\n    function getEnlistment() public view ownerOnly() returns (string memory, int, int, int, int) {\n        return (enlistment.streetName, enlistment.floorNr, enlistment.apartmentNr, enlistment.houseNr, enlistment.postalCode);\n    }\n\n    // MAIN ENUMERATIONS THE CONTRACT WILL BE WORKING WITH\n\n    enum OfferStatus { // CURRENT STATE OF ANY OFFER SUBMITTED FOR A PROPERTY\n        PENDING,\n        REJECTED,\n        CANCELLED,\n        ACCEPTED\n    }\n\n    enum AgreementStatus { // CURRENT STATE OF ANY AGREEMENT REGARDING AN OFFER\n        UNINITIALIZED, // internal\n        PENDING,\n        REJECTED,\n        CONFIRMED,\n        CANCELLED,\n        LANDLORD_SIGNED,\n        TENANT_SIGNED,\n        COMPLETED\n    }\n\n    // MAIN STRUCTS (Enlistment, Offer, AgreementDraft) THE CONTRACT WILL BE WORKING WITH\n    // NOTE: These could've been made separate Smart Contracts instead (would probably work better that way)\n\n    struct Enlistment {\n        string streetName;\n        int floorNr;\n        int apartmentNr;\n        int houseNr;\n        int postalCode;\n    }\n\n    struct Offer {\n        bool initialized;\n        int amount;\n        string tenantName;\n        string tenantEmail;\n        OfferStatus status;\n    }\n\n    struct AgreementDraft {\n        string landlordName; // for simplicity, there is only one landlord\n        string tenantName; // for simplicity, there is only one tenant and occupants are omitted\n        string tenantEmail;\n        int amount;\n        uint leaseStart;\n        uint handoverDate;\n        uint leasePeriod;\n        string otherTerms;\n        string agreementHash;\n        string landlordSignedHash;\n        string tenantSignedHash;\n        AgreementStatus status;\n    }\n\n    // MAIN MODIFIERS THE CONTRACT WILL BE WORKING WITH\n\n    modifier noActiveOffer(string memory tenantEmail) { // CHECKS IF THE TENANT (tenantEmail) INDEED HAS NO ACTIVE OFFER\n        require(tenantOfferMap[tenantEmail].initialized == false || tenantOfferMap[tenantEmail].status == OfferStatus.REJECTED || tenantOfferMap[tenantEmail].status == OfferStatus.CANCELLED);\n        _;\n    }\n\n    modifier offerExists(string memory tenantEmail) { // CHECKS IF THE TENANT (tenantEmail) HAS INDEED MADE AN OFFER\n        require(tenantOfferMap[tenantEmail].initialized == true);\n        _;\n    }\n\n    modifier offerInStatus(OfferStatus status, string memory tenantEmail) { // CONFIRMS STATUS OF THE OFFER IN QUESTION\n        require(tenantOfferMap[tenantEmail].status == status);\n        _;\n    }\n\n    modifier offerCancellable(string memory tenantEmail) { // CONFIRMS IF AN OFFER ISN'T ALREADY A DONE DEAL\n        OfferStatus offerStatus = tenantOfferMap[tenantEmail].status;\n        require(offerStatus == OfferStatus.PENDING || offerStatus == OfferStatus.ACCEPTED);\n        AgreementStatus agreementStatus = tenantAgreementMap[tenantEmail].status;\n        require(!(agreementStatus == AgreementStatus.CANCELLED || agreementStatus == AgreementStatus.TENANT_SIGNED || agreementStatus == AgreementStatus.COMPLETED));\n        _;\n    }\n\n    modifier agreementCanBeSubmitted(string memory tenantEmail) { // CONFIRMS IF THERE'S NO ACTIVE AGREEMENT AWAITING SIGNATURE CONSUMATION\n        require(tenantAgreementMap[tenantEmail].status == AgreementStatus.UNINITIALIZED || tenantAgreementMap[tenantEmail].status == AgreementStatus.REJECTED || tenantAgreementMap[tenantEmail].status == AgreementStatus.CANCELLED);\n        _;\n    }\n\n    modifier agreementInStatus(AgreementStatus status, string memory tenantEmail) {\n        require(tenantAgreementMap[tenantEmail].status == status); // VALIDATES THE AGREEMENT'S STATUS\n        _;\n    }\n\n    modifier agreementCancellable(string memory tenantEmail) { // CONFIRMS IF AN AGREEMENT ISN'T ALREADY A DONE DEAL (OR HASN'T BEEN REJECTED)\n        AgreementStatus agreementStatus = tenantAgreementMap[tenantEmail].status;\n        require(!(agreementStatus == AgreementStatus.CANCELLED || agreementStatus == AgreementStatus.TENANT_SIGNED || agreementStatus == AgreementStatus.COMPLETED || agreementStatus == AgreementStatus.REJECTED));\n        _;\n    }\n\n    modifier notLocked() {\n        require(!locked);\n        _;\n    }\n\n    modifier ownerOnly() {\n        require(msg.sender == owner);\n        _;\n    }\n\n    // what if the offer is in status PENDING and the tenant wants to send a new one?\n    // in a case like that, find a way to handle multiple pending offers simultaneously\n\n    function sendOffer(int amount, string memory tenantName, string memory tenantEmail) public payable\n        ownerOnly()\n        noActiveOffer(tenantEmail) // coz this modifier ensures that there's no active offer ..\n        notLocked()\n    {\n        Offer memory offer = Offer({\n            initialized: true,\n            amount: amount,\n            tenantName: tenantName,\n            tenantEmail: tenantEmail,\n            status: OfferStatus.PENDING\n        });\n        tenantOfferMap[tenantEmail] = offer;\n    }\n\n    // cancel an offer that has been submitted (and is cancellable)\n\n    function cancelOffer(string memory tenantEmail) public payable\n        ownerOnly()\n        offerExists(tenantEmail)\n        offerCancellable(tenantEmail)\n    {\n        tenantOfferMap[tenantEmail].status = OfferStatus.CANCELLED;\n        if (tenantAgreementMap[tenantEmail].status != AgreementStatus.UNINITIALIZED) {\n            tenantAgreementMap[tenantEmail].status = AgreementStatus.CANCELLED;\n        }\n        locked = false;\n    }\n\n    // get an offer that has been submitted (and is hasn't been cancelled yet)\n    \n    function getOffer(string memory tenantEmail) public view ownerOnly() returns (bool, int, string memory, string memory, OfferStatus) {\n        Offer storage o = tenantOfferMap[tenantEmail];\n        return (o.initialized, o.amount, o.tenantName, o.tenantEmail, o.status);\n    }\n\n    // review (accept / reject) an offer that has been submitted (and is pending)\n    \n    function reviewOffer(bool result, string memory tenantEmail) public payable\n        ownerOnly()\n        offerExists(tenantEmail)\n        offerInStatus(OfferStatus.PENDING, tenantEmail)\n    {\n        tenantOfferMap[tenantEmail].status = result ? OfferStatus.ACCEPTED : OfferStatus.REJECTED;\n    }\n\n    // submit the draft of an agreement (only if: the offer still exists & has been accepted, and an agreement can be submitted)\n    // a new draft agreement can submitted only if there isn't already 1 in place that has been signed, or awaiting confirmation\n    \n    function submitDraft(string memory tenantEmail, string memory landlordName, string memory agreementTenantName, string memory agreementTenantEmail, uint leaseStart, uint handoverDate, uint leasePeriod, string memory otherTerms, string memory hashStr) public payable\n        ownerOnly()\n        offerExists(tenantEmail)\n        offerInStatus(OfferStatus.ACCEPTED, tenantEmail)\n        agreementCanBeSubmitted(tenantEmail)\n    {\n        int256 amount = tenantOfferMap[tenantEmail].amount;\n        tenantAgreementMap[tenantEmail] = AgreementDraft(landlordName, agreementTenantName, agreementTenantEmail, amount, leaseStart, handoverDate, leasePeriod, otherTerms, hashStr, \"\", \"\", AgreementStatus.PENDING);\n    }\n\n    // getAgreement functions:\n    // can only return tuple of max 7 elements, otherwise throws \"Stack too deep\" \n    // solution: splitted into multiple functions - getAgreement + (Participants/Details/Hashes/Status)\n\n    function getAgreementParticipants(string memory tenantEmail) public view ownerOnly() returns (string memory, string memory, string memory) {\n        AgreementDraft storage a = tenantAgreementMap[tenantEmail];\n        return (a.landlordName, a.tenantName, a.tenantEmail);\n    }\n\n    function getAgreementDetails(string memory tenantEmail) public view ownerOnly() returns (int, uint, uint, uint, string memory) {\n        AgreementDraft storage a = tenantAgreementMap[tenantEmail];\n        return (a.amount, a.leaseStart, a.handoverDate, a.leasePeriod, a.otherTerms);\n    }\n\n    function getAgreementHashes(string memory tenantEmail) public view ownerOnly() returns (string memory, string memory, string memory) {\n        AgreementDraft storage a = tenantAgreementMap[tenantEmail];\n        return (a.agreementHash, a.landlordSignedHash, a.tenantSignedHash);\n    }\n\n    function getAgreementStatus(string memory tenantEmail) public view ownerOnly() returns (AgreementStatus) {\n        AgreementDraft storage a = tenantAgreementMap[tenantEmail];\n        return (a.status);\n    }\n\n    // review an agreement draft (only if: the offer still exists & has been accepted, and an agreement exists & is pending)\n    \n    function reviewAgreement(string memory tenantEmail, bool result) public payable\n        ownerOnly()\n        offerExists(tenantEmail)\n        offerInStatus(OfferStatus.ACCEPTED, tenantEmail)\n        agreementInStatus(AgreementStatus.PENDING, tenantEmail)\n    {\n        tenantAgreementMap[tenantEmail].status = result ? AgreementStatus.CONFIRMED : AgreementStatus.REJECTED;\n    }\n\n    // signing of an agreement draft by the landlord (only if: the offer still exists & has been accepted, and an agreement exists & is confirmed)\n    \n    function landlordSignAgreement(string memory tenantEmail, string memory landlordSignedHash) public payable\n        ownerOnly()\n        notLocked()\n        offerExists(tenantEmail)\n        offerInStatus(OfferStatus.ACCEPTED, tenantEmail)\n        agreementInStatus(AgreementStatus.CONFIRMED, tenantEmail)\n    {\n        tenantAgreementMap[tenantEmail].landlordSignedHash = landlordSignedHash;\n        tenantAgreementMap[tenantEmail].status = AgreementStatus.LANDLORD_SIGNED;\n        locked = true;\n    }\n\n    // signing of an agreement draft by the tenant (only if: the offer still exists & has been accepted, and an agreement exists & the landlord has signed already)\n\n    function tenantSignAgreement(string memory tenantEmail, string memory tenantSignedHash) public payable\n        ownerOnly()\n        offerExists(tenantEmail)\n        offerInStatus(OfferStatus.ACCEPTED, tenantEmail)\n        agreementInStatus(AgreementStatus.LANDLORD_SIGNED, tenantEmail)\n    {\n        tenantAgreementMap[tenantEmail].tenantSignedHash = tenantSignedHash;\n        tenantAgreementMap[tenantEmail].status = AgreementStatus.TENANT_SIGNED;\n    }\n\n    // cancelling of an agreement draft by the tenant (only if the agreement is cancellable ie. it exists, but the landlord hasn't already signed it)\n\n    function cancelAgreement(string memory tenantEmail) public payable\n        ownerOnly()\n        agreementCancellable(tenantEmail)\n    {\n        tenantAgreementMap[tenantEmail].status = AgreementStatus.CANCELLED;\n        locked = false;\n    }\n\n    // receiving the 1st month rent from the tenant (only if the agreement has been signed by both parties ie. the landlord and the tenant)\n\n    function receiveFirstMonthRent(string memory tenantEmail) public payable\n        ownerOnly()\n        offerExists(tenantEmail)\n        offerInStatus(OfferStatus.ACCEPTED, tenantEmail)\n        agreementInStatus(AgreementStatus.TENANT_SIGNED, tenantEmail)\n    {\n        tenantAgreementMap[tenantEmail].status = AgreementStatus.COMPLETED;\n        rentToContract = new RentToContract(tenantEmail, tenantAgreementMap[tenantEmail].tenantName, \n        tenantAgreementMap[tenantEmail].landlordName, 100, 1000000000000); \n        // EVENTUALLY, THE RENT AMOUNT & THE CONTRACT'S DURATION MUST BOTH BE MADE DYNAMIC\n    }\n    \n    function receiveMonthlyRent(string memory tenantEmail, int amount) public payable\n        ownerOnly()\n        offerExists(tenantEmail)\n        offerInStatus(OfferStatus.ACCEPTED, tenantEmail)\n        agreementInStatus(AgreementStatus.COMPLETED, tenantEmail)\n    {\n        // WORK WITH RENT amount\n        rentToContract.receiveMonthlyRent(tenantEmail, amount);\n    }\n\n}\n\n",
  "sourcePath": "C:/Users/kwadw/OneDrive/Desktop/WORK/personal-projects/blockchain/blockchain-dapp/land-real-estate-project/real-estate-blockchain/ethereum/contracts/EnlistmentToContract.sol",
  "compiler": {
    "name": "solc",
    "version": "0.5.0+commit.1d4f565a.Emscripten.clang"
  },
  "schemaVersion": "3.0.6",
  "updatedAt": "2019-06-17T22:27:54.933Z",
  "devdoc": {
    "methods": {}
  },
  "userdoc": {
    "methods": {}
  }
}