{
  "contractName": "EnlistmentToContract",
  "abi": [
    {
      "constant": true,
      "inputs": [],
      "name": "locked",
      "outputs": [
        {
          "name": "",
          "type": "bool"
        }
      ],
      "payable": false,
      "stateMutability": "view",
      "type": "function",
      "signature": "0xcf309012"
    },
    {
      "inputs": [
        {
          "name": "landlordEmail",
          "type": "string"
        },
        {
          "name": "streetName",
          "type": "string"
        },
        {
          "name": "floorNr",
          "type": "int256"
        },
        {
          "name": "apartmentNr",
          "type": "int256"
        },
        {
          "name": "houseNr",
          "type": "int256"
        },
        {
          "name": "postalCode",
          "type": "int256"
        }
      ],
      "payable": false,
      "stateMutability": "nonpayable",
      "type": "constructor",
      "signature": "constructor"
    },
    {
      "constant": true,
      "inputs": [],
      "name": "getOwner",
      "outputs": [
        {
          "name": "",
          "type": "address"
        }
      ],
      "payable": false,
      "stateMutability": "view",
      "type": "function",
      "signature": "0x893d20e8"
    },
    {
      "constant": true,
      "inputs": [],
      "name": "getLandlord",
      "outputs": [
        {
          "name": "",
          "type": "string"
        }
      ],
      "payable": false,
      "stateMutability": "view",
      "type": "function",
      "signature": "0xf502236d"
    },
    {
      "constant": true,
      "inputs": [],
      "name": "getEnlistment",
      "outputs": [
        {
          "name": "",
          "type": "string"
        },
        {
          "name": "",
          "type": "int256"
        },
        {
          "name": "",
          "type": "int256"
        },
        {
          "name": "",
          "type": "int256"
        },
        {
          "name": "",
          "type": "int256"
        }
      ],
      "payable": false,
      "stateMutability": "view",
      "type": "function",
      "signature": "0x31ae8ed0"
    },
    {
      "constant": false,
      "inputs": [
        {
          "name": "amount",
          "type": "int256"
        },
        {
          "name": "tenantName",
          "type": "string"
        },
        {
          "name": "tenantEmail",
          "type": "string"
        }
      ],
      "name": "sendOffer",
      "outputs": [],
      "payable": true,
      "stateMutability": "payable",
      "type": "function",
      "signature": "0x2c863d84"
    },
    {
      "constant": false,
      "inputs": [
        {
          "name": "tenantEmail",
          "type": "string"
        }
      ],
      "name": "cancelOffer",
      "outputs": [],
      "payable": true,
      "stateMutability": "payable",
      "type": "function",
      "signature": "0x2d63ce27"
    },
    {
      "constant": true,
      "inputs": [
        {
          "name": "tenantEmail",
          "type": "string"
        }
      ],
      "name": "getOffer",
      "outputs": [
        {
          "name": "",
          "type": "bool"
        },
        {
          "name": "",
          "type": "int256"
        },
        {
          "name": "",
          "type": "string"
        },
        {
          "name": "",
          "type": "string"
        },
        {
          "name": "",
          "type": "uint8"
        }
      ],
      "payable": false,
      "stateMutability": "view",
      "type": "function",
      "signature": "0x7a510116"
    },
    {
      "constant": false,
      "inputs": [
        {
          "name": "result",
          "type": "bool"
        },
        {
          "name": "tenantEmail",
          "type": "string"
        }
      ],
      "name": "reviewOffer",
      "outputs": [],
      "payable": true,
      "stateMutability": "payable",
      "type": "function",
      "signature": "0x2fcc176d"
    },
    {
      "constant": false,
      "inputs": [
        {
          "name": "tenantEmail",
          "type": "string"
        },
        {
          "name": "landlordName",
          "type": "string"
        },
        {
          "name": "agreementTenantName",
          "type": "string"
        },
        {
          "name": "agreementTenantEmail",
          "type": "string"
        },
        {
          "name": "leaseStart",
          "type": "uint256"
        },
        {
          "name": "handoverDate",
          "type": "uint256"
        },
        {
          "name": "leasePeriod",
          "type": "uint256"
        },
        {
          "name": "otherTerms",
          "type": "string"
        },
        {
          "name": "hashStr",
          "type": "string"
        }
      ],
      "name": "submitDraft",
      "outputs": [],
      "payable": true,
      "stateMutability": "payable",
      "type": "function",
      "signature": "0x222a7af9"
    },
    {
      "constant": true,
      "inputs": [
        {
          "name": "tenantEmail",
          "type": "string"
        }
      ],
      "name": "getAgreementParticipants",
      "outputs": [
        {
          "name": "",
          "type": "string"
        },
        {
          "name": "",
          "type": "string"
        },
        {
          "name": "",
          "type": "string"
        }
      ],
      "payable": false,
      "stateMutability": "view",
      "type": "function",
      "signature": "0x71ca1587"
    },
    {
      "constant": true,
      "inputs": [
        {
          "name": "tenantEmail",
          "type": "string"
        }
      ],
      "name": "getAgreementDetails",
      "outputs": [
        {
          "name": "",
          "type": "int256"
        },
        {
          "name": "",
          "type": "uint256"
        },
        {
          "name": "",
          "type": "uint256"
        },
        {
          "name": "",
          "type": "uint256"
        },
        {
          "name": "",
          "type": "string"
        }
      ],
      "payable": false,
      "stateMutability": "view",
      "type": "function",
      "signature": "0x265adc33"
    },
    {
      "constant": true,
      "inputs": [
        {
          "name": "tenantEmail",
          "type": "string"
        }
      ],
      "name": "getAgreementHashes",
      "outputs": [
        {
          "name": "",
          "type": "string"
        },
        {
          "name": "",
          "type": "string"
        },
        {
          "name": "",
          "type": "string"
        }
      ],
      "payable": false,
      "stateMutability": "view",
      "type": "function",
      "signature": "0xd441a152"
    },
    {
      "constant": true,
      "inputs": [
        {
          "name": "tenantEmail",
          "type": "string"
        }
      ],
      "name": "getAgreementStatus",
      "outputs": [
        {
          "name": "",
          "type": "uint8"
        }
      ],
      "payable": false,
      "stateMutability": "view",
      "type": "function",
      "signature": "0xec2b2a12"
    },
    {
      "constant": false,
      "inputs": [
        {
          "name": "tenantEmail",
          "type": "string"
        },
        {
          "name": "result",
          "type": "bool"
        }
      ],
      "name": "reviewAgreement",
      "outputs": [],
      "payable": true,
      "stateMutability": "payable",
      "type": "function",
      "signature": "0x673a95ef"
    },
    {
      "constant": false,
      "inputs": [
        {
          "name": "tenantEmail",
          "type": "string"
        },
        {
          "name": "landlordSignedHash",
          "type": "string"
        }
      ],
      "name": "landlordSignAgreement",
      "outputs": [],
      "payable": true,
      "stateMutability": "payable",
      "type": "function",
      "signature": "0x03746e06"
    },
    {
      "constant": false,
      "inputs": [
        {
          "name": "tenantEmail",
          "type": "string"
        },
        {
          "name": "tenantSignedHash",
          "type": "string"
        }
      ],
      "name": "tenantSignAgreement",
      "outputs": [],
      "payable": true,
      "stateMutability": "payable",
      "type": "function",
      "signature": "0x00ff22c6"
    },
    {
      "constant": false,
      "inputs": [
        {
          "name": "tenantEmail",
          "type": "string"
        }
      ],
      "name": "cancelAgreement",
      "outputs": [],
      "payable": true,
      "stateMutability": "payable",
      "type": "function",
      "signature": "0xf278f784"
    },
    {
      "constant": false,
      "inputs": [
        {
          "name": "tenantEmail",
          "type": "string"
        }
      ],
      "name": "receiveFirstMonthRent",
      "outputs": [],
      "payable": true,
      "stateMutability": "payable",
      "type": "function",
      "signature": "0x4d45780e"
    },
    {
      "constant": false,
      "inputs": [
        {
          "name": "tenantEmail",
          "type": "string"
        },
        {
          "name": "amount",
          "type": "uint256"
        }
      ],
      "name": "receiveMonthlyRent",
      "outputs": [],
      "payable": true,
      "stateMutability": "payable",
      "type": "function",
      "signature": "0xd6ce4112"
    }
  ],
  "bytecode": "0x60806040526000600260006101000a81548160ff0219169083151502179055503480156200002c57600080fd5b5060405162004a1938038062004a19833981018060405260c08110156200005257600080fd5b8101908080516401000000008111156200006b57600080fd5b828101905060208101848111156200008257600080fd5b8151856001820283011164010000000082111715620000a057600080fd5b50509291906020018051640100000000811115620000bd57600080fd5b82810190506020810184811115620000d457600080fd5b8151856001820283011164010000000082111715620000f257600080fd5b50509291906020018051906020019092919080519060200190929190805190602001909291908051906020019092919050505060a06040519081016040528086815260200185815260200184815260200183815260200182815250600360008201518160000190805190602001906200016d929190620001fe565b50602082015181600101556040820151816002015560608201518160030155608082015181600401559050508560019080519060200190620001b192919062000285565b50336000806101000a81548173ffffffffffffffffffffffffffffffffffffffff021916908373ffffffffffffffffffffffffffffffffffffffff16021790555050505050505062000334565b828054600181600116156101000203166002900490600052602060002090601f016020900481019282601f106200024157805160ff191683800117855562000272565b8280016001018555821562000272579182015b828111156200027157825182559160200191906001019062000254565b5b5090506200028191906200030c565b5090565b828054600181600116156101000203166002900490600052602060002090601f016020900481019282601f10620002c857805160ff1916838001178555620002f9565b82800160010185558215620002f9579182015b82811115620002f8578251825591602001919060010190620002db565b5b5090506200030891906200030c565b5090565b6200033191905b808211156200032d57600081600090555060010162000313565b5090565b90565b6146d580620003446000396000f3fe608060405260043610610106576000357c0100000000000000000000000000000000000000000000000000000000900463ffffffff168062ff22c61461010b57806303746e061461025d578063222a7af9146103af578063265adc331461077c5780632c863d84146108d95780632d63ce2714610a355780632fcc176d14610af057806331ae8ed014610bb75780634d45780e14610c63578063673a95ef14610d1e57806371ca158714610de55780637a51011614610ffe578063893d20e8146111d2578063cf30901214611229578063d441a15214611258578063d6ce411214611471578063ec2b2a1214611536578063f278f78414611620578063f502236d146116db575b600080fd5b61025b6004803603604081101561012157600080fd5b810190808035906020019064010000000081111561013e57600080fd5b82018360208201111561015057600080fd5b8035906020019184600183028401116401000000008311171561017257600080fd5b91908080601f016020809104026020016040519081016040528093929190818152602001838380828437600081840152601f19601f820116905080830192505050505050509192919290803590602001906401000000008111156101d557600080fd5b8201836020820111156101e757600080fd5b8035906020019184600183028401116401000000008311171561020957600080fd5b91908080601f016020809104026020016040519081016040528093929190818152602001838380828437600081840152601f19601f82011690508083019250505050505050919291929050505061176b565b005b6103ad6004803603604081101561027357600080fd5b810190808035906020019064010000000081111561029057600080fd5b8201836020820111156102a257600080fd5b803590602001918460018302840111640100000000831117156102c457600080fd5b91908080601f016020809104026020016040519081016040528093929190818152602001838380828437600081840152601f19601f8201169050808301925050505050505091929192908035906020019064010000000081111561032757600080fd5b82018360208201111561033957600080fd5b8035906020019184600183028401116401000000008311171561035b57600080fd5b91908080601f016020809104026020016040519081016040528093929190818152602001838380828437600081840152601f19601f820116905080830192505050505050509192919290505050611ab5565b005b61077a60048036036101208110156103c657600080fd5b81019080803590602001906401000000008111156103e357600080fd5b8201836020820111156103f557600080fd5b8035906020019184600183028401116401000000008311171561041757600080fd5b91908080601f016020809104026020016040519081016040528093929190818152602001838380828437600081840152601f19601f8201169050808301925050505050505091929192908035906020019064010000000081111561047a57600080fd5b82018360208201111561048c57600080fd5b803590602001918460018302840111640100000000831117156104ae57600080fd5b91908080601f016020809104026020016040519081016040528093929190818152602001838380828437600081840152601f19601f8201169050808301925050505050505091929192908035906020019064010000000081111561051157600080fd5b82018360208201111561052357600080fd5b8035906020019184600183028401116401000000008311171561054557600080fd5b91908080601f016020809104026020016040519081016040528093929190818152602001838380828437600081840152601f19601f820116905080830192505050505050509192919290803590602001906401000000008111156105a857600080fd5b8201836020820111156105ba57600080fd5b803590602001918460018302840111640100000000831117156105dc57600080fd5b91908080601f016020809104026020016040519081016040528093929190818152602001838380828437600081840152601f19601f8201169050808301925050505050505091929192908035906020019092919080359060200190929190803590602001909291908035906020019064010000000081111561065d57600080fd5b82018360208201111561066f57600080fd5b8035906020019184600183028401116401000000008311171561069157600080fd5b91908080601f016020809104026020016040519081016040528093929190818152602001838380828437600081840152601f19601f820116905080830192505050505050509192919290803590602001906401000000008111156106f457600080fd5b82018360208201111561070657600080fd5b8035906020019184600183028401116401000000008311171561072857600080fd5b91908080601f016020809104026020016040519081016040528093929190818152602001838380828437600081840152601f19601f820116905080830192505050505050509192919290505050611e36565b005b34801561078857600080fd5b506108426004803603602081101561079f57600080fd5b81019080803590602001906401000000008111156107bc57600080fd5b8201836020820111156107ce57600080fd5b803590602001918460018302840111640100000000831117156107f057600080fd5b91908080601f016020809104026020016040519081016040528093929190818152602001838380828437600081840152601f19601f82011690508083019250505050505050919291929050505061242b565b6040518086815260200185815260200184815260200183815260200180602001828103825283818151815260200191508051906020019080838360005b8381101561089a57808201518184015260208101905061087f565b50505050905090810190601f1680156108c75780820380516001836020036101000a031916815260200191505b50965050505050505060405180910390f35b610a33600480360360608110156108ef57600080fd5b81019080803590602001909291908035906020019064010000000081111561091657600080fd5b82018360208201111561092857600080fd5b8035906020019184600183028401116401000000008311171561094a57600080fd5b91908080601f016020809104026020016040519081016040528093929190818152602001838380828437600081840152601f19601f820116905080830192505050505050509192919290803590602001906401000000008111156109ad57600080fd5b8201836020820111156109bf57600080fd5b803590602001918460018302840111640100000000831117156109e157600080fd5b91908080601f016020809104026020016040519081016040528093929190818152602001838380828437600081840152601f19601f8201169050808301925050505050505091929192905050506125c5565b005b610aee60048036036020811015610a4b57600080fd5b8101908080359060200190640100000000811115610a6857600080fd5b820183602082011115610a7a57600080fd5b80359060200191846001830284011164010000000083111715610a9c57600080fd5b91908080601f016020809104026020016040519081016040528093929190818152602001838380828437600081840152601f19601f820116905080830192505050505050509192919290505050612947565b005b610bb560048036036040811015610b0657600080fd5b8101908080351515906020019092919080359060200190640100000000811115610b2f57600080fd5b820183602082011115610b4157600080fd5b80359060200191846001830284011164010000000083111715610b6357600080fd5b91908080601f016020809104026020016040519081016040528093929190818152602001838380828437600081840152601f19601f820116905080830192505050505050509192919290505050612dbc565b005b348015610bc357600080fd5b50610bcc612fec565b6040518080602001868152602001858152602001848152602001838152602001828103825287818151815260200191508051906020019080838360005b83811015610c24578082015181840152602081019050610c09565b50505050905090810190601f168015610c515780820380516001836020036101000a031916815260200191505b50965050505050505060405180910390f35b610d1c60048036036020811015610c7957600080fd5b8101908080359060200190640100000000811115610c9657600080fd5b820183602082011115610ca857600080fd5b80359060200191846001830284011164010000000083111715610cca57600080fd5b91908080601f016020809104026020016040519081016040528093929190818152602001838380828437600081840152601f19601f820116905080830192505050505050509192919290505050613118565b005b610de360048036036040811015610d3457600080fd5b8101908080359060200190640100000000811115610d5157600080fd5b820183602082011115610d6357600080fd5b80359060200191846001830284011164010000000083111715610d8557600080fd5b91908080601f016020809104026020016040519081016040528093929190818152602001838380828437600081840152601f19601f8201169050808301925050505050505091929192908035151590602001909291905050506133de565b005b348015610df157600080fd5b50610eab60048036036020811015610e0857600080fd5b8101908080359060200190640100000000811115610e2557600080fd5b820183602082011115610e3757600080fd5b80359060200191846001830284011164010000000083111715610e5957600080fd5b91908080601f016020809104026020016040519081016040528093929190818152602001838380828437600081840152601f19601f8201169050808301925050505050505091929192905050506136b2565b60405180806020018060200180602001848103845287818151815260200191508051906020019080838360005b83811015610ef3578082015181840152602081019050610ed8565b50505050905090810190601f168015610f205780820380516001836020036101000a031916815260200191505b50848103835286818151815260200191508051906020019080838360005b83811015610f59578082015181840152602081019050610f3e565b50505050905090810190601f168015610f865780820380516001836020036101000a031916815260200191505b50848103825285818151815260200191508051906020019080838360005b83811015610fbf578082015181840152602081019050610fa4565b50505050905090810190601f168015610fec5780820380516001836020036101000a031916815260200191505b50965050505050505060405180910390f35b34801561100a57600080fd5b506110c46004803603602081101561102157600080fd5b810190808035906020019064010000000081111561103e57600080fd5b82018360208201111561105057600080fd5b8035906020019184600183028401116401000000008311171561107257600080fd5b91908080601f016020809104026020016040519081016040528093929190818152602001838380828437600081840152601f19601f82011690508083019250505050505050919291929050505061396f565b604051808615151515815260200185815260200180602001806020018460038111156110ec57fe5b60ff168152602001838103835286818151815260200191508051906020019080838360005b8381101561112c578082015181840152602081019050611111565b50505050905090810190601f1680156111595780820380516001836020036101000a031916815260200191505b50838103825285818151815260200191508051906020019080838360005b83811015611192578082015181840152602081019050611177565b50505050905090810190601f1680156111bf5780820380516001836020036101000a031916815260200191505b5097505050505050505060405180910390f35b3480156111de57600080fd5b506111e7613bbe565b604051808273ffffffffffffffffffffffffffffffffffffffff1673ffffffffffffffffffffffffffffffffffffffff16815260200191505060405180910390f35b34801561123557600080fd5b5061123e613c42565b604051808215151515815260200191505060405180910390f35b34801561126457600080fd5b5061131e6004803603602081101561127b57600080fd5b810190808035906020019064010000000081111561129857600080fd5b8201836020820111156112aa57600080fd5b803590602001918460018302840111640100000000831117156112cc57600080fd5b91908080601f016020809104026020016040519081016040528093929190818152602001838380828437600081840152601f19601f820116905080830192505050505050509192919290505050613c55565b60405180806020018060200180602001848103845287818151815260200191508051906020019080838360005b8381101561136657808201518184015260208101905061134b565b50505050905090810190601f1680156113935780820380516001836020036101000a031916815260200191505b50848103835286818151815260200191508051906020019080838360005b838110156113cc5780820151818401526020810190506113b1565b50505050905090810190601f1680156113f95780820380516001836020036101000a031916815260200191505b50848103825285818151815260200191508051906020019080838360005b83811015611432578082015181840152602081019050611417565b50505050905090810190601f16801561145f5780820380516001836020036101000a031916815260200191505b50965050505050505060405180910390f35b6115346004803603604081101561148757600080fd5b81019080803590602001906401000000008111156114a457600080fd5b8201836020820111156114b657600080fd5b803590602001918460018302840111640100000000831117156114d857600080fd5b91908080601f016020809104026020016040519081016040528093929190818152602001838380828437600081840152601f19601f82011690508083019250505050505050919291929080359060200190929190505050613f12565b005b34801561154257600080fd5b506115fc6004803603602081101561155957600080fd5b810190808035906020019064010000000081111561157657600080fd5b82018360208201111561158857600080fd5b803590602001918460018302840111640100000000831117156115aa57600080fd5b91908080601f016020809104026020016040519081016040528093929190818152602001838380828437600081840152601f19601f820116905080830192505050505050509192919290505050614150565b6040518082600781111561160c57fe5b60ff16815260200191505060405180910390f35b6116d96004803603602081101561163657600080fd5b810190808035906020019064010000000081111561165357600080fd5b82018360208201111561166557600080fd5b8035906020019184600183028401116401000000008311171561168757600080fd5b91908080601f016020809104026020016040519081016040528093929190818152602001838380828437600081840152601f19601f820116905080830192505050505050509192919290505050614236565b005b3480156116e757600080fd5b506116f061444a565b6040518080602001828103825283818151815260200191508051906020019080838360005b83811015611730578082015181840152602081019050611715565b50505050905090810190601f16801561175d5780820380516001836020036101000a031916815260200191505b509250505060405180910390f35b6000809054906101000a900473ffffffffffffffffffffffffffffffffffffffff1673ffffffffffffffffffffffffffffffffffffffff163373ffffffffffffffffffffffffffffffffffffffff161415156117c657600080fd5b81600115156008826040518082805190602001908083835b60208310151561180357805182526020820191506020810190506020830392506117de565b6001836020036101000a038019825116818451168082178552505050505050905001915050908152602001604051809103902060000160009054906101000a900460ff16151514151561185557600080fd5b60038381600381111561186457fe5b6008826040518082805190602001908083835b60208310151561189c5780518252602082019150602081019050602083039250611877565b6001836020036101000a038019825116818451168082178552505050505050905001915050908152602001604051809103902060040160009054906101000a900460ff1660038111156118eb57fe5b1415156118f757600080fd5b60058581600781111561190657fe5b6009826040518082805190602001908083835b60208310151561193e5780518252602082019150602081019050602083039250611919565b6001836020036101000a0380198251168184511680821785525050505050509050019150509081526020016040518091039020600b0160009054906101000a900460ff16600781111561198d57fe5b14151561199957600080fd5b856009886040518082805190602001908083835b6020831015156119d257805182526020820191506020810190506020830392506119ad565b6001836020036101000a0380198251168184511680821785525050505050509050019150509081526020016040518091039020600a019080519060200190611a1b929190614547565b5060066009886040518082805190602001908083835b602083101515611a565780518252602082019150602081019050602083039250611a31565b6001836020036101000a0380198251168184511680821785525050505050509050019150509081526020016040518091039020600b0160006101000a81548160ff02191690836007811115611aa757fe5b021790555050505050505050565b6000809054906101000a900473ffffffffffffffffffffffffffffffffffffffff1673ffffffffffffffffffffffffffffffffffffffff163373ffffffffffffffffffffffffffffffffffffffff16141515611b1057600080fd5b600260009054906101000a900460ff16151515611b2c57600080fd5b81600115156008826040518082805190602001908083835b602083101515611b695780518252602082019150602081019050602083039250611b44565b6001836020036101000a038019825116818451168082178552505050505050905001915050908152602001604051809103902060000160009054906101000a900460ff161515141515611bbb57600080fd5b600383816003811115611bca57fe5b6008826040518082805190602001908083835b602083101515611c025780518252602082019150602081019050602083039250611bdd565b6001836020036101000a038019825116818451168082178552505050505050905001915050908152602001604051809103902060040160009054906101000a900460ff166003811115611c5157fe5b141515611c5d57600080fd5b600385816007811115611c6c57fe5b6009826040518082805190602001908083835b602083101515611ca45780518252602082019150602081019050602083039250611c7f565b6001836020036101000a0380198251168184511680821785525050505050509050019150509081526020016040518091039020600b0160009054906101000a900460ff166007811115611cf357fe5b141515611cff57600080fd5b856009886040518082805190602001908083835b602083101515611d385780518252602082019150602081019050602083039250611d13565b6001836020036101000a03801982511681845116808217855250505050505090500191505090815260200160405180910390206009019080519060200190611d81929190614547565b5060056009886040518082805190602001908083835b602083101515611dbc5780518252602082019150602081019050602083039250611d97565b6001836020036101000a0380198251168184511680821785525050505050509050019150509081526020016040518091039020600b0160006101000a81548160ff02191690836007811115611e0d57fe5b02179055506001600260006101000a81548160ff02191690831515021790555050505050505050565b6000809054906101000a900473ffffffffffffffffffffffffffffffffffffffff1673ffffffffffffffffffffffffffffffffffffffff163373ffffffffffffffffffffffffffffffffffffffff16141515611e9157600080fd5b88600115156008826040518082805190602001908083835b602083101515611ece5780518252602082019150602081019050602083039250611ea9565b6001836020036101000a038019825116818451168082178552505050505050905001915050908152602001604051809103902060000160009054906101000a900460ff161515141515611f2057600080fd5b60038a816003811115611f2f57fe5b6008826040518082805190602001908083835b602083101515611f675780518252602082019150602081019050602083039250611f42565b6001836020036101000a038019825116818451168082178552505050505050905001915050908152602001604051809103902060040160009054906101000a900460ff166003811115611fb657fe5b141515611fc257600080fd5b8b60006007811115611fd057fe5b6009826040518082805190602001908083835b6020831015156120085780518252602082019150602081019050602083039250611fe3565b6001836020036101000a0380198251168184511680821785525050505050509050019150509081526020016040518091039020600b0160009054906101000a900460ff16600781111561205757fe5b14806120f457506002600781111561206b57fe5b6009826040518082805190602001908083835b6020831015156120a3578051825260208201915060208101905060208303925061207e565b6001836020036101000a0380198251168184511680821785525050505050509050019150509081526020016040518091039020600b0160009054906101000a900460ff1660078111156120f257fe5b145b8061219057506004600781111561210757fe5b6009826040518082805190602001908083835b60208310151561213f578051825260208201915060208101905060208303925061211a565b6001836020036101000a0380198251168184511680821785525050505050509050019150509081526020016040518091039020600b0160009054906101000a900460ff16600781111561218e57fe5b145b151561219b57600080fd5b600060088e6040518082805190602001908083835b6020831015156121d557805182526020820191506020810190506020830392506121b0565b6001836020036101000a0380198251168184511680821785525050505050509050019150509081526020016040518091039020600101549050610180604051908101604052808e81526020018d81526020018c81526020018281526020018b81526020018a815260200189815260200188815260200187815260200160206040519081016040528060008152508152602001602060405190810160405280600081525081526020016001600781111561228a57fe5b81525060098f6040518082805190602001908083835b6020831015156122c557805182526020820191506020810190506020830392506122a0565b6001836020036101000a038019825116818451168082178552505050505050905001915050908152602001604051809103902060008201518160000190805190602001906123149291906145c7565b5060208201518160010190805190602001906123319291906145c7565b50604082015181600201908051906020019061234e9291906145c7565b50606082015181600301556080820151816004015560a0820151816005015560c0820151816006015560e08201518160070190805190602001906123939291906145c7565b506101008201518160080190805190602001906123b19291906145c7565b506101208201518160090190805190602001906123cf9291906145c7565b5061014082015181600a0190805190602001906123ed9291906145c7565b5061016082015181600b0160006101000a81548160ff0219169083600781111561241357fe5b02179055509050505050505050505050505050505050565b60008060008060606000809054906101000a900473ffffffffffffffffffffffffffffffffffffffff1673ffffffffffffffffffffffffffffffffffffffff163373ffffffffffffffffffffffffffffffffffffffff1614151561248e57600080fd5b60006009876040518082805190602001908083835b6020831015156124c857805182526020820191506020810190506020830392506124a3565b6001836020036101000a03801982511681845116808217855250505050505090500191505090815260200160405180910390209050806003015481600401548260050154836006015484600701808054600181600116156101000203166002900480601f0160208091040260200160405190810160405280929190818152602001828054600181600116156101000203166002900480156125aa5780601f1061257f576101008083540402835291602001916125aa565b820191906000526020600020905b81548152906001019060200180831161258d57829003601f168201915b50505050509050955095509550955095505091939590929450565b6000809054906101000a900473ffffffffffffffffffffffffffffffffffffffff1673ffffffffffffffffffffffffffffffffffffffff163373ffffffffffffffffffffffffffffffffffffffff1614151561262057600080fd5b80600015156008826040518082805190602001908083835b60208310151561265d5780518252602082019150602081019050602083039250612638565b6001836020036101000a038019825116818451168082178552505050505050905001915050908152602001604051809103902060000160009054906101000a900460ff16151514806127405750600160038111156126b757fe5b6008826040518082805190602001908083835b6020831015156126ef57805182526020820191506020810190506020830392506126ca565b6001836020036101000a038019825116818451168082178552505050505050905001915050908152602001604051809103902060040160009054906101000a900460ff16600381111561273e57fe5b145b806127dc57506002600381111561275357fe5b6008826040518082805190602001908083835b60208310151561278b5780518252602082019150602081019050602083039250612766565b6001836020036101000a038019825116818451168082178552505050505050905001915050908152602001604051809103902060040160009054906101000a900460ff1660038111156127da57fe5b145b15156127e757600080fd5b600260009054906101000a900460ff1615151561280357600080fd5b61280b614647565b60a0604051908101604052806001151581526020018681526020018581526020018481526020016000600381111561283f57fe5b8152509050806008846040518082805190602001908083835b60208310151561287d5780518252602082019150602081019050602083039250612858565b6001836020036101000a038019825116818451168082178552505050505050905001915050908152602001604051809103902060008201518160000160006101000a81548160ff0219169083151502179055506020820151816001015560408201518160020190805190602001906128f69291906145c7565b5060608201518160030190805190602001906129139291906145c7565b5060808201518160040160006101000a81548160ff0219169083600381111561293857fe5b02179055509050505050505050565b6000809054906101000a900473ffffffffffffffffffffffffffffffffffffffff1673ffffffffffffffffffffffffffffffffffffffff163373ffffffffffffffffffffffffffffffffffffffff161415156129a257600080fd5b80600115156008826040518082805190602001908083835b6020831015156129df57805182526020820191506020810190506020830392506129ba565b6001836020036101000a038019825116818451168082178552505050505050905001915050908152602001604051809103902060000160009054906101000a900460ff161515141515612a3157600080fd5b8160006008826040518082805190602001908083835b602083101515612a6c5780518252602082019150602081019050602083039250612a47565b6001836020036101000a038019825116818451168082178552505050505050905001915050908152602001604051809103902060040160009054906101000a900460ff16905060006003811115612abf57fe5b816003811115612acb57fe5b1480612aec5750600380811115612ade57fe5b816003811115612aea57fe5b145b1515612af757600080fd5b60006009836040518082805190602001908083835b602083101515612b315780518252602082019150602081019050602083039250612b0c565b6001836020036101000a0380198251168184511680821785525050505050509050019150509081526020016040518091039020600b0160009054906101000a900460ff16905060046007811115612b8457fe5b816007811115612b9057fe5b1480612bb2575060066007811115612ba457fe5b816007811115612bb057fe5b145b80612bd25750600780811115612bc457fe5b816007811115612bd057fe5b145b151515612bde57600080fd5b60026008866040518082805190602001908083835b602083101515612c185780518252602082019150602081019050602083039250612bf3565b6001836020036101000a038019825116818451168082178552505050505050905001915050908152602001604051809103902060040160006101000a81548160ff02191690836003811115612c6957fe5b021790555060006007811115612c7b57fe5b6009866040518082805190602001908083835b602083101515612cb35780518252602082019150602081019050602083039250612c8e565b6001836020036101000a0380198251168184511680821785525050505050509050019150509081526020016040518091039020600b0160009054906101000a900460ff166007811115612d0257fe5b141515612d9a5760046009866040518082805190602001908083835b602083101515612d435780518252602082019150602081019050602083039250612d1e565b6001836020036101000a0380198251168184511680821785525050505050509050019150509081526020016040518091039020600b0160006101000a81548160ff02191690836007811115612d9457fe5b02179055505b6000600260006101000a81548160ff0219169083151502179055505050505050565b6000809054906101000a900473ffffffffffffffffffffffffffffffffffffffff1673ffffffffffffffffffffffffffffffffffffffff163373ffffffffffffffffffffffffffffffffffffffff16141515612e1757600080fd5b80600115156008826040518082805190602001908083835b602083101515612e545780518252602082019150602081019050602083039250612e2f565b6001836020036101000a038019825116818451168082178552505050505050905001915050908152602001604051809103902060000160009054906101000a900460ff161515141515612ea657600080fd5b600082816003811115612eb557fe5b6008826040518082805190602001908083835b602083101515612eed5780518252602082019150602081019050602083039250612ec8565b6001836020036101000a038019825116818451168082178552505050505050905001915050908152602001604051809103902060040160009054906101000a900460ff166003811115612f3c57fe5b141515612f4857600080fd5b84612f54576001612f57565b60035b6008856040518082805190602001908083835b602083101515612f8f5780518252602082019150602081019050602083039250612f6a565b6001836020036101000a038019825116818451168082178552505050505050905001915050908152602001604051809103902060040160006101000a81548160ff02191690836003811115612fe057fe5b02179055505050505050565b60606000806000806000809054906101000a900473ffffffffffffffffffffffffffffffffffffffff1673ffffffffffffffffffffffffffffffffffffffff163373ffffffffffffffffffffffffffffffffffffffff1614151561304f57600080fd5b60036000016003600101546003600201546003800154600360040154848054600181600116156101000203166002900480601f0160208091040260200160405190810160405280929190818152602001828054600181600116156101000203166002900480156131005780601f106130d557610100808354040283529160200191613100565b820191906000526020600020905b8154815290600101906020018083116130e357829003601f168201915b50505050509450945094509450945094509091929394565b6000809054906101000a900473ffffffffffffffffffffffffffffffffffffffff1673ffffffffffffffffffffffffffffffffffffffff163373ffffffffffffffffffffffffffffffffffffffff1614151561317357600080fd5b80600115156008826040518082805190602001908083835b6020831015156131b0578051825260208201915060208101905060208303925061318b565b6001836020036101000a038019825116818451168082178552505050505050905001915050908152602001604051809103902060000160009054906101000a900460ff16151514151561320257600080fd5b60038281600381111561321157fe5b6008826040518082805190602001908083835b6020831015156132495780518252602082019150602081019050602083039250613224565b6001836020036101000a038019825116818451168082178552505050505050905001915050908152602001604051809103902060040160009054906101000a900460ff16600381111561329857fe5b1415156132a457600080fd5b6006848160078111156132b357fe5b6009826040518082805190602001908083835b6020831015156132eb57805182526020820191506020810190506020830392506132c6565b6001836020036101000a0380198251168184511680821785525050505050509050019150509081526020016040518091039020600b0160009054906101000a900460ff16600781111561333a57fe5b14151561334657600080fd5b60076009876040518082805190602001908083835b602083101515613380578051825260208201915060208101905060208303925061335b565b6001836020036101000a0380198251168184511680821785525050505050509050019150509081526020016040518091039020600b0160006101000a81548160ff021916908360078111156133d157fe5b0217905550505050505050565b6000809054906101000a900473ffffffffffffffffffffffffffffffffffffffff1673ffffffffffffffffffffffffffffffffffffffff163373ffffffffffffffffffffffffffffffffffffffff1614151561343957600080fd5b81600115156008826040518082805190602001908083835b6020831015156134765780518252602082019150602081019050602083039250613451565b6001836020036101000a038019825116818451168082178552505050505050905001915050908152602001604051809103902060000160009054906101000a900460ff1615151415156134c857600080fd5b6003838160038111156134d757fe5b6008826040518082805190602001908083835b60208310151561350f57805182526020820191506020810190506020830392506134ea565b6001836020036101000a038019825116818451168082178552505050505050905001915050908152602001604051809103902060040160009054906101000a900460ff16600381111561355e57fe5b14151561356a57600080fd5b60018581600781111561357957fe5b6009826040518082805190602001908083835b6020831015156135b1578051825260208201915060208101905060208303925061358c565b6001836020036101000a0380198251168184511680821785525050505050509050019150509081526020016040518091039020600b0160009054906101000a900460ff16600781111561360057fe5b14151561360c57600080fd5b8561361857600261361b565b60035b6009886040518082805190602001908083835b602083101515613653578051825260208201915060208101905060208303925061362e565b6001836020036101000a0380198251168184511680821785525050505050509050019150509081526020016040518091039020600b0160006101000a81548160ff021916908360078111156136a457fe5b021790555050505050505050565b60608060606000809054906101000a900473ffffffffffffffffffffffffffffffffffffffff1673ffffffffffffffffffffffffffffffffffffffff163373ffffffffffffffffffffffffffffffffffffffff1614151561371257600080fd5b60006009856040518082805190602001908083835b60208310151561374c5780518252602082019150602081019050602083039250613727565b6001836020036101000a03801982511681845116808217855250505050505090500191505090815260200160405180910390209050806000018160010182600201828054600181600116156101000203166002900480601f0160208091040260200160405190810160405280929190818152602001828054600181600116156101000203166002900480156138225780601f106137f757610100808354040283529160200191613822565b820191906000526020600020905b81548152906001019060200180831161380557829003601f168201915b50505050509250818054600181600116156101000203166002900480601f0160208091040260200160405190810160405280929190818152602001828054600181600116156101000203166002900480156138be5780601f10613893576101008083540402835291602001916138be565b820191906000526020600020905b8154815290600101906020018083116138a157829003601f168201915b50505050509150808054600181600116156101000203166002900480601f01602080910402602001604051908101604052809291908181526020018280546001816001161561010002031660029004801561395a5780601f1061392f5761010080835404028352916020019161395a565b820191906000526020600020905b81548152906001019060200180831161393d57829003601f168201915b50505050509050935093509350509193909250565b60008060608060008060009054906101000a900473ffffffffffffffffffffffffffffffffffffffff1673ffffffffffffffffffffffffffffffffffffffff163373ffffffffffffffffffffffffffffffffffffffff161415156139d257600080fd5b60006008876040518082805190602001908083835b602083101515613a0c57805182526020820191506020810190506020830392506139e7565b6001836020036101000a038019825116818451168082178552505050505050905001915050908152602001604051809103902090508060000160009054906101000a900460ff16816001015482600201836003018460040160009054906101000a900460ff16828054600181600116156101000203166002900480601f016020809104026020016040519081016040528092919081815260200182805460018160011615610100020316600290048015613b075780601f10613adc57610100808354040283529160200191613b07565b820191906000526020600020905b815481529060010190602001808311613aea57829003601f168201915b50505050509250818054600181600116156101000203166002900480601f016020809104026020016040519081016040528092919081815260200182805460018160011615610100020316600290048015613ba35780601f10613b7857610100808354040283529160200191613ba3565b820191906000526020600020905b815481529060010190602001808311613b8657829003601f168201915b50505050509150955095509550955095505091939590929450565b60008060009054906101000a900473ffffffffffffffffffffffffffffffffffffffff1673ffffffffffffffffffffffffffffffffffffffff163373ffffffffffffffffffffffffffffffffffffffff16141515613c1b57600080fd5b6000809054906101000a900473ffffffffffffffffffffffffffffffffffffffff16905090565b600260009054906101000a900460ff1681565b60608060606000809054906101000a900473ffffffffffffffffffffffffffffffffffffffff1673ffffffffffffffffffffffffffffffffffffffff163373ffffffffffffffffffffffffffffffffffffffff16141515613cb557600080fd5b60006009856040518082805190602001908083835b602083101515613cef5780518252602082019150602081019050602083039250613cca565b6001836020036101000a03801982511681845116808217855250505050505090500191505090815260200160405180910390209050806008018160090182600a01828054600181600116156101000203166002900480601f016020809104026020016040519081016040528092919081815260200182805460018160011615610100020316600290048015613dc55780601f10613d9a57610100808354040283529160200191613dc5565b820191906000526020600020905b815481529060010190602001808311613da857829003601f168201915b50505050509250818054600181600116156101000203166002900480601f016020809104026020016040519081016040528092919081815260200182805460018160011615610100020316600290048015613e615780601f10613e3657610100808354040283529160200191613e61565b820191906000526020600020905b815481529060010190602001808311613e4457829003601f168201915b50505050509150808054600181600116156101000203166002900480601f016020809104026020016040519081016040528092919081815260200182805460018160011615610100020316600290048015613efd5780601f10613ed257610100808354040283529160200191613efd565b820191906000526020600020905b815481529060010190602001808311613ee057829003601f168201915b50505050509050935093509350509193909250565b6000809054906101000a900473ffffffffffffffffffffffffffffffffffffffff1673ffffffffffffffffffffffffffffffffffffffff163373ffffffffffffffffffffffffffffffffffffffff16141515613f6d57600080fd5b81600115156008826040518082805190602001908083835b602083101515613faa5780518252602082019150602081019050602083039250613f85565b6001836020036101000a038019825116818451168082178552505050505050905001915050908152602001604051809103902060000160009054906101000a900460ff161515141515613ffc57600080fd5b60038381600381111561400b57fe5b6008826040518082805190602001908083835b602083101515614043578051825260208201915060208101905060208303925061401e565b6001836020036101000a038019825116818451168082178552505050505050905001915050908152602001604051809103902060040160009054906101000a900460ff16600381111561409257fe5b14151561409e57600080fd5b6007858160078111156140ad57fe5b6009826040518082805190602001908083835b6020831015156140e557805182526020820191506020810190506020830392506140c0565b6001836020036101000a0380198251168184511680821785525050505050509050019150509081526020016040518091039020600b0160009054906101000a900460ff16600781111561413457fe5b14151561414057600080fd5b85600a8190555050505050505050565b60008060009054906101000a900473ffffffffffffffffffffffffffffffffffffffff1673ffffffffffffffffffffffffffffffffffffffff163373ffffffffffffffffffffffffffffffffffffffff161415156141ad57600080fd5b60006009836040518082805190602001908083835b6020831015156141e757805182526020820191506020810190506020830392506141c2565b6001836020036101000a0380198251168184511680821785525050505050509050019150509081526020016040518091039020905080600b0160009054906101000a900460ff16915050919050565b6000809054906101000a900473ffffffffffffffffffffffffffffffffffffffff1673ffffffffffffffffffffffffffffffffffffffff163373ffffffffffffffffffffffffffffffffffffffff1614151561429157600080fd5b8060006009826040518082805190602001908083835b6020831015156142cc57805182526020820191506020810190506020830392506142a7565b6001836020036101000a0380198251168184511680821785525050505050509050019150509081526020016040518091039020600b0160009054906101000a900460ff1690506004600781111561431f57fe5b81600781111561432b57fe5b148061434d57506006600781111561433f57fe5b81600781111561434b57fe5b145b8061436d575060078081111561435f57fe5b81600781111561436b57fe5b145b8061438e57506002600781111561438057fe5b81600781111561438c57fe5b145b15151561439a57600080fd5b60046009846040518082805190602001908083835b6020831015156143d457805182526020820191506020810190506020830392506143af565b6001836020036101000a0380198251168184511680821785525050505050509050019150509081526020016040518091039020600b0160006101000a81548160ff0219169083600781111561442557fe5b02179055506000600260006101000a81548160ff021916908315150217905550505050565b60606000809054906101000a900473ffffffffffffffffffffffffffffffffffffffff1673ffffffffffffffffffffffffffffffffffffffff163373ffffffffffffffffffffffffffffffffffffffff161415156144a757600080fd5b60018054600181600116156101000203166002900480601f01602080910402602001604051908101604052809291908181526020018280546001816001161561010002031660029004801561453d5780601f106145125761010080835404028352916020019161453d565b820191906000526020600020905b81548152906001019060200180831161452057829003601f168201915b5050505050905090565b828054600181600116156101000203166002900490600052602060002090601f016020900481019282601f1061458857805160ff19168380011785556145b6565b828001600101855582156145b6579182015b828111156145b557825182559160200191906001019061459a565b5b5090506145c39190614684565b5090565b828054600181600116156101000203166002900490600052602060002090601f016020900481019282601f1061460857805160ff1916838001178555614636565b82800160010185558215614636579182015b8281111561463557825182559160200191906001019061461a565b5b5090506146439190614684565b5090565b60a0604051908101604052806000151581526020016000815260200160608152602001606081526020016000600381111561467e57fe5b81525090565b6146a691905b808211156146a257600081600090555060010161468a565b5090565b9056fea165627a7a7230582012c864eee3704a99fbd5aa43a07971f81c1f69bb0ca1002324f4fdba40e675c50029",
  "source": "pragma solidity ^0.5.0;\n\nimport \"./RentToContract.sol\";\n\n\ncontract EnlistmentToContract {\n\n    // MAIN VARIABLES THE CONTRACT WILL BE WORKING WITH\n\n    address owner;\n    string landlord;\n    bool public locked = false;\n    Enlistment enlistment;\n    // \n    mapping(string => Offer) tenantOfferMap;\n    mapping(string => AgreementDraft) tenantAgreementMap;\n    // \n    uint private rentAmount;\n    address private rentToContractAddress;\n    RentToContract private rentToContract;\n\n    constructor(string memory landlordEmail, string memory streetName, int floorNr, int apartmentNr, int houseNr, int postalCode) public\n    {   // CREATE A NEW ENLISTMENT STRUCT OBJECT FROM THE PASSED IN ARGUMENTS \n        enlistment = Enlistment(streetName, floorNr, apartmentNr, houseNr, postalCode);\n        landlord = landlordEmail;\n        owner = msg.sender;\n    }\n\n    // GETTER FUNCTIONS \n\n    function getOwner() public view ownerOnly() returns (address) {\n        return owner;\n    }\n\n    function getLandlord() public view ownerOnly() returns (string memory) {\n        return landlord;\n    }\n\n    function getEnlistment() public view ownerOnly() returns (string memory, int, int, int, int) {\n        return (enlistment.streetName, enlistment.floorNr, enlistment.apartmentNr, enlistment.houseNr, enlistment.postalCode);\n    }\n\n    // MAIN ENUMERATIONS THE CONTRACT WILL BE WORKING WITH\n\n    enum OfferStatus { // CURRENT STATE OF ANY OFFER SUBMITTED FOR A PROPERTY\n        PENDING,\n        REJECTED,\n        CANCELLED,\n        ACCEPTED\n    }\n\n    enum AgreementStatus { // CURRENT STATE OF ANY AGREEMENT REGARDING AN OFFER\n        UNINITIALIZED, // internal\n        PENDING,\n        REJECTED,\n        CONFIRMED,\n        CANCELLED,\n        LANDLORD_SIGNED,\n        TENANT_SIGNED,\n        COMPLETED\n    }\n\n    // MAIN STRUCTS (Enlistment, Offer, AgreementDraft) THE CONTRACT WILL BE WORKING WITH\n    // NOTE: These could've been made separate Smart Contracts instead (would probably work better that way)\n\n    struct Enlistment {\n        string streetName;\n        int floorNr;\n        int apartmentNr;\n        int houseNr;\n        int postalCode;\n    }\n\n    struct Offer {\n        bool initialized;\n        int amount;\n        string tenantName;\n        string tenantEmail;\n        OfferStatus status;\n    }\n\n    struct AgreementDraft {\n        string landlordName; // for simplicity, there is only one landlord\n        string tenantName; // for simplicity, there is only one tenant and occupants are omitted\n        string tenantEmail;\n        int amount;\n        uint leaseStart;\n        uint handoverDate;\n        uint leasePeriod;\n        string otherTerms;\n        string agreementHash;\n        string landlordSignedHash;\n        string tenantSignedHash;\n        AgreementStatus status;\n    }\n\n    // MAIN MODIFIERS THE CONTRACT WILL BE WORKING WITH\n\n    modifier noActiveOffer(string memory tenantEmail) { // CHECKS IF THE TENANT (tenantEmail) INDEED HAS NO ACTIVE OFFER\n        require(tenantOfferMap[tenantEmail].initialized == false || tenantOfferMap[tenantEmail].status == OfferStatus.REJECTED || tenantOfferMap[tenantEmail].status == OfferStatus.CANCELLED);\n        _;\n    }\n\n    modifier offerExists(string memory tenantEmail) { // CHECKS IF THE TENANT (tenantEmail) HAS INDEED MADE AN OFFER\n        require(tenantOfferMap[tenantEmail].initialized == true);\n        _;\n    }\n\n    modifier offerInStatus(OfferStatus status, string memory tenantEmail) { // CONFIRMS STATUS OF THE OFFER IN QUESTION\n        require(tenantOfferMap[tenantEmail].status == status);\n        _;\n    }\n\n    modifier offerCancellable(string memory tenantEmail) { // CONFIRMS IF AN OFFER ISN'T ALREADY A DONE DEAL\n        OfferStatus offerStatus = tenantOfferMap[tenantEmail].status;\n        require(offerStatus == OfferStatus.PENDING || offerStatus == OfferStatus.ACCEPTED);\n        AgreementStatus agreementStatus = tenantAgreementMap[tenantEmail].status;\n        require(!(agreementStatus == AgreementStatus.CANCELLED || agreementStatus == AgreementStatus.TENANT_SIGNED || agreementStatus == AgreementStatus.COMPLETED));\n        _;\n    }\n\n    modifier agreementCanBeSubmitted(string memory tenantEmail) { // CONFIRMS IF THERE'S NO ACTIVE AGREEMENT AWAITING SIGNATURE CONSUMATION\n        require(tenantAgreementMap[tenantEmail].status == AgreementStatus.UNINITIALIZED || tenantAgreementMap[tenantEmail].status == AgreementStatus.REJECTED || tenantAgreementMap[tenantEmail].status == AgreementStatus.CANCELLED);\n        _;\n    }\n\n    modifier agreementInStatus(AgreementStatus status, string memory tenantEmail) {\n        require(tenantAgreementMap[tenantEmail].status == status); // VALIDATES THE AGREEMENT'S STATUS\n        _;\n    }\n\n    modifier agreementCancellable(string memory tenantEmail) { // CONFIRMS IF AN AGREEMENT ISN'T ALREADY A DONE DEAL (OR HASN'T BEEN REJECTED)\n        AgreementStatus agreementStatus = tenantAgreementMap[tenantEmail].status;\n        require(!(agreementStatus == AgreementStatus.CANCELLED || agreementStatus == AgreementStatus.TENANT_SIGNED || agreementStatus == AgreementStatus.COMPLETED || agreementStatus == AgreementStatus.REJECTED));\n        _;\n    }\n\n    modifier notLocked() {\n        require(!locked);\n        _;\n    }\n\n    modifier ownerOnly() {\n        require(msg.sender == owner);\n        _;\n    }\n\n    // what if the offer is in status PENDING and the tenant wants to send a new one?\n    // in a case like that, find a way to handle multiple pending offers simultaneously\n\n    function sendOffer(int amount, string memory tenantName, string memory tenantEmail) public payable\n        ownerOnly()\n        noActiveOffer(tenantEmail) // coz this modifier ensures that there's no active offer ..\n        notLocked()\n    {\n        Offer memory offer = Offer({\n            initialized: true,\n            amount: amount,\n            tenantName: tenantName,\n            tenantEmail: tenantEmail,\n            status: OfferStatus.PENDING\n        });\n        tenantOfferMap[tenantEmail] = offer;\n    }\n\n    // cancel an offer that has been submitted (and is cancellable)\n\n    function cancelOffer(string memory tenantEmail) public payable\n        ownerOnly()\n        offerExists(tenantEmail)\n        offerCancellable(tenantEmail)\n    {\n        tenantOfferMap[tenantEmail].status = OfferStatus.CANCELLED;\n        if (tenantAgreementMap[tenantEmail].status != AgreementStatus.UNINITIALIZED) {\n            tenantAgreementMap[tenantEmail].status = AgreementStatus.CANCELLED;\n        }\n        locked = false;\n    }\n\n    // get an offer that has been submitted (and is hasn't been cancelled yet)\n    \n    function getOffer(string memory tenantEmail) public view ownerOnly() returns (bool, int, string memory, string memory, OfferStatus) {\n        Offer storage o = tenantOfferMap[tenantEmail];\n        return (o.initialized, o.amount, o.tenantName, o.tenantEmail, o.status);\n    }\n\n    // review (accept / reject) an offer that has been submitted (and is pending)\n    \n    function reviewOffer(bool result, string memory tenantEmail) public payable\n        ownerOnly()\n        offerExists(tenantEmail)\n        offerInStatus(OfferStatus.PENDING, tenantEmail)\n    {\n        tenantOfferMap[tenantEmail].status = result ? OfferStatus.ACCEPTED : OfferStatus.REJECTED;\n    }\n\n    // submit the draft of an agreement (only if: the offer still exists & has been accepted, and an agreement can be submitted)\n    // a new draft agreement can submitted only if there isn't already 1 in place that has been signed, or awaiting confirmation\n    \n    function submitDraft(string memory tenantEmail, string memory landlordName, string memory agreementTenantName, string memory agreementTenantEmail, uint leaseStart, uint handoverDate, uint leasePeriod, string memory otherTerms, string memory hashStr) public payable\n        ownerOnly()\n        offerExists(tenantEmail)\n        offerInStatus(OfferStatus.ACCEPTED, tenantEmail)\n        agreementCanBeSubmitted(tenantEmail)\n    {\n        int256 amount = tenantOfferMap[tenantEmail].amount;\n        tenantAgreementMap[tenantEmail] = AgreementDraft(landlordName, agreementTenantName, agreementTenantEmail, amount, leaseStart, handoverDate, leasePeriod, otherTerms, hashStr, \"\", \"\", AgreementStatus.PENDING);\n    }\n\n    // getAgreement functions:\n    // can only return tuple of max 7 elements, otherwise throws \"Stack too deep\" \n    // solution: splitted into multiple functions - getAgreement + (Participants/Details/Hashes/Status)\n\n    function getAgreementParticipants(string memory tenantEmail) public view ownerOnly() returns (string memory, string memory, string memory) {\n        AgreementDraft storage a = tenantAgreementMap[tenantEmail];\n        return (a.landlordName, a.tenantName, a.tenantEmail);\n    }\n\n    function getAgreementDetails(string memory tenantEmail) public view ownerOnly() returns (int, uint, uint, uint, string memory) {\n        AgreementDraft storage a = tenantAgreementMap[tenantEmail];\n        return (a.amount, a.leaseStart, a.handoverDate, a.leasePeriod, a.otherTerms);\n    }\n\n    function getAgreementHashes(string memory tenantEmail) public view ownerOnly() returns (string memory, string memory, string memory) {\n        AgreementDraft storage a = tenantAgreementMap[tenantEmail];\n        return (a.agreementHash, a.landlordSignedHash, a.tenantSignedHash);\n    }\n\n    function getAgreementStatus(string memory tenantEmail) public view ownerOnly() returns (AgreementStatus) {\n        AgreementDraft storage a = tenantAgreementMap[tenantEmail];\n        return (a.status);\n    }\n\n    // review an agreement draft (only if: the offer still exists & has been accepted, and an agreement exists & is pending)\n    \n    function reviewAgreement(string memory tenantEmail, bool result) public payable\n        ownerOnly()\n        offerExists(tenantEmail)\n        offerInStatus(OfferStatus.ACCEPTED, tenantEmail)\n        agreementInStatus(AgreementStatus.PENDING, tenantEmail)\n    {\n        tenantAgreementMap[tenantEmail].status = result ? AgreementStatus.CONFIRMED : AgreementStatus.REJECTED;\n    }\n\n    // signing of an agreement draft by the landlord (only if: the offer still exists & has been accepted, and an agreement exists & is confirmed)\n    \n    function landlordSignAgreement(string memory tenantEmail, string memory landlordSignedHash) public payable\n        ownerOnly()\n        notLocked()\n        offerExists(tenantEmail)\n        offerInStatus(OfferStatus.ACCEPTED, tenantEmail)\n        agreementInStatus(AgreementStatus.CONFIRMED, tenantEmail)\n    {\n        tenantAgreementMap[tenantEmail].landlordSignedHash = landlordSignedHash;\n        tenantAgreementMap[tenantEmail].status = AgreementStatus.LANDLORD_SIGNED;\n        locked = true;\n    }\n\n    // signing of an agreement draft by the tenant (only if: the offer still exists & has been accepted, and an agreement exists & the landlord has signed already)\n\n    function tenantSignAgreement(string memory tenantEmail, string memory tenantSignedHash) public payable\n        ownerOnly()\n        offerExists(tenantEmail)\n        offerInStatus(OfferStatus.ACCEPTED, tenantEmail)\n        agreementInStatus(AgreementStatus.LANDLORD_SIGNED, tenantEmail)\n    {\n        tenantAgreementMap[tenantEmail].tenantSignedHash = tenantSignedHash;\n        tenantAgreementMap[tenantEmail].status = AgreementStatus.TENANT_SIGNED;\n    }\n\n    // cancelling of an agreement draft by the tenant (only if the agreement is cancellable ie. it exists, but the landlord hasn't already signed it)\n\n    function cancelAgreement(string memory tenantEmail) public payable\n        ownerOnly()\n        agreementCancellable(tenantEmail)\n    {\n        tenantAgreementMap[tenantEmail].status = AgreementStatus.CANCELLED;\n        locked = false;\n    }\n\n    // receiving the 1st month rent from the tenant (only if the agreement has been signed by both parties ie. the landlord and the tenant)\n\n    function receiveFirstMonthRent(string memory tenantEmail) public payable\n        ownerOnly()\n        offerExists(tenantEmail)\n        offerInStatus(OfferStatus.ACCEPTED, tenantEmail)\n        agreementInStatus(AgreementStatus.TENANT_SIGNED, tenantEmail)\n    {\n        tenantAgreementMap[tenantEmail].status = AgreementStatus.COMPLETED;\n        \n        // EITHER TRY THIS TO INSTANTIATE THE RentToContract.sol SMART CONTRACT ..\n        // rentToContractAddress = new RentToContract(tenantEmail, tenantAgreementMap[tenantEmail].tenantName, \n        // tenantAgreementMap[tenantEmail].landlordName, 100, 1000000000000); \n        // rentToContract = RentToContract(rentToContractAddress);\n        // \n        // OR, JUST TRY THIS INSTEAD .. ..\n        // rentToContract = new RentToContract(tenantEmail, tenantAgreementMap[tenantEmail].tenantName, \n        // tenantAgreementMap[tenantEmail].landlordName, 100, 1000000000000); \n\n        // EVENTUALLY, THE RENT AMOUNT & THE CONTRACT'S DURATION MUST BOTH BE MADE DYNAMIC \n    }\n    \n    function receiveMonthlyRent(string memory tenantEmail, uint amount) public payable\n        ownerOnly()\n        offerExists(tenantEmail)\n        offerInStatus(OfferStatus.ACCEPTED, tenantEmail)\n        agreementInStatus(AgreementStatus.COMPLETED, tenantEmail)\n    {\n        rentAmount = amount; // WORK WITH RENT amount\n        // rentToContract.receiveMonthlyRent(tenantEmail, amount);\n    }\n\n}\n\n",
  "sourcePath": "C:/Users/kwadw/OneDrive/Desktop/WORK/personal-projects/blockchain/blockchain-dapp/land-real-estate-project/real-estate-blockchain/ethereum/contracts/EnlistmentToContract.sol",
  "compiler": {
    "name": "solc",
    "version": "0.5.0+commit.1d4f565a.Emscripten.clang"
  },
  "schemaVersion": "3.0.6",
  "updatedAt": "2019-06-21T08:17:41.701Z",
  "devdoc": {
    "methods": {}
  },
  "userdoc": {
    "methods": {}
  }
}