{
  "contractName": "EnlistmentToContract",
  "abi": [
    {
      "constant": true,
      "inputs": [],
      "name": "locked",
      "outputs": [
        {
          "name": "",
          "type": "bool"
        }
      ],
      "payable": false,
      "stateMutability": "view",
      "type": "function",
      "signature": "0xcf309012"
    },
    {
      "inputs": [
        {
          "name": "landlordEmail",
          "type": "string"
        },
        {
          "name": "streetName",
          "type": "string"
        },
        {
          "name": "floorNr",
          "type": "int256"
        },
        {
          "name": "apartmentNr",
          "type": "int256"
        },
        {
          "name": "houseNr",
          "type": "int256"
        },
        {
          "name": "postalCode",
          "type": "int256"
        }
      ],
      "payable": false,
      "stateMutability": "nonpayable",
      "type": "constructor",
      "signature": "constructor"
    },
    {
      "constant": true,
      "inputs": [],
      "name": "getOwner",
      "outputs": [
        {
          "name": "",
          "type": "address"
        }
      ],
      "payable": false,
      "stateMutability": "view",
      "type": "function",
      "signature": "0x893d20e8"
    },
    {
      "constant": true,
      "inputs": [],
      "name": "getLandlord",
      "outputs": [
        {
          "name": "",
          "type": "string"
        }
      ],
      "payable": false,
      "stateMutability": "view",
      "type": "function",
      "signature": "0xf502236d"
    },
    {
      "constant": true,
      "inputs": [],
      "name": "getEnlistment",
      "outputs": [
        {
          "name": "",
          "type": "string"
        },
        {
          "name": "",
          "type": "int256"
        },
        {
          "name": "",
          "type": "int256"
        },
        {
          "name": "",
          "type": "int256"
        },
        {
          "name": "",
          "type": "int256"
        }
      ],
      "payable": false,
      "stateMutability": "view",
      "type": "function",
      "signature": "0x31ae8ed0"
    },
    {
      "constant": false,
      "inputs": [
        {
          "name": "amount",
          "type": "int256"
        },
        {
          "name": "tenantName",
          "type": "string"
        },
        {
          "name": "tenantEmail",
          "type": "string"
        }
      ],
      "name": "sendOffer",
      "outputs": [],
      "payable": true,
      "stateMutability": "payable",
      "type": "function",
      "signature": "0x2c863d84"
    },
    {
      "constant": false,
      "inputs": [
        {
          "name": "tenantEmail",
          "type": "string"
        }
      ],
      "name": "cancelOffer",
      "outputs": [],
      "payable": true,
      "stateMutability": "payable",
      "type": "function",
      "signature": "0x2d63ce27"
    },
    {
      "constant": true,
      "inputs": [
        {
          "name": "tenantEmail",
          "type": "string"
        }
      ],
      "name": "getOffer",
      "outputs": [
        {
          "name": "",
          "type": "bool"
        },
        {
          "name": "",
          "type": "int256"
        },
        {
          "name": "",
          "type": "string"
        },
        {
          "name": "",
          "type": "string"
        },
        {
          "name": "",
          "type": "uint8"
        }
      ],
      "payable": false,
      "stateMutability": "view",
      "type": "function",
      "signature": "0x7a510116"
    },
    {
      "constant": false,
      "inputs": [
        {
          "name": "result",
          "type": "bool"
        },
        {
          "name": "tenantEmail",
          "type": "string"
        }
      ],
      "name": "reviewOffer",
      "outputs": [],
      "payable": true,
      "stateMutability": "payable",
      "type": "function",
      "signature": "0x2fcc176d"
    },
    {
      "constant": false,
      "inputs": [
        {
          "name": "tenantEmail",
          "type": "string"
        },
        {
          "name": "landlordName",
          "type": "string"
        },
        {
          "name": "agreementTenantName",
          "type": "string"
        },
        {
          "name": "agreementTenantEmail",
          "type": "string"
        },
        {
          "name": "leaseStart",
          "type": "uint256"
        },
        {
          "name": "handoverDate",
          "type": "uint256"
        },
        {
          "name": "leasePeriod",
          "type": "uint256"
        },
        {
          "name": "otherTerms",
          "type": "string"
        },
        {
          "name": "hash",
          "type": "string"
        }
      ],
      "name": "submitDraft",
      "outputs": [],
      "payable": true,
      "stateMutability": "payable",
      "type": "function",
      "signature": "0x222a7af9"
    },
    {
      "constant": true,
      "inputs": [
        {
          "name": "tenantEmail",
          "type": "string"
        }
      ],
      "name": "getAgreementParticipants",
      "outputs": [
        {
          "name": "",
          "type": "string"
        },
        {
          "name": "",
          "type": "string"
        },
        {
          "name": "",
          "type": "string"
        }
      ],
      "payable": false,
      "stateMutability": "view",
      "type": "function",
      "signature": "0x71ca1587"
    },
    {
      "constant": true,
      "inputs": [
        {
          "name": "tenantEmail",
          "type": "string"
        }
      ],
      "name": "getAgreementDetails",
      "outputs": [
        {
          "name": "",
          "type": "int256"
        },
        {
          "name": "",
          "type": "uint256"
        },
        {
          "name": "",
          "type": "uint256"
        },
        {
          "name": "",
          "type": "uint256"
        },
        {
          "name": "",
          "type": "string"
        }
      ],
      "payable": false,
      "stateMutability": "view",
      "type": "function",
      "signature": "0x265adc33"
    },
    {
      "constant": true,
      "inputs": [
        {
          "name": "tenantEmail",
          "type": "string"
        }
      ],
      "name": "getAgreementHashes",
      "outputs": [
        {
          "name": "",
          "type": "string"
        },
        {
          "name": "",
          "type": "string"
        },
        {
          "name": "",
          "type": "string"
        }
      ],
      "payable": false,
      "stateMutability": "view",
      "type": "function",
      "signature": "0xd441a152"
    },
    {
      "constant": true,
      "inputs": [
        {
          "name": "tenantEmail",
          "type": "string"
        }
      ],
      "name": "getAgreementStatus",
      "outputs": [
        {
          "name": "",
          "type": "uint8"
        }
      ],
      "payable": false,
      "stateMutability": "view",
      "type": "function",
      "signature": "0xec2b2a12"
    },
    {
      "constant": false,
      "inputs": [
        {
          "name": "tenantEmail",
          "type": "string"
        },
        {
          "name": "result",
          "type": "bool"
        }
      ],
      "name": "reviewAgreement",
      "outputs": [],
      "payable": true,
      "stateMutability": "payable",
      "type": "function",
      "signature": "0x673a95ef"
    },
    {
      "constant": false,
      "inputs": [
        {
          "name": "tenantEmail",
          "type": "string"
        },
        {
          "name": "landlordSignedHash",
          "type": "string"
        }
      ],
      "name": "landlordSignAgreement",
      "outputs": [],
      "payable": true,
      "stateMutability": "payable",
      "type": "function",
      "signature": "0x03746e06"
    },
    {
      "constant": false,
      "inputs": [
        {
          "name": "tenantEmail",
          "type": "string"
        },
        {
          "name": "tenantSignedHash",
          "type": "string"
        }
      ],
      "name": "tenantSignAgreement",
      "outputs": [],
      "payable": true,
      "stateMutability": "payable",
      "type": "function",
      "signature": "0x00ff22c6"
    },
    {
      "constant": false,
      "inputs": [
        {
          "name": "tenantEmail",
          "type": "string"
        }
      ],
      "name": "cancelAgreement",
      "outputs": [],
      "payable": true,
      "stateMutability": "payable",
      "type": "function",
      "signature": "0xf278f784"
    },
    {
      "constant": false,
      "inputs": [
        {
          "name": "tenantEmail",
          "type": "string"
        }
      ],
      "name": "receiveFirstMonthRent",
      "outputs": [],
      "payable": true,
      "stateMutability": "payable",
      "type": "function",
      "signature": "0x4d45780e"
    }
  ],
  "bytecode": "0x60806040526000600260006101000a81548160ff0219169083151502179055503480156200002c57600080fd5b506040516200470b3803806200470b833981018060405260c08110156200005257600080fd5b8101908080516401000000008111156200006b57600080fd5b828101905060208101848111156200008257600080fd5b8151856001820283011164010000000082111715620000a057600080fd5b50509291906020018051640100000000811115620000bd57600080fd5b82810190506020810184811115620000d457600080fd5b8151856001820283011164010000000082111715620000f257600080fd5b50509291906020018051906020019092919080519060200190929190805190602001909291908051906020019092919050505060a06040519081016040528086815260200185815260200184815260200183815260200182815250600360008201518160000190805190602001906200016d929190620001fe565b50602082015181600101556040820151816002015560608201518160030155608082015181600401559050508560019080519060200190620001b192919062000285565b50336000806101000a81548173ffffffffffffffffffffffffffffffffffffffff021916908373ffffffffffffffffffffffffffffffffffffffff16021790555050505050505062000334565b828054600181600116156101000203166002900490600052602060002090601f016020900481019282601f106200024157805160ff191683800117855562000272565b8280016001018555821562000272579182015b828111156200027157825182559160200191906001019062000254565b5b5090506200028191906200030c565b5090565b828054600181600116156101000203166002900490600052602060002090601f016020900481019282601f10620002c857805160ff1916838001178555620002f9565b82800160010185558215620002f9579182015b82811115620002f8578251825591602001919060010190620002db565b5b5090506200030891906200030c565b5090565b6200033191905b808211156200032d57600081600090555060010162000313565b5090565b90565b6143c780620003446000396000f3fe6080604052600436106100fb576000357c0100000000000000000000000000000000000000000000000000000000900463ffffffff168062ff22c61461010057806303746e0614610252578063222a7af9146103a4578063265adc33146107715780632c863d84146108ce5780632d63ce2714610a2a5780632fcc176d14610ae557806331ae8ed014610bac5780634d45780e14610c58578063673a95ef14610d1357806371ca158714610dda5780637a51011614610ff3578063893d20e8146111c7578063cf3090121461121e578063d441a1521461124d578063ec2b2a1214611466578063f278f78414611550578063f502236d1461160b575b600080fd5b6102506004803603604081101561011657600080fd5b810190808035906020019064010000000081111561013357600080fd5b82018360208201111561014557600080fd5b8035906020019184600183028401116401000000008311171561016757600080fd5b91908080601f016020809104026020016040519081016040528093929190818152602001838380828437600081840152601f19601f820116905080830192505050505050509192919290803590602001906401000000008111156101ca57600080fd5b8201836020820111156101dc57600080fd5b803590602001918460018302840111640100000000831117156101fe57600080fd5b91908080601f016020809104026020016040519081016040528093929190818152602001838380828437600081840152601f19601f82011690508083019250505050505050919291929050505061169b565b005b6103a26004803603604081101561026857600080fd5b810190808035906020019064010000000081111561028557600080fd5b82018360208201111561029757600080fd5b803590602001918460018302840111640100000000831117156102b957600080fd5b91908080601f016020809104026020016040519081016040528093929190818152602001838380828437600081840152601f19601f8201169050808301925050505050505091929192908035906020019064010000000081111561031c57600080fd5b82018360208201111561032e57600080fd5b8035906020019184600183028401116401000000008311171561035057600080fd5b91908080601f016020809104026020016040519081016040528093929190818152602001838380828437600081840152601f19601f8201169050808301925050505050505091929192905050506119e5565b005b61076f60048036036101208110156103bb57600080fd5b81019080803590602001906401000000008111156103d857600080fd5b8201836020820111156103ea57600080fd5b8035906020019184600183028401116401000000008311171561040c57600080fd5b91908080601f016020809104026020016040519081016040528093929190818152602001838380828437600081840152601f19601f8201169050808301925050505050505091929192908035906020019064010000000081111561046f57600080fd5b82018360208201111561048157600080fd5b803590602001918460018302840111640100000000831117156104a357600080fd5b91908080601f016020809104026020016040519081016040528093929190818152602001838380828437600081840152601f19601f8201169050808301925050505050505091929192908035906020019064010000000081111561050657600080fd5b82018360208201111561051857600080fd5b8035906020019184600183028401116401000000008311171561053a57600080fd5b91908080601f016020809104026020016040519081016040528093929190818152602001838380828437600081840152601f19601f8201169050808301925050505050505091929192908035906020019064010000000081111561059d57600080fd5b8201836020820111156105af57600080fd5b803590602001918460018302840111640100000000831117156105d157600080fd5b91908080601f016020809104026020016040519081016040528093929190818152602001838380828437600081840152601f19601f8201169050808301925050505050505091929192908035906020019092919080359060200190929190803590602001909291908035906020019064010000000081111561065257600080fd5b82018360208201111561066457600080fd5b8035906020019184600183028401116401000000008311171561068657600080fd5b91908080601f016020809104026020016040519081016040528093929190818152602001838380828437600081840152601f19601f820116905080830192505050505050509192919290803590602001906401000000008111156106e957600080fd5b8201836020820111156106fb57600080fd5b8035906020019184600183028401116401000000008311171561071d57600080fd5b91908080601f016020809104026020016040519081016040528093929190818152602001838380828437600081840152601f19601f820116905080830192505050505050509192919290505050611d66565b005b34801561077d57600080fd5b506108376004803603602081101561079457600080fd5b81019080803590602001906401000000008111156107b157600080fd5b8201836020820111156107c357600080fd5b803590602001918460018302840111640100000000831117156107e557600080fd5b91908080601f016020809104026020016040519081016040528093929190818152602001838380828437600081840152601f19601f82011690508083019250505050505050919291929050505061235b565b6040518086815260200185815260200184815260200183815260200180602001828103825283818151815260200191508051906020019080838360005b8381101561088f578082015181840152602081019050610874565b50505050905090810190601f1680156108bc5780820380516001836020036101000a031916815260200191505b50965050505050505060405180910390f35b610a28600480360360608110156108e457600080fd5b81019080803590602001909291908035906020019064010000000081111561090b57600080fd5b82018360208201111561091d57600080fd5b8035906020019184600183028401116401000000008311171561093f57600080fd5b91908080601f016020809104026020016040519081016040528093929190818152602001838380828437600081840152601f19601f820116905080830192505050505050509192919290803590602001906401000000008111156109a257600080fd5b8201836020820111156109b457600080fd5b803590602001918460018302840111640100000000831117156109d657600080fd5b91908080601f016020809104026020016040519081016040528093929190818152602001838380828437600081840152601f19601f8201169050808301925050505050505091929192905050506124f5565b005b610ae360048036036020811015610a4057600080fd5b8101908080359060200190640100000000811115610a5d57600080fd5b820183602082011115610a6f57600080fd5b80359060200191846001830284011164010000000083111715610a9157600080fd5b91908080601f016020809104026020016040519081016040528093929190818152602001838380828437600081840152601f19601f820116905080830192505050505050509192919290505050612877565b005b610baa60048036036040811015610afb57600080fd5b8101908080351515906020019092919080359060200190640100000000811115610b2457600080fd5b820183602082011115610b3657600080fd5b80359060200191846001830284011164010000000083111715610b5857600080fd5b91908080601f016020809104026020016040519081016040528093929190818152602001838380828437600081840152601f19601f820116905080830192505050505050509192919290505050612cec565b005b348015610bb857600080fd5b50610bc1612f1c565b6040518080602001868152602001858152602001848152602001838152602001828103825287818151815260200191508051906020019080838360005b83811015610c19578082015181840152602081019050610bfe565b50505050905090810190601f168015610c465780820380516001836020036101000a031916815260200191505b50965050505050505060405180910390f35b610d1160048036036020811015610c6e57600080fd5b8101908080359060200190640100000000811115610c8b57600080fd5b820183602082011115610c9d57600080fd5b80359060200191846001830284011164010000000083111715610cbf57600080fd5b91908080601f016020809104026020016040519081016040528093929190818152602001838380828437600081840152601f19601f820116905080830192505050505050509192919290505050613048565b005b610dd860048036036040811015610d2957600080fd5b8101908080359060200190640100000000811115610d4657600080fd5b820183602082011115610d5857600080fd5b80359060200191846001830284011164010000000083111715610d7a57600080fd5b91908080601f016020809104026020016040519081016040528093929190818152602001838380828437600081840152601f19601f82011690508083019250505050505050919291929080351515906020019092919050505061330e565b005b348015610de657600080fd5b50610ea060048036036020811015610dfd57600080fd5b8101908080359060200190640100000000811115610e1a57600080fd5b820183602082011115610e2c57600080fd5b80359060200191846001830284011164010000000083111715610e4e57600080fd5b91908080601f016020809104026020016040519081016040528093929190818152602001838380828437600081840152601f19601f8201169050808301925050505050505091929192905050506135e2565b60405180806020018060200180602001848103845287818151815260200191508051906020019080838360005b83811015610ee8578082015181840152602081019050610ecd565b50505050905090810190601f168015610f155780820380516001836020036101000a031916815260200191505b50848103835286818151815260200191508051906020019080838360005b83811015610f4e578082015181840152602081019050610f33565b50505050905090810190601f168015610f7b5780820380516001836020036101000a031916815260200191505b50848103825285818151815260200191508051906020019080838360005b83811015610fb4578082015181840152602081019050610f99565b50505050905090810190601f168015610fe15780820380516001836020036101000a031916815260200191505b50965050505050505060405180910390f35b348015610fff57600080fd5b506110b96004803603602081101561101657600080fd5b810190808035906020019064010000000081111561103357600080fd5b82018360208201111561104557600080fd5b8035906020019184600183028401116401000000008311171561106757600080fd5b91908080601f016020809104026020016040519081016040528093929190818152602001838380828437600081840152601f19601f82011690508083019250505050505050919291929050505061389f565b604051808615151515815260200185815260200180602001806020018460038111156110e157fe5b60ff168152602001838103835286818151815260200191508051906020019080838360005b83811015611121578082015181840152602081019050611106565b50505050905090810190601f16801561114e5780820380516001836020036101000a031916815260200191505b50838103825285818151815260200191508051906020019080838360005b8381101561118757808201518184015260208101905061116c565b50505050905090810190601f1680156111b45780820380516001836020036101000a031916815260200191505b5097505050505050505060405180910390f35b3480156111d357600080fd5b506111dc613aee565b604051808273ffffffffffffffffffffffffffffffffffffffff1673ffffffffffffffffffffffffffffffffffffffff16815260200191505060405180910390f35b34801561122a57600080fd5b50611233613b72565b604051808215151515815260200191505060405180910390f35b34801561125957600080fd5b506113136004803603602081101561127057600080fd5b810190808035906020019064010000000081111561128d57600080fd5b82018360208201111561129f57600080fd5b803590602001918460018302840111640100000000831117156112c157600080fd5b91908080601f016020809104026020016040519081016040528093929190818152602001838380828437600081840152601f19601f820116905080830192505050505050509192919290505050613b85565b60405180806020018060200180602001848103845287818151815260200191508051906020019080838360005b8381101561135b578082015181840152602081019050611340565b50505050905090810190601f1680156113885780820380516001836020036101000a031916815260200191505b50848103835286818151815260200191508051906020019080838360005b838110156113c15780820151818401526020810190506113a6565b50505050905090810190601f1680156113ee5780820380516001836020036101000a031916815260200191505b50848103825285818151815260200191508051906020019080838360005b8381101561142757808201518184015260208101905061140c565b50505050905090810190601f1680156114545780820380516001836020036101000a031916815260200191505b50965050505050505060405180910390f35b34801561147257600080fd5b5061152c6004803603602081101561148957600080fd5b81019080803590602001906401000000008111156114a657600080fd5b8201836020820111156114b857600080fd5b803590602001918460018302840111640100000000831117156114da57600080fd5b91908080601f016020809104026020016040519081016040528093929190818152602001838380828437600081840152601f19601f820116905080830192505050505050509192919290505050613e42565b6040518082600781111561153c57fe5b60ff16815260200191505060405180910390f35b6116096004803603602081101561156657600080fd5b810190808035906020019064010000000081111561158357600080fd5b82018360208201111561159557600080fd5b803590602001918460018302840111640100000000831117156115b757600080fd5b91908080601f016020809104026020016040519081016040528093929190818152602001838380828437600081840152601f19601f820116905080830192505050505050509192919290505050613f28565b005b34801561161757600080fd5b5061162061413c565b6040518080602001828103825283818151815260200191508051906020019080838360005b83811015611660578082015181840152602081019050611645565b50505050905090810190601f16801561168d5780820380516001836020036101000a031916815260200191505b509250505060405180910390f35b6000809054906101000a900473ffffffffffffffffffffffffffffffffffffffff1673ffffffffffffffffffffffffffffffffffffffff163373ffffffffffffffffffffffffffffffffffffffff161415156116f657600080fd5b81600115156008826040518082805190602001908083835b602083101515611733578051825260208201915060208101905060208303925061170e565b6001836020036101000a038019825116818451168082178552505050505050905001915050908152602001604051809103902060000160009054906101000a900460ff16151514151561178557600080fd5b60038381600381111561179457fe5b6008826040518082805190602001908083835b6020831015156117cc57805182526020820191506020810190506020830392506117a7565b6001836020036101000a038019825116818451168082178552505050505050905001915050908152602001604051809103902060040160009054906101000a900460ff16600381111561181b57fe5b14151561182757600080fd5b60058581600781111561183657fe5b6009826040518082805190602001908083835b60208310151561186e5780518252602082019150602081019050602083039250611849565b6001836020036101000a0380198251168184511680821785525050505050509050019150509081526020016040518091039020600b0160009054906101000a900460ff1660078111156118bd57fe5b1415156118c957600080fd5b856009886040518082805190602001908083835b60208310151561190257805182526020820191506020810190506020830392506118dd565b6001836020036101000a0380198251168184511680821785525050505050509050019150509081526020016040518091039020600a01908051906020019061194b929190614239565b5060066009886040518082805190602001908083835b6020831015156119865780518252602082019150602081019050602083039250611961565b6001836020036101000a0380198251168184511680821785525050505050509050019150509081526020016040518091039020600b0160006101000a81548160ff021916908360078111156119d757fe5b021790555050505050505050565b6000809054906101000a900473ffffffffffffffffffffffffffffffffffffffff1673ffffffffffffffffffffffffffffffffffffffff163373ffffffffffffffffffffffffffffffffffffffff16141515611a4057600080fd5b600260009054906101000a900460ff16151515611a5c57600080fd5b81600115156008826040518082805190602001908083835b602083101515611a995780518252602082019150602081019050602083039250611a74565b6001836020036101000a038019825116818451168082178552505050505050905001915050908152602001604051809103902060000160009054906101000a900460ff161515141515611aeb57600080fd5b600383816003811115611afa57fe5b6008826040518082805190602001908083835b602083101515611b325780518252602082019150602081019050602083039250611b0d565b6001836020036101000a038019825116818451168082178552505050505050905001915050908152602001604051809103902060040160009054906101000a900460ff166003811115611b8157fe5b141515611b8d57600080fd5b600385816007811115611b9c57fe5b6009826040518082805190602001908083835b602083101515611bd45780518252602082019150602081019050602083039250611baf565b6001836020036101000a0380198251168184511680821785525050505050509050019150509081526020016040518091039020600b0160009054906101000a900460ff166007811115611c2357fe5b141515611c2f57600080fd5b856009886040518082805190602001908083835b602083101515611c685780518252602082019150602081019050602083039250611c43565b6001836020036101000a03801982511681845116808217855250505050505090500191505090815260200160405180910390206009019080519060200190611cb1929190614239565b5060056009886040518082805190602001908083835b602083101515611cec5780518252602082019150602081019050602083039250611cc7565b6001836020036101000a0380198251168184511680821785525050505050509050019150509081526020016040518091039020600b0160006101000a81548160ff02191690836007811115611d3d57fe5b02179055506001600260006101000a81548160ff02191690831515021790555050505050505050565b6000809054906101000a900473ffffffffffffffffffffffffffffffffffffffff1673ffffffffffffffffffffffffffffffffffffffff163373ffffffffffffffffffffffffffffffffffffffff16141515611dc157600080fd5b88600115156008826040518082805190602001908083835b602083101515611dfe5780518252602082019150602081019050602083039250611dd9565b6001836020036101000a038019825116818451168082178552505050505050905001915050908152602001604051809103902060000160009054906101000a900460ff161515141515611e5057600080fd5b60038a816003811115611e5f57fe5b6008826040518082805190602001908083835b602083101515611e975780518252602082019150602081019050602083039250611e72565b6001836020036101000a038019825116818451168082178552505050505050905001915050908152602001604051809103902060040160009054906101000a900460ff166003811115611ee657fe5b141515611ef257600080fd5b8b60006007811115611f0057fe5b6009826040518082805190602001908083835b602083101515611f385780518252602082019150602081019050602083039250611f13565b6001836020036101000a0380198251168184511680821785525050505050509050019150509081526020016040518091039020600b0160009054906101000a900460ff166007811115611f8757fe5b1480612024575060026007811115611f9b57fe5b6009826040518082805190602001908083835b602083101515611fd35780518252602082019150602081019050602083039250611fae565b6001836020036101000a0380198251168184511680821785525050505050509050019150509081526020016040518091039020600b0160009054906101000a900460ff16600781111561202257fe5b145b806120c057506004600781111561203757fe5b6009826040518082805190602001908083835b60208310151561206f578051825260208201915060208101905060208303925061204a565b6001836020036101000a0380198251168184511680821785525050505050509050019150509081526020016040518091039020600b0160009054906101000a900460ff1660078111156120be57fe5b145b15156120cb57600080fd5b600060088e6040518082805190602001908083835b60208310151561210557805182526020820191506020810190506020830392506120e0565b6001836020036101000a0380198251168184511680821785525050505050509050019150509081526020016040518091039020600101549050610180604051908101604052808e81526020018d81526020018c81526020018281526020018b81526020018a81526020018981526020018881526020018781526020016020604051908101604052806000815250815260200160206040519081016040528060008152508152602001600160078111156121ba57fe5b81525060098f6040518082805190602001908083835b6020831015156121f557805182526020820191506020810190506020830392506121d0565b6001836020036101000a038019825116818451168082178552505050505050905001915050908152602001604051809103902060008201518160000190805190602001906122449291906142b9565b5060208201518160010190805190602001906122619291906142b9565b50604082015181600201908051906020019061227e9291906142b9565b50606082015181600301556080820151816004015560a0820151816005015560c0820151816006015560e08201518160070190805190602001906122c39291906142b9565b506101008201518160080190805190602001906122e19291906142b9565b506101208201518160090190805190602001906122ff9291906142b9565b5061014082015181600a01908051906020019061231d9291906142b9565b5061016082015181600b0160006101000a81548160ff0219169083600781111561234357fe5b02179055509050505050505050505050505050505050565b60008060008060606000809054906101000a900473ffffffffffffffffffffffffffffffffffffffff1673ffffffffffffffffffffffffffffffffffffffff163373ffffffffffffffffffffffffffffffffffffffff161415156123be57600080fd5b60006009876040518082805190602001908083835b6020831015156123f857805182526020820191506020810190506020830392506123d3565b6001836020036101000a03801982511681845116808217855250505050505090500191505090815260200160405180910390209050806003015481600401548260050154836006015484600701808054600181600116156101000203166002900480601f0160208091040260200160405190810160405280929190818152602001828054600181600116156101000203166002900480156124da5780601f106124af576101008083540402835291602001916124da565b820191906000526020600020905b8154815290600101906020018083116124bd57829003601f168201915b50505050509050955095509550955095505091939590929450565b6000809054906101000a900473ffffffffffffffffffffffffffffffffffffffff1673ffffffffffffffffffffffffffffffffffffffff163373ffffffffffffffffffffffffffffffffffffffff1614151561255057600080fd5b80600015156008826040518082805190602001908083835b60208310151561258d5780518252602082019150602081019050602083039250612568565b6001836020036101000a038019825116818451168082178552505050505050905001915050908152602001604051809103902060000160009054906101000a900460ff16151514806126705750600160038111156125e757fe5b6008826040518082805190602001908083835b60208310151561261f57805182526020820191506020810190506020830392506125fa565b6001836020036101000a038019825116818451168082178552505050505050905001915050908152602001604051809103902060040160009054906101000a900460ff16600381111561266e57fe5b145b8061270c57506002600381111561268357fe5b6008826040518082805190602001908083835b6020831015156126bb5780518252602082019150602081019050602083039250612696565b6001836020036101000a038019825116818451168082178552505050505050905001915050908152602001604051809103902060040160009054906101000a900460ff16600381111561270a57fe5b145b151561271757600080fd5b600260009054906101000a900460ff1615151561273357600080fd5b61273b614339565b60a0604051908101604052806001151581526020018681526020018581526020018481526020016000600381111561276f57fe5b8152509050806008846040518082805190602001908083835b6020831015156127ad5780518252602082019150602081019050602083039250612788565b6001836020036101000a038019825116818451168082178552505050505050905001915050908152602001604051809103902060008201518160000160006101000a81548160ff0219169083151502179055506020820151816001015560408201518160020190805190602001906128269291906142b9565b5060608201518160030190805190602001906128439291906142b9565b5060808201518160040160006101000a81548160ff0219169083600381111561286857fe5b02179055509050505050505050565b6000809054906101000a900473ffffffffffffffffffffffffffffffffffffffff1673ffffffffffffffffffffffffffffffffffffffff163373ffffffffffffffffffffffffffffffffffffffff161415156128d257600080fd5b80600115156008826040518082805190602001908083835b60208310151561290f57805182526020820191506020810190506020830392506128ea565b6001836020036101000a038019825116818451168082178552505050505050905001915050908152602001604051809103902060000160009054906101000a900460ff16151514151561296157600080fd5b8160006008826040518082805190602001908083835b60208310151561299c5780518252602082019150602081019050602083039250612977565b6001836020036101000a038019825116818451168082178552505050505050905001915050908152602001604051809103902060040160009054906101000a900460ff169050600060038111156129ef57fe5b8160038111156129fb57fe5b1480612a1c5750600380811115612a0e57fe5b816003811115612a1a57fe5b145b1515612a2757600080fd5b60006009836040518082805190602001908083835b602083101515612a615780518252602082019150602081019050602083039250612a3c565b6001836020036101000a0380198251168184511680821785525050505050509050019150509081526020016040518091039020600b0160009054906101000a900460ff16905060046007811115612ab457fe5b816007811115612ac057fe5b1480612ae2575060066007811115612ad457fe5b816007811115612ae057fe5b145b80612b025750600780811115612af457fe5b816007811115612b0057fe5b145b151515612b0e57600080fd5b60026008866040518082805190602001908083835b602083101515612b485780518252602082019150602081019050602083039250612b23565b6001836020036101000a038019825116818451168082178552505050505050905001915050908152602001604051809103902060040160006101000a81548160ff02191690836003811115612b9957fe5b021790555060006007811115612bab57fe5b6009866040518082805190602001908083835b602083101515612be35780518252602082019150602081019050602083039250612bbe565b6001836020036101000a0380198251168184511680821785525050505050509050019150509081526020016040518091039020600b0160009054906101000a900460ff166007811115612c3257fe5b141515612cca5760046009866040518082805190602001908083835b602083101515612c735780518252602082019150602081019050602083039250612c4e565b6001836020036101000a0380198251168184511680821785525050505050509050019150509081526020016040518091039020600b0160006101000a81548160ff02191690836007811115612cc457fe5b02179055505b6000600260006101000a81548160ff0219169083151502179055505050505050565b6000809054906101000a900473ffffffffffffffffffffffffffffffffffffffff1673ffffffffffffffffffffffffffffffffffffffff163373ffffffffffffffffffffffffffffffffffffffff16141515612d4757600080fd5b80600115156008826040518082805190602001908083835b602083101515612d845780518252602082019150602081019050602083039250612d5f565b6001836020036101000a038019825116818451168082178552505050505050905001915050908152602001604051809103902060000160009054906101000a900460ff161515141515612dd657600080fd5b600082816003811115612de557fe5b6008826040518082805190602001908083835b602083101515612e1d5780518252602082019150602081019050602083039250612df8565b6001836020036101000a038019825116818451168082178552505050505050905001915050908152602001604051809103902060040160009054906101000a900460ff166003811115612e6c57fe5b141515612e7857600080fd5b84612e84576001612e87565b60035b6008856040518082805190602001908083835b602083101515612ebf5780518252602082019150602081019050602083039250612e9a565b6001836020036101000a038019825116818451168082178552505050505050905001915050908152602001604051809103902060040160006101000a81548160ff02191690836003811115612f1057fe5b02179055505050505050565b60606000806000806000809054906101000a900473ffffffffffffffffffffffffffffffffffffffff1673ffffffffffffffffffffffffffffffffffffffff163373ffffffffffffffffffffffffffffffffffffffff16141515612f7f57600080fd5b60036000016003600101546003600201546003800154600360040154848054600181600116156101000203166002900480601f0160208091040260200160405190810160405280929190818152602001828054600181600116156101000203166002900480156130305780601f1061300557610100808354040283529160200191613030565b820191906000526020600020905b81548152906001019060200180831161301357829003601f168201915b50505050509450945094509450945094509091929394565b6000809054906101000a900473ffffffffffffffffffffffffffffffffffffffff1673ffffffffffffffffffffffffffffffffffffffff163373ffffffffffffffffffffffffffffffffffffffff161415156130a357600080fd5b80600115156008826040518082805190602001908083835b6020831015156130e057805182526020820191506020810190506020830392506130bb565b6001836020036101000a038019825116818451168082178552505050505050905001915050908152602001604051809103902060000160009054906101000a900460ff16151514151561313257600080fd5b60038281600381111561314157fe5b6008826040518082805190602001908083835b6020831015156131795780518252602082019150602081019050602083039250613154565b6001836020036101000a038019825116818451168082178552505050505050905001915050908152602001604051809103902060040160009054906101000a900460ff1660038111156131c857fe5b1415156131d457600080fd5b6006848160078111156131e357fe5b6009826040518082805190602001908083835b60208310151561321b57805182526020820191506020810190506020830392506131f6565b6001836020036101000a0380198251168184511680821785525050505050509050019150509081526020016040518091039020600b0160009054906101000a900460ff16600781111561326a57fe5b14151561327657600080fd5b60076009876040518082805190602001908083835b6020831015156132b0578051825260208201915060208101905060208303925061328b565b6001836020036101000a0380198251168184511680821785525050505050509050019150509081526020016040518091039020600b0160006101000a81548160ff0219169083600781111561330157fe5b0217905550505050505050565b6000809054906101000a900473ffffffffffffffffffffffffffffffffffffffff1673ffffffffffffffffffffffffffffffffffffffff163373ffffffffffffffffffffffffffffffffffffffff1614151561336957600080fd5b81600115156008826040518082805190602001908083835b6020831015156133a65780518252602082019150602081019050602083039250613381565b6001836020036101000a038019825116818451168082178552505050505050905001915050908152602001604051809103902060000160009054906101000a900460ff1615151415156133f857600080fd5b60038381600381111561340757fe5b6008826040518082805190602001908083835b60208310151561343f578051825260208201915060208101905060208303925061341a565b6001836020036101000a038019825116818451168082178552505050505050905001915050908152602001604051809103902060040160009054906101000a900460ff16600381111561348e57fe5b14151561349a57600080fd5b6001858160078111156134a957fe5b6009826040518082805190602001908083835b6020831015156134e157805182526020820191506020810190506020830392506134bc565b6001836020036101000a0380198251168184511680821785525050505050509050019150509081526020016040518091039020600b0160009054906101000a900460ff16600781111561353057fe5b14151561353c57600080fd5b8561354857600261354b565b60035b6009886040518082805190602001908083835b602083101515613583578051825260208201915060208101905060208303925061355e565b6001836020036101000a0380198251168184511680821785525050505050509050019150509081526020016040518091039020600b0160006101000a81548160ff021916908360078111156135d457fe5b021790555050505050505050565b60608060606000809054906101000a900473ffffffffffffffffffffffffffffffffffffffff1673ffffffffffffffffffffffffffffffffffffffff163373ffffffffffffffffffffffffffffffffffffffff1614151561364257600080fd5b60006009856040518082805190602001908083835b60208310151561367c5780518252602082019150602081019050602083039250613657565b6001836020036101000a03801982511681845116808217855250505050505090500191505090815260200160405180910390209050806000018160010182600201828054600181600116156101000203166002900480601f0160208091040260200160405190810160405280929190818152602001828054600181600116156101000203166002900480156137525780601f1061372757610100808354040283529160200191613752565b820191906000526020600020905b81548152906001019060200180831161373557829003601f168201915b50505050509250818054600181600116156101000203166002900480601f0160208091040260200160405190810160405280929190818152602001828054600181600116156101000203166002900480156137ee5780601f106137c3576101008083540402835291602001916137ee565b820191906000526020600020905b8154815290600101906020018083116137d157829003601f168201915b50505050509150808054600181600116156101000203166002900480601f01602080910402602001604051908101604052809291908181526020018280546001816001161561010002031660029004801561388a5780601f1061385f5761010080835404028352916020019161388a565b820191906000526020600020905b81548152906001019060200180831161386d57829003601f168201915b50505050509050935093509350509193909250565b60008060608060008060009054906101000a900473ffffffffffffffffffffffffffffffffffffffff1673ffffffffffffffffffffffffffffffffffffffff163373ffffffffffffffffffffffffffffffffffffffff1614151561390257600080fd5b60006008876040518082805190602001908083835b60208310151561393c5780518252602082019150602081019050602083039250613917565b6001836020036101000a038019825116818451168082178552505050505050905001915050908152602001604051809103902090508060000160009054906101000a900460ff16816001015482600201836003018460040160009054906101000a900460ff16828054600181600116156101000203166002900480601f016020809104026020016040519081016040528092919081815260200182805460018160011615610100020316600290048015613a375780601f10613a0c57610100808354040283529160200191613a37565b820191906000526020600020905b815481529060010190602001808311613a1a57829003601f168201915b50505050509250818054600181600116156101000203166002900480601f016020809104026020016040519081016040528092919081815260200182805460018160011615610100020316600290048015613ad35780601f10613aa857610100808354040283529160200191613ad3565b820191906000526020600020905b815481529060010190602001808311613ab657829003601f168201915b50505050509150955095509550955095505091939590929450565b60008060009054906101000a900473ffffffffffffffffffffffffffffffffffffffff1673ffffffffffffffffffffffffffffffffffffffff163373ffffffffffffffffffffffffffffffffffffffff16141515613b4b57600080fd5b6000809054906101000a900473ffffffffffffffffffffffffffffffffffffffff16905090565b600260009054906101000a900460ff1681565b60608060606000809054906101000a900473ffffffffffffffffffffffffffffffffffffffff1673ffffffffffffffffffffffffffffffffffffffff163373ffffffffffffffffffffffffffffffffffffffff16141515613be557600080fd5b60006009856040518082805190602001908083835b602083101515613c1f5780518252602082019150602081019050602083039250613bfa565b6001836020036101000a03801982511681845116808217855250505050505090500191505090815260200160405180910390209050806008018160090182600a01828054600181600116156101000203166002900480601f016020809104026020016040519081016040528092919081815260200182805460018160011615610100020316600290048015613cf55780601f10613cca57610100808354040283529160200191613cf5565b820191906000526020600020905b815481529060010190602001808311613cd857829003601f168201915b50505050509250818054600181600116156101000203166002900480601f016020809104026020016040519081016040528092919081815260200182805460018160011615610100020316600290048015613d915780601f10613d6657610100808354040283529160200191613d91565b820191906000526020600020905b815481529060010190602001808311613d7457829003601f168201915b50505050509150808054600181600116156101000203166002900480601f016020809104026020016040519081016040528092919081815260200182805460018160011615610100020316600290048015613e2d5780601f10613e0257610100808354040283529160200191613e2d565b820191906000526020600020905b815481529060010190602001808311613e1057829003601f168201915b50505050509050935093509350509193909250565b60008060009054906101000a900473ffffffffffffffffffffffffffffffffffffffff1673ffffffffffffffffffffffffffffffffffffffff163373ffffffffffffffffffffffffffffffffffffffff16141515613e9f57600080fd5b60006009836040518082805190602001908083835b602083101515613ed95780518252602082019150602081019050602083039250613eb4565b6001836020036101000a0380198251168184511680821785525050505050509050019150509081526020016040518091039020905080600b0160009054906101000a900460ff16915050919050565b6000809054906101000a900473ffffffffffffffffffffffffffffffffffffffff1673ffffffffffffffffffffffffffffffffffffffff163373ffffffffffffffffffffffffffffffffffffffff16141515613f8357600080fd5b8060006009826040518082805190602001908083835b602083101515613fbe5780518252602082019150602081019050602083039250613f99565b6001836020036101000a0380198251168184511680821785525050505050509050019150509081526020016040518091039020600b0160009054906101000a900460ff1690506004600781111561401157fe5b81600781111561401d57fe5b148061403f57506006600781111561403157fe5b81600781111561403d57fe5b145b8061405f575060078081111561405157fe5b81600781111561405d57fe5b145b8061408057506002600781111561407257fe5b81600781111561407e57fe5b145b15151561408c57600080fd5b60046009846040518082805190602001908083835b6020831015156140c657805182526020820191506020810190506020830392506140a1565b6001836020036101000a0380198251168184511680821785525050505050509050019150509081526020016040518091039020600b0160006101000a81548160ff0219169083600781111561411757fe5b02179055506000600260006101000a81548160ff021916908315150217905550505050565b60606000809054906101000a900473ffffffffffffffffffffffffffffffffffffffff1673ffffffffffffffffffffffffffffffffffffffff163373ffffffffffffffffffffffffffffffffffffffff1614151561419957600080fd5b60018054600181600116156101000203166002900480601f01602080910402602001604051908101604052809291908181526020018280546001816001161561010002031660029004801561422f5780601f106142045761010080835404028352916020019161422f565b820191906000526020600020905b81548152906001019060200180831161421257829003601f168201915b5050505050905090565b828054600181600116156101000203166002900490600052602060002090601f016020900481019282601f1061427a57805160ff19168380011785556142a8565b828001600101855582156142a8579182015b828111156142a757825182559160200191906001019061428c565b5b5090506142b59190614376565b5090565b828054600181600116156101000203166002900490600052602060002090601f016020900481019282601f106142fa57805160ff1916838001178555614328565b82800160010185558215614328579182015b8281111561432757825182559160200191906001019061430c565b5b5090506143359190614376565b5090565b60a0604051908101604052806000151581526020016000815260200160608152602001606081526020016000600381111561437057fe5b81525090565b61439891905b8082111561439457600081600090555060010161437c565b5090565b9056fea165627a7a72305820f235859fb25bf4ff9cb4b5a0eabcac72b91eec2808c18ad74149e33b89d4f6fe0029",
  "source": "pragma solidity ^0.5.0;\n\n\ncontract EnlistmentToContract {\n\n    address owner;\n    string landlord;\n    bool public locked = false;\n    Enlistment enlistment;\n    mapping(string => Offer) tenantOfferMap;\n    mapping(string => AgreementDraft) tenantAgreementMap;\n\n    constructor(string memory landlordEmail, string memory streetName, int floorNr, int apartmentNr, int houseNr, int postalCode) public\n    {\n        enlistment = Enlistment(streetName, floorNr, apartmentNr, houseNr, postalCode);\n        landlord = landlordEmail;\n        owner = msg.sender;\n    }\n\n    function getOwner() public view ownerOnly() returns (address) {\n        return owner;\n    }\n\n    function getLandlord() public view ownerOnly() returns (string memory) {\n        return landlord;\n    }\n\n    function getEnlistment() public view ownerOnly() returns (string memory, int, int, int, int) {\n        return (enlistment.streetName, enlistment.floorNr, enlistment.apartmentNr, enlistment.houseNr, enlistment.postalCode);\n    }\n\n    enum OfferStatus {\n        PENDING,\n        REJECTED,\n        CANCELLED,\n        ACCEPTED\n    }\n\n    enum AgreementStatus {\n        UNINITIALIZED, // internal\n        PENDING,\n        REJECTED,\n        CONFIRMED,\n        CANCELLED,\n        LANDLORD_SIGNED,\n        TENANT_SIGNED,\n        COMPLETED\n    }\n\n    struct Enlistment {\n        string streetName;\n        int floorNr;\n        int apartmentNr;\n        int houseNr;\n        int postalCode;\n    }\n\n    struct Offer {\n        bool initialized;\n        int amount;\n        string tenantName;\n        string tenantEmail;\n        OfferStatus status;\n    }\n\n    struct AgreementDraft {\n        string landlordName; // for simplicity, there is only one landlord\n        string tenantName; // for simplicity, there is only one tenant and occupants are omitted\n        string tenantEmail;\n        int amount;\n        uint leaseStart;\n        uint handoverDate;\n        uint leasePeriod;\n        string otherTerms;\n        string hash;\n        string landlordSignedHash;\n        string tenantSignedHash;\n        AgreementStatus status;\n    }\n\n    modifier noActiveOffer(string memory tenantEmail) {\n        require(tenantOfferMap[tenantEmail].initialized == false || tenantOfferMap[tenantEmail].status == OfferStatus.REJECTED || tenantOfferMap[tenantEmail].status == OfferStatus.CANCELLED);\n        _;\n    }\n\n    modifier offerExists(string memory tenantEmail) {\n        require(tenantOfferMap[tenantEmail].initialized == true);\n        _;\n    }\n\n    modifier offerInStatus(OfferStatus status, string memory tenantEmail) {\n        require(tenantOfferMap[tenantEmail].status == status);\n        _;\n    }\n\n    modifier offerCancellable(string memory tenantEmail) {\n        OfferStatus offerStatus = tenantOfferMap[tenantEmail].status;\n        require(offerStatus == OfferStatus.PENDING || offerStatus == OfferStatus.ACCEPTED);\n        AgreementStatus agreementStatus = tenantAgreementMap[tenantEmail].status;\n        require(!(agreementStatus == AgreementStatus.CANCELLED || agreementStatus == AgreementStatus.TENANT_SIGNED || agreementStatus == AgreementStatus.COMPLETED));\n        _;\n    }\n\n    modifier agreementCanBeSubmitted(string memory tenantEmail) {\n        require(tenantAgreementMap[tenantEmail].status == AgreementStatus.UNINITIALIZED || tenantAgreementMap[tenantEmail].status == AgreementStatus.REJECTED || tenantAgreementMap[tenantEmail].status == AgreementStatus.CANCELLED);\n        _;\n    }\n\n    modifier agreementInStatus(AgreementStatus status, string memory tenantEmail) {\n        require(tenantAgreementMap[tenantEmail].status == status);\n        _;\n    }\n\n    modifier agreementCancellable(string memory tenantEmail) {\n        AgreementStatus agreementStatus = tenantAgreementMap[tenantEmail].status;\n        require(!(agreementStatus == AgreementStatus.CANCELLED || agreementStatus == AgreementStatus.TENANT_SIGNED || agreementStatus == AgreementStatus.COMPLETED || agreementStatus == AgreementStatus.REJECTED));\n        _;\n    }\n\n    modifier notLocked() {\n        require(!locked);\n        _;\n    }\n\n    modifier ownerOnly() {\n        require(msg.sender == owner);\n        _;\n    }\n\n    // what if the offer is in status PENDING and the tenant wants to send a new one?\n    function sendOffer(int amount, string memory tenantName, string memory tenantEmail) public payable\n        ownerOnly()\n        noActiveOffer(tenantEmail)\n        notLocked()\n    {\n        Offer memory offer = Offer({\n            initialized: true,\n            amount: amount,\n            tenantName: tenantName,\n            tenantEmail: tenantEmail,\n            status: OfferStatus.PENDING\n        });\n        tenantOfferMap[tenantEmail] = offer;\n    }\n\n    function cancelOffer(string memory tenantEmail) public payable\n        ownerOnly()\n        offerExists(tenantEmail)\n        offerCancellable(tenantEmail)\n    {\n        tenantOfferMap[tenantEmail].status = OfferStatus.CANCELLED;\n        if (tenantAgreementMap[tenantEmail].status != AgreementStatus.UNINITIALIZED) {\n            tenantAgreementMap[tenantEmail].status = AgreementStatus.CANCELLED;\n        }\n        locked = false;\n    }\n\n    function getOffer(string memory tenantEmail) public view ownerOnly() returns (bool, int, string memory, string memory, OfferStatus) {\n        Offer storage o = tenantOfferMap[tenantEmail];\n        return (o.initialized, o.amount, o.tenantName, o.tenantEmail, o.status);\n    }\n\n    function reviewOffer(bool result, string memory tenantEmail) public payable\n        ownerOnly()\n        offerExists(tenantEmail)\n        offerInStatus(OfferStatus.PENDING, tenantEmail)\n    {\n        tenantOfferMap[tenantEmail].status = result ? OfferStatus.ACCEPTED : OfferStatus.REJECTED;\n    }\n\n    function submitDraft(string memory tenantEmail, string memory landlordName, string memory agreementTenantName, string memory agreementTenantEmail, uint leaseStart, uint handoverDate, uint leasePeriod, string memory otherTerms, string memory hash) public payable\n        ownerOnly()\n        offerExists(tenantEmail)\n        offerInStatus(OfferStatus.ACCEPTED, tenantEmail)\n        agreementCanBeSubmitted(tenantEmail)\n    {\n        int256 amount = tenantOfferMap[tenantEmail].amount;\n        tenantAgreementMap[tenantEmail] = AgreementDraft(landlordName, agreementTenantName, agreementTenantEmail, amount, leaseStart, handoverDate, leasePeriod, otherTerms, hash, \"\", \"\", AgreementStatus.PENDING);\n    }\n\n    // getAgreement functions:\n    // can only return tuple of max 7 elements, otherwise throws \"Stack too geep\"\n    // solution: splitted into multiple functions\n\n    function getAgreementParticipants(string memory tenantEmail) public view ownerOnly() returns (string memory, string memory, string memory) {\n        AgreementDraft storage a = tenantAgreementMap[tenantEmail];\n        return (a.landlordName, a.tenantName, a.tenantEmail);\n    }\n\n    function getAgreementDetails(string memory tenantEmail) public view ownerOnly() returns (int, uint, uint, uint, string memory) {\n        AgreementDraft storage a = tenantAgreementMap[tenantEmail];\n        return (a.amount, a.leaseStart, a.handoverDate, a.leasePeriod, a.otherTerms);\n    }\n\n    function getAgreementHashes(string memory tenantEmail) public view ownerOnly() returns (string memory, string memory, string memory) {\n        AgreementDraft storage a = tenantAgreementMap[tenantEmail];\n        return (a.hash, a.landlordSignedHash, a.tenantSignedHash);\n    }\n\n    function getAgreementStatus(string memory tenantEmail) public view ownerOnly() returns (AgreementStatus) {\n        AgreementDraft storage a = tenantAgreementMap[tenantEmail];\n        return (a.status);\n    }\n\n    function reviewAgreement(string memory tenantEmail, bool result) public payable\n        ownerOnly()\n        offerExists(tenantEmail)\n        offerInStatus(OfferStatus.ACCEPTED, tenantEmail)\n        agreementInStatus(AgreementStatus.PENDING, tenantEmail)\n    {\n        tenantAgreementMap[tenantEmail].status = result ? AgreementStatus.CONFIRMED : AgreementStatus.REJECTED;\n    }\n\n    function landlordSignAgreement(string memory tenantEmail, string memory landlordSignedHash) public payable\n        ownerOnly()\n        notLocked()\n        offerExists(tenantEmail)\n        offerInStatus(OfferStatus.ACCEPTED, tenantEmail)\n        agreementInStatus(AgreementStatus.CONFIRMED, tenantEmail)\n    {\n        tenantAgreementMap[tenantEmail].landlordSignedHash = landlordSignedHash;\n        tenantAgreementMap[tenantEmail].status = AgreementStatus.LANDLORD_SIGNED;\n        locked = true;\n    }\n\n    function tenantSignAgreement(string memory tenantEmail, string memory tenantSignedHash) public payable\n        ownerOnly()\n        offerExists(tenantEmail)\n        offerInStatus(OfferStatus.ACCEPTED, tenantEmail)\n        agreementInStatus(AgreementStatus.LANDLORD_SIGNED, tenantEmail)\n    {\n        tenantAgreementMap[tenantEmail].tenantSignedHash = tenantSignedHash;\n        tenantAgreementMap[tenantEmail].status = AgreementStatus.TENANT_SIGNED;\n    }\n\n    function cancelAgreement(string memory tenantEmail) public payable\n        ownerOnly()\n        agreementCancellable(tenantEmail)\n    {\n        tenantAgreementMap[tenantEmail].status = AgreementStatus.CANCELLED;\n        locked = false;\n    }\n\n    function receiveFirstMonthRent(string memory tenantEmail) public payable\n        ownerOnly()\n        offerExists(tenantEmail)\n        offerInStatus(OfferStatus.ACCEPTED, tenantEmail)\n        agreementInStatus(AgreementStatus.TENANT_SIGNED, tenantEmail)\n    {\n        tenantAgreementMap[tenantEmail].status = AgreementStatus.COMPLETED;\n    }\n}\n\n",
  "sourcePath": "C:/Users/kwadw/OneDrive/Desktop/WORK/personal-projects/blockchain/blockchain-dapp/land-real-estate-project/real-estate-blockchain/ethereum/contracts/EnlistmentToContract.sol",
  "compiler": {
    "name": "solc",
    "version": "0.5.0+commit.1d4f565a.Emscripten.clang"
  },
  "schemaVersion": "3.0.6",
  "updatedAt": "2019-06-16T18:45:59.405Z",
  "devdoc": {
    "methods": {}
  },
  "userdoc": {
    "methods": {}
  }
}