{
  "contractName": "RentToContract",
  "abi": [
    {
      "constant": true,
      "inputs": [],
      "name": "circuitBreakerStopped",
      "outputs": [
        {
          "name": "",
          "type": "bool"
        }
      ],
      "payable": false,
      "stateMutability": "view",
      "type": "function",
      "signature": "0xaf908f3f"
    },
    {
      "inputs": [
        {
          "name": "tenantEmail",
          "type": "string"
        },
        {
          "name": "tenantName",
          "type": "string"
        },
        {
          "name": "landlordName",
          "type": "string"
        },
        {
          "name": "amount",
          "type": "uint256"
        },
        {
          "name": "duration",
          "type": "uint256"
        }
      ],
      "payable": false,
      "stateMutability": "nonpayable",
      "type": "constructor",
      "signature": "constructor"
    },
    {
      "payable": true,
      "stateMutability": "payable",
      "type": "fallback"
    },
    {
      "anonymous": false,
      "inputs": [
        {
          "indexed": false,
          "name": "tenantEmail",
          "type": "string"
        },
        {
          "indexed": false,
          "name": "paymentDate",
          "type": "uint256"
        },
        {
          "indexed": false,
          "name": "amount",
          "type": "uint256"
        }
      ],
      "name": "RentPaymentMade",
      "type": "event",
      "signature": "0xc0c44e71b116e1f49f140c0af676d78bcbf56d7a7a3fba7ecaa5eb76a477ee4a"
    },
    {
      "constant": true,
      "inputs": [],
      "name": "getOwner",
      "outputs": [
        {
          "name": "",
          "type": "address"
        }
      ],
      "payable": false,
      "stateMutability": "view",
      "type": "function",
      "signature": "0x893d20e8"
    },
    {
      "constant": true,
      "inputs": [],
      "name": "getLandlord",
      "outputs": [
        {
          "name": "",
          "type": "string"
        }
      ],
      "payable": false,
      "stateMutability": "view",
      "type": "function",
      "signature": "0xf502236d"
    },
    {
      "constant": true,
      "inputs": [],
      "name": "getTenant",
      "outputs": [
        {
          "name": "",
          "type": "string"
        }
      ],
      "payable": false,
      "stateMutability": "view",
      "type": "function",
      "signature": "0x0b3bb024"
    },
    {
      "constant": true,
      "inputs": [],
      "name": "getTotalRentPaid",
      "outputs": [
        {
          "name": "",
          "type": "uint256"
        }
      ],
      "payable": false,
      "stateMutability": "view",
      "type": "function",
      "signature": "0x7915d328"
    },
    {
      "constant": true,
      "inputs": [],
      "name": "getNumberOfPayments",
      "outputs": [
        {
          "name": "",
          "type": "uint256"
        }
      ],
      "payable": false,
      "stateMutability": "view",
      "type": "function",
      "signature": "0x52295723"
    },
    {
      "constant": true,
      "inputs": [],
      "name": "getRent",
      "outputs": [
        {
          "name": "",
          "type": "string"
        },
        {
          "name": "",
          "type": "string"
        },
        {
          "name": "",
          "type": "uint256"
        },
        {
          "name": "",
          "type": "uint256"
        }
      ],
      "payable": false,
      "stateMutability": "view",
      "type": "function",
      "signature": "0xe0719564"
    },
    {
      "constant": false,
      "inputs": [
        {
          "name": "tenantEmail",
          "type": "string"
        },
        {
          "name": "amount",
          "type": "uint256"
        }
      ],
      "name": "receiveMonthlyRent",
      "outputs": [],
      "payable": true,
      "stateMutability": "payable",
      "type": "function",
      "signature": "0xd6ce4112"
    },
    {
      "constant": false,
      "inputs": [],
      "name": "killContract",
      "outputs": [],
      "payable": false,
      "stateMutability": "nonpayable",
      "type": "function",
      "signature": "0x1c02708d"
    }
  ],
  "bytecode": "0x608060405260008060006101000a81548160ff0219169083151502179055503480156200002b57600080fd5b5060405162001a1438038062001a14833981018060405260a08110156200005157600080fd5b8101908080516401000000008111156200006a57600080fd5b828101905060208101848111156200008157600080fd5b81518560018202830111640100000000821117156200009f57600080fd5b50509291906020018051640100000000811115620000bc57600080fd5b82810190506020810184811115620000d357600080fd5b8151856001820283011164010000000082111715620000f157600080fd5b505092919060200180516401000000008111156200010e57600080fd5b828101905060208101848111156200012557600080fd5b81518560018202830111640100000000821117156200014357600080fd5b5050929190602001805190602001909291908051906020019092919050505080420160018190555033600060016101000a81548173ffffffffffffffffffffffffffffffffffffffff021916908373ffffffffffffffffffffffffffffffffffffffff1602179055508360039080519060200190620001c492919062000564565b508260029080519060200190620001dd92919062000564565b50620001e8620005eb565b60606040519081016040528087815260200142815260200184815250905060c06040519081016040528085815260200186815260200187815260200182815260200182602001518152602001600154815250600560008201518160000190805190602001906200025a9291906200060d565b506020820151816001019080519060200190620002799291906200060d565b506040820151816002019080519060200190620002989291906200060d565b506060820151816003016000820151816000019080519060200190620002c09291906200060d565b50602082015181600101556040820151816002015550506080820151816006015560a082015181600701559050506005600f876040518082805190602001908083835b6020831015156200032a578051825260208201915060208101905060208303925062000303565b6001836020036101000a0380198251168184511680821785525050505050509050019150509081526020016040518091039020600082018160000190805460018160011615610100020316600290046200038692919062000694565b5060018201816001019080546001816001161561010002031660029004620003b092919062000694565b5060028201816002019080546001816001161561010002031660029004620003da92919062000694565b506003820181600301600082018160000190805460018160011615610100020316600290046200040c92919062000694565b50600182015481600101556002820154816002015550506006820154816006015560078201548160070155905050600d81908060018154018082558091505090600182039060005260206000209060030201600090919290919091506000820151816000019080519060200190620004869291906200060d565b506020820151816001015560408201518160020155505050620004c78160400151600454620004d9640100000000026200113d179091906401000000009004565b6004819055505050505050506200074a565b60008082840190508381101515156200055a576040517f08c379a000000000000000000000000000000000000000000000000000000000815260040180806020018281038252601b8152602001807f536166654d6174683a206164646974696f6e206f766572666c6f77000000000081525060200191505060405180910390fd5b8091505092915050565b828054600181600116156101000203166002900490600052602060002090601f016020900481019282601f10620005a757805160ff1916838001178555620005d8565b82800160010185558215620005d8579182015b82811115620005d7578251825591602001919060010190620005ba565b5b509050620005e7919062000722565b5090565b6060604051908101604052806060815260200160008152602001600081525090565b828054600181600116156101000203166002900490600052602060002090601f016020900481019282601f106200065057805160ff191683800117855562000681565b8280016001018555821562000681579182015b828111156200068057825182559160200191906001019062000663565b5b50905062000690919062000722565b5090565b828054600181600116156101000203166002900490600052602060002090601f016020900481019282601f10620006cf57805485556200070f565b828001600101855582156200070f57600052602060002091601f016020900482015b828111156200070e578254825591600101919060010190620006f1565b5b5090506200071e919062000722565b5090565b6200074791905b808211156200074357600081600090555060010162000729565b5090565b90565b6112ba806200075a6000396000f3fe608060405260043610610099576000357c0100000000000000000000000000000000000000000000000000000000900463ffffffff1680630b3bb0241461009b5780631c02708d1461012b57806352295723146101425780637915d3281461016d578063893d20e814610198578063af908f3f146101ef578063d6ce41121461021e578063e0719564146102e3578063f502236d146103ed575b005b3480156100a757600080fd5b506100b061047d565b6040518080602001828103825283818151815260200191508051906020019080838360005b838110156100f05780820151818401526020810190506100d5565b50505050905090810190601f16801561011d5780820380516001836020036101000a031916815260200191505b509250505060405180910390f35b34801561013757600080fd5b5061014061057b565b005b34801561014e57600080fd5b50610157610612565b6040518082815260200191505060405180910390f35b34801561017957600080fd5b5061018261067a565b6040518082815260200191505060405180910390f35b3480156101a457600080fd5b506101ad6106df565b604051808273ffffffffffffffffffffffffffffffffffffffff1673ffffffffffffffffffffffffffffffffffffffff16815260200191505060405180910390f35b3480156101fb57600080fd5b50610204610764565b604051808215151515815260200191505060405180910390f35b6102e16004803603604081101561023457600080fd5b810190808035906020019064010000000081111561025157600080fd5b82018360208201111561026357600080fd5b8035906020019184600183028401116401000000008311171561028557600080fd5b91908080601f016020809104026020016040519081016040528093929190818152602001838380828437600081840152601f19601f82011690508083019250505050505050919291929080359060200190929190505050610776565b005b3480156102ef57600080fd5b506102f8610e5c565b604051808060200180602001858152602001848152602001838103835287818151815260200191508051906020019080838360005b8381101561034857808201518184015260208101905061032d565b50505050905090810190601f1680156103755780820380516001836020036101000a031916815260200191505b50838103825286818151815260200191508051906020019080838360005b838110156103ae578082015181840152602081019050610393565b50505050905090810190601f1680156103db5780820380516001836020036101000a031916815260200191505b50965050505050505060405180910390f35b3480156103f957600080fd5b5061040261101a565b6040518080602001828103825283818151815260200191508051906020019080838360005b83811015610442578082015181840152602081019050610427565b50505050905090810190601f16801561046f5780820380516001836020036101000a031916815260200191505b509250505060405180910390f35b6060600060019054906101000a900473ffffffffffffffffffffffffffffffffffffffff1673ffffffffffffffffffffffffffffffffffffffff163373ffffffffffffffffffffffffffffffffffffffff161415156104db57600080fd5b60038054600181600116156101000203166002900480601f0160208091040260200160405190810160405280929190818152602001828054600181600116156101000203166002900480156105715780601f1061054657610100808354040283529160200191610571565b820191906000526020600020905b81548152906001019060200180831161055457829003601f168201915b5050505050905090565b600060019054906101000a900473ffffffffffffffffffffffffffffffffffffffff1673ffffffffffffffffffffffffffffffffffffffff163373ffffffffffffffffffffffffffffffffffffffff161415156105d757600080fd5b600060019054906101000a900473ffffffffffffffffffffffffffffffffffffffff1673ffffffffffffffffffffffffffffffffffffffff16ff5b60008060019054906101000a900473ffffffffffffffffffffffffffffffffffffffff1673ffffffffffffffffffffffffffffffffffffffff163373ffffffffffffffffffffffffffffffffffffffff1614151561066f57600080fd5b600d80549050905090565b60008060019054906101000a900473ffffffffffffffffffffffffffffffffffffffff1673ffffffffffffffffffffffffffffffffffffffff163373ffffffffffffffffffffffffffffffffffffffff161415156106d757600080fd5b600454905090565b60008060019054906101000a900473ffffffffffffffffffffffffffffffffffffffff1673ffffffffffffffffffffffffffffffffffffffff163373ffffffffffffffffffffffffffffffffffffffff1614151561073c57600080fd5b600060019054906101000a900473ffffffffffffffffffffffffffffffffffffffff16905090565b6000809054906101000a900460ff1681565b600060019054906101000a900473ffffffffffffffffffffffffffffffffffffffff1673ffffffffffffffffffffffffffffffffffffffff163373ffffffffffffffffffffffffffffffffffffffff161415156107d257600080fd5b6107da611118565b1515610e5857806107ea81611124565b5082606060056002018054600181600116156101000203166002900480601f0160208091040260200160405190810160405280929190818152602001828054600181600116156101000203166002900480156108875780601f1061085c57610100808354040283529160200191610887565b820191906000526020600020905b81548152906001019060200180831161086a57829003601f168201915b505050505090506060600f836040518082805190602001908083835b6020831015156108c857805182526020820191506020810190506020830392506108a3565b6001836020036101000a03801982511681845116808217855250505050505090500191505090815260200160405180910390206001018054600181600116156101000203166002900480601f0160208091040260200160405190810160405280929190818152602001828054600181600116156101000203166002900480156109925780601f1061096757610100808354040283529160200191610992565b820191906000526020600020905b81548152906001019060200180831161097557829003601f168201915b50505050509050606060038054600181600116156101000203166002900480601f016020809104026020016040519081016040528092919081815260200182805460018160011615610100020316600290048015610a315780601f10610a0657610100808354040283529160200191610a31565b820191906000526020600020905b815481529060010190602001808311610a1457829003601f168201915b50505050509050826040516020018082805190602001908083835b602083101515610a715780518252602082019150602081019050602083039250610a4c565b6001836020036101000a03801982511681845116808217855250505050505090500191505060405160208183030381529060405280519060200120846040516020018082805190602001908083835b602083101515610ae55780518252602082019150602081019050602083039250610ac0565b6001836020036101000a03801982511681845116808217855250505050505090500191505060405160208183030381529060405280519060200120141515610b95576040517f08c379a00000000000000000000000000000000000000000000000000000000081526004018080602001828103825260148152602001807f4e4f54205448452052494748542054454e414e5400000000000000000000000081525060200191505060405180910390fd5b816040516020018082805190602001908083835b602083101515610bce5780518252602082019150602081019050602083039250610ba9565b6001836020036101000a03801982511681845116808217855250505050505090500191505060405160208183030381529060405280519060200120816040516020018082805190602001908083835b602083101515610c425780518252602082019150602081019050602083039250610c1d565b6001836020036101000a03801982511681845116808217855250505050505090500191505060405160208183030381529060405280519060200120141515610cf2576040517f08c379a00000000000000000000000000000000000000000000000000000000081526004018080602001828103825260148152602001807f4e4f54205448452052494748542054454e414e5400000000000000000000000081525060200191505060405180910390fd5b610cfa6111c7565b606060405190810160405280898152602001428152602001888152509050600d81908060018154018082558091505090600182039060005260206000209060030201600090919290919091506000820151816000019080519060200190610d629291906111e9565b506020820151816001015560408201518160020155505050610d93816040015160045461113d90919063ffffffff16565b6004819055507fc0c44e71b116e1f49f140c0af676d78bcbf56d7a7a3fba7ecaa5eb76a477ee4a8160000151826020015183604001516040518080602001848152602001838152602001828103825285818151815260200191508051906020019080838360005b83811015610e15578082015181840152602081019050610dfa565b50505050905090810190601f168015610e425780820380516001836020036101000a031916815260200191505b5094505050505060405180910390a15050505050505b5050565b606080600080600060019054906101000a900473ffffffffffffffffffffffffffffffffffffffff1673ffffffffffffffffffffffffffffffffffffffff163373ffffffffffffffffffffffffffffffffffffffff16141515610ebe57600080fd5b60056000016005600101600560060154600560070154838054600181600116156101000203166002900480601f016020809104026020016040519081016040528092919081815260200182805460018160011615610100020316600290048015610f695780601f10610f3e57610100808354040283529160200191610f69565b820191906000526020600020905b815481529060010190602001808311610f4c57829003601f168201915b50505050509350828054600181600116156101000203166002900480601f0160208091040260200160405190810160405280929190818152602001828054600181600116156101000203166002900480156110055780601f10610fda57610100808354040283529160200191611005565b820191906000526020600020905b815481529060010190602001808311610fe857829003601f168201915b50505050509250935093509350935090919293565b6060600060019054906101000a900473ffffffffffffffffffffffffffffffffffffffff1673ffffffffffffffffffffffffffffffffffffffff163373ffffffffffffffffffffffffffffffffffffffff1614151561107857600080fd5b60028054600181600116156101000203166002900480601f01602080910402602001604051908101604052809291908181526020018280546001816001161561010002031660029004801561110e5780601f106110e35761010080835404028352916020019161110e565b820191906000526020600020905b8154815290600101906020018083116110f157829003601f168201915b5050505050905090565b60006001544211905090565b600080821415151561113557600080fd5b819050919050565b60008082840190508381101515156111bd576040517f08c379a000000000000000000000000000000000000000000000000000000000815260040180806020018281038252601b8152602001807f536166654d6174683a206164646974696f6e206f766572666c6f77000000000081525060200191505060405180910390fd5b8091505092915050565b6060604051908101604052806060815260200160008152602001600081525090565b828054600181600116156101000203166002900490600052602060002090601f016020900481019282601f1061122a57805160ff1916838001178555611258565b82800160010185558215611258579182015b8281111561125757825182559160200191906001019061123c565b5b5090506112659190611269565b5090565b61128b91905b8082111561128757600081600090555060010161126f565b5090565b9056fea165627a7a72305820e36148eb49c712fda58a8e2bcb27d77160ef276203e3f2ec4001518fa3f5fb0d0029",
  "source": "pragma solidity ^0.5.0;\n\n\n// import \"github.com/oraclize/ethereum-api/oraclizeAPI.sol\"; // ORACLIZE LIBRARY TO BE INTEGRATED SOON ..\nimport \"./SafeMath.sol\"; // LIBRARY TO MAKE SAFE MATHEMATICAL CALCULATIONS IN THIS CONTRACT\n\n\n// contract RentToContract is usingOraclize {\ncontract RentToContract {\n   \n  /* // ALL THE STUFF YOU'LL NEED TO INTEGRATE WITH ORACLIZE, USING Provable\n  uint public balance;\n\n  event Log(string text);\n  \n\n  function __callback(bytes32 _myid, string memory _result) {\n      require (msg.sender == oraclize_cbAddress());\n      Log(_result);\n      price = parseInt(_result, 2); // let's save it as $ cents\n  }\n  \n  function updatePrice() public payable {\n    emit Log(\"Oraclize query was sent, waiting for the answer..\");\n    oraclize_query(\"URL\",\"json(https://min-api.cryptocompare.com/data/price?fsym=ETH&tsyms=USD).USD\");\n    \n    if (oraclize_getPrice(\"URL\") > balance) {\n      emit Log(\"Oraclize query was NOT sent, please add some ETH to cover for the query fee\");\n    } else {\n      emit Log(\"Oraclize query was sent, standing by for the answer..\");\n      oraclize_query(\"URL\", \"json(https://api.pro.coinbase.com/products/ETH-USD/ticker).price\");\n    }\n  }\n  */\n\n  using SafeMath for uint;\n  \n  bool public circuitBreakerStopped = false;\n  address owner;\n  uint contractExpired; // THE RENT EXPIRATION DATE \n  // \n  string landlord;\n  string tenant;\n  uint totalRentPaid;\n  Rent rentSetup;\n  RentPayment[] payments;\n  // \n  mapping(address => bool) admins;\n  mapping(string => Rent) rentSetupMap;\n\n  // GETTER FUNCTIONS \n\n  function getOwner() public view ownerOnly() returns (address) {\n    return owner;\n  }\n\n  function getLandlord() public view ownerOnly() returns (string memory) {\n    return landlord;\n  }\n\n  function getTenant() public view ownerOnly() returns (string memory) {\n    return tenant;\n  }\n\n  function getTotalRentPaid() public view ownerOnly() returns (uint) {\n    return totalRentPaid;\n  }\n\n  function getNumberOfPayments() public view ownerOnly() returns (uint) {\n    return payments.length;\n  }\n\n  function getRent() public view ownerOnly() returns (string memory, string memory, uint, uint) {\n    return (rentSetup.landlordName, rentSetup.tenantName, rentSetup.firstPaymentDate, rentSetup.rentExpirationDate);\n  }\n  // \n  event RentPaymentMade(string tenantEmail, uint paymentDate, uint amount);\n  // \n  struct Rent {\n    string landlordName;\n    string tenantName;\n    string tenantEmail;\n    RentPayment firstPayment;\n    uint firstPaymentDate;\n    uint rentExpirationDate;\n  }\n\n  struct RentPayment {\n    string tenantEmail;\n    uint paymentDate;\n    uint amount;\n  }\n\n  modifier validateTenant(string memory tenantEmail) { // CHECKS IF THE TENANT (tenantEmail) INDEED IN THE RENT PAYER\n    string memory te = rentSetup.tenantEmail;\n    string memory tn = rentSetupMap[tenantEmail].tenantName;\n    string memory mainTn = tenant;\n    require((keccak256(abi.encodePacked(tenantEmail)) == keccak256(abi.encodePacked(te))), \"NOT THE RIGHT TENANT\");\n    require((keccak256(abi.encodePacked(mainTn)) == keccak256(abi.encodePacked(tn))), \"NOT THE RIGHT TENANT\");\n    _;\n  }\n  \n  modifier validateAmount(uint amount) { // CHECKS IF THE AMOUNT IS HIGHER THAN 0\n    throwsErrorIfZero(amount); // NO NEED TO WORK WITH THE RETURN VALUE FOR NOW ..\n    _;\n  }\n\n  function throwsErrorIfZero(uint num) private pure returns (uint) {\n    require(num != 0);\n    return num;\n  }\n\n  modifier isNotDeprecated {\n    if(!rentContractExpired()) _;\n  }\n\n  modifier isDeprecated {\n    if(rentContractExpired()) _;\n  }\n\n  function rentContractExpired() private view returns (bool) {\n    return now > contractExpired;\n  }\n\n  modifier ownerOnly() {\n    require(msg.sender == owner);\n    _;\n  }\n\n  modifier onlyAdmin {\n    require(admins[msg.sender] == true, \"NOT AN ADMIN\");\n    _;\n  }\n\n  function addAdmin(address _a) private onlyAdmin returns (bool) {\n    admins[_a] = true;\n    return true;\n  }\n\n  modifier stopInEmergency { require(!circuitBreakerStopped, \"...\"); _; }\n  modifier onlyInEmergency { require(circuitBreakerStopped, \"...\"); _; }\n  \n  /* SAMPLE FUNCTIONS TO TEST THE CIRCUIT BREAKER DESIGN PATTERN ..\n  function deposit() public stopInEmergency {}\n  function withdraw() public onlyInEmergency {} \n  */\n\n\n  constructor(string memory tenantEmail, string memory tenantName, string memory landlordName, uint amount, uint duration) public {\n    contractExpired = now + duration; // SET THE RENT duration AS THE DATE THAT THIS CONTRACT TO EXPIRE (Auto Deprecate Design Pattern)\n    owner = msg.sender; \n    // addAdmin(msg.sender);\n    tenant = tenantName; landlord = landlordName;\n    RentPayment memory payment1 = RentPayment({\n      tenantEmail: tenantEmail,\n      paymentDate: now,\n      amount: amount\n    }); // SETUP THE FIRST RENT PAYMENT OBJECT\n    rentSetup = Rent({\n      tenantEmail: tenantEmail,\n      tenantName: tenantName,\n      landlordName: landlordName,\n      firstPayment: payment1,\n      firstPaymentDate: payment1.paymentDate,\n      rentExpirationDate: contractExpired\n    }); // SETUP THE RENT OBJECT\n    rentSetupMap[tenantEmail] = rentSetup; // DO THIS IN CASE IN FUTURE, YOU'LL WANT TO MANAGE MULTIPLE RENT SETUPS\n    payments.push(payment1); // LET'S NOT emit THE RentPaymentMade EVENT ON THE 1ST PAYMENT\n    totalRentPaid = totalRentPaid.add(payment1.amount);\n  }\n\n  function receiveMonthlyRent(string memory tenantEmail, uint amount) public payable\n    ownerOnly() \n    // onlyAdmin()\n    isNotDeprecated() \n    validateAmount(amount)\n    validateTenant(tenantEmail) \n  { // WHEN EXPANDING THE PLATFORM, THIS FUNCTION SHOULD BE ABLE TO RECEIVE RENT IN ETHER TOO ..\n    RentPayment memory payment = RentPayment({\n      tenantEmail: tenantEmail,\n      paymentDate: now,\n      amount: amount\n    }); // SETUP A RENT PAYMENT OBJECT\n    payments.push(payment); // ADD RENT payment, THEN EMIT THE RentPaymentMade EVENT\n    totalRentPaid = totalRentPaid.add(payment.amount);\n    emit RentPaymentMade(payment.tenantEmail, payment.paymentDate, payment.amount);\n  }\n\n  function killContract() public ownerOnly() {\n    selfdestruct(address(uint160(owner))); // TAKES AN ADDRESS OF CONTRACT TO KILL\n  }\n\n  // FALLBACK FUNCTION TO RUN WHENEVER THERE'S SOME KINDA ISSUE ..\n  function () external payable { // NO function name, params, or return values ..\n      /* THIS FALLBACK FUNCTION WILL EXECUTE IF THE CLIENT CALLS A FUNCTION\n        THAT DOESN'T EXIST IN THIS CONTRACT (i.e. funct's identifier isn't defined)\n        CONTRACTS CAN HAVE ONLY 1 FALLBACK FUNCTION\n        AUTOMATICALLY HAS A GAS LIMIT OF 2300, \n        MAKE FALLBACK FUNCTIONS AS CHEAP AS POSSIBLE\n      */\n  }\n\n}\n",
  "sourcePath": "C:\\Users\\kwadw\\OneDrive\\Desktop\\WORK\\personal-projects\\blockchain\\blockchain-dapp\\land-real-estate-project\\real-estate-blockchain\\ethereum\\contracts\\RentToContract.sol",
  "compiler": {
    "name": "solc",
    "version": "0.5.0+commit.1d4f565a.Emscripten.clang"
  },
  "schemaVersion": "3.0.6",
  "updatedAt": "2019-06-21T08:17:41.693Z",
  "devdoc": {
    "methods": {}
  },
  "userdoc": {
    "methods": {}
  }
}