{
  "contractName": "RentToContract",
  "abi": [
    {
      "constant": true,
      "inputs": [],
      "name": "circuitBreakerStopped",
      "outputs": [
        {
          "name": "",
          "type": "bool"
        }
      ],
      "payable": false,
      "stateMutability": "view",
      "type": "function"
    },
    {
      "inputs": [
        {
          "name": "tenantEmail",
          "type": "string"
        },
        {
          "name": "tenantName",
          "type": "string"
        },
        {
          "name": "landlordName",
          "type": "string"
        },
        {
          "name": "amount",
          "type": "uint256"
        },
        {
          "name": "duration",
          "type": "uint256"
        }
      ],
      "payable": false,
      "stateMutability": "nonpayable",
      "type": "constructor"
    },
    {
      "payable": true,
      "stateMutability": "payable",
      "type": "fallback"
    },
    {
      "anonymous": false,
      "inputs": [
        {
          "indexed": false,
          "name": "tenantEmail",
          "type": "string"
        },
        {
          "indexed": false,
          "name": "paymentDate",
          "type": "uint256"
        },
        {
          "indexed": false,
          "name": "amount",
          "type": "uint256"
        }
      ],
      "name": "RentPaymentMade",
      "type": "event"
    },
    {
      "constant": false,
      "inputs": [
        {
          "name": "tenantEmail",
          "type": "string"
        },
        {
          "name": "amount",
          "type": "uint256"
        }
      ],
      "name": "receiveMonthlyRent",
      "outputs": [],
      "payable": true,
      "stateMutability": "payable",
      "type": "function"
    },
    {
      "constant": false,
      "inputs": [],
      "name": "killContract",
      "outputs": [],
      "payable": false,
      "stateMutability": "nonpayable",
      "type": "function"
    }
  ],
  "bytecode": "0x608060405260008060006101000a81548160ff0219169083151502179055503480156200002b57600080fd5b50604051620011ef380380620011ef833981018060405260a08110156200005157600080fd5b8101908080516401000000008111156200006a57600080fd5b828101905060208101848111156200008157600080fd5b81518560018202830111640100000000821117156200009f57600080fd5b50509291906020018051640100000000811115620000bc57600080fd5b82810190506020810184811115620000d357600080fd5b8151856001820283011164010000000082111715620000f157600080fd5b505092919060200180516401000000008111156200010e57600080fd5b828101905060208101848111156200012557600080fd5b81518560018202830111640100000000821117156200014357600080fd5b5050929190602001805190602001909291908051906020019092919050505080420160018190555033600060016101000a81548173ffffffffffffffffffffffffffffffffffffffff021916908373ffffffffffffffffffffffffffffffffffffffff1602179055508360039080519060200190620001c492919062000564565b508260029080519060200190620001dd92919062000564565b50620001e8620005eb565b60606040519081016040528087815260200142815260200184815250905060c06040519081016040528085815260200186815260200187815260200182815260200182602001518152602001600154815250600560008201518160000190805190602001906200025a9291906200060d565b506020820151816001019080519060200190620002799291906200060d565b506040820151816002019080519060200190620002989291906200060d565b506060820151816003016000820151816000019080519060200190620002c09291906200060d565b50602082015181600101556040820151816002015550506080820151816006015560a082015181600701559050506005600f876040518082805190602001908083835b6020831015156200032a578051825260208201915060208101905060208303925062000303565b6001836020036101000a0380198251168184511680821785525050505050509050019150509081526020016040518091039020600082018160000190805460018160011615610100020316600290046200038692919062000694565b5060018201816001019080546001816001161561010002031660029004620003b092919062000694565b5060028201816002019080546001816001161561010002031660029004620003da92919062000694565b506003820181600301600082018160000190805460018160011615610100020316600290046200040c92919062000694565b50600182015481600101556002820154816002015550506006820154816006015560078201548160070155905050600d81908060018154018082558091505090600182039060005260206000209060030201600090919290919091506000820151816000019080519060200190620004869291906200060d565b506020820151816001015560408201518160020155505050620004c78160400151600454620004d96401000000000262000918179091906401000000009004565b6004819055505050505050506200074a565b60008082840190508381101515156200055a576040517f08c379a000000000000000000000000000000000000000000000000000000000815260040180806020018281038252601b8152602001807f536166654d6174683a206164646974696f6e206f766572666c6f77000000000081525060200191505060405180910390fd5b8091505092915050565b828054600181600116156101000203166002900490600052602060002090601f016020900481019282601f10620005a757805160ff1916838001178555620005d8565b82800160010185558215620005d8579182015b82811115620005d7578251825591602001919060010190620005ba565b5b509050620005e7919062000722565b5090565b6060604051908101604052806060815260200160008152602001600081525090565b828054600181600116156101000203166002900490600052602060002090601f016020900481019282601f106200065057805160ff191683800117855562000681565b8280016001018555821562000681579182015b828111156200068057825182559160200191906001019062000663565b5b50905062000690919062000722565b5090565b828054600181600116156101000203166002900490600052602060002090601f016020900481019282601f10620006cf57805485556200070f565b828001600101855582156200070f57600052602060002091601f016020900482015b828111156200070e578254825591600101919060010190620006f1565b5b5090506200071e919062000722565b5090565b6200074791905b808211156200074357600081600090555060010162000729565b5090565b90565b610a95806200075a6000396000f3fe608060405260043610610057576000357c0100000000000000000000000000000000000000000000000000000000900463ffffffff1680631c02708d14610059578063af908f3f14610070578063d6ce41121461009f575b005b34801561006557600080fd5b5061006e610164565b005b34801561007c57600080fd5b506100856101fb565b604051808215151515815260200191505060405180910390f35b610162600480360360408110156100b557600080fd5b81019080803590602001906401000000008111156100d257600080fd5b8201836020820111156100e457600080fd5b8035906020019184600183028401116401000000008311171561010657600080fd5b91908080601f016020809104026020016040519081016040528093929190818152602001838380828437600081840152601f19601f8201169050808301925050505050505091929192908035906020019092919050505061020d565b005b600060019054906101000a900473ffffffffffffffffffffffffffffffffffffffff1673ffffffffffffffffffffffffffffffffffffffff163373ffffffffffffffffffffffffffffffffffffffff161415156101c057600080fd5b600060019054906101000a900473ffffffffffffffffffffffffffffffffffffffff1673ffffffffffffffffffffffffffffffffffffffff16ff5b6000809054906101000a900460ff1681565b600060019054906101000a900473ffffffffffffffffffffffffffffffffffffffff1673ffffffffffffffffffffffffffffffffffffffff163373ffffffffffffffffffffffffffffffffffffffff1614151561026957600080fd5b6102716108f3565b15156108ef5780610281816108ff565b5082606060056002018054600181600116156101000203166002900480601f01602080910402602001604051908101604052809291908181526020018280546001816001161561010002031660029004801561031e5780601f106102f35761010080835404028352916020019161031e565b820191906000526020600020905b81548152906001019060200180831161030157829003601f168201915b505050505090506060600f836040518082805190602001908083835b60208310151561035f578051825260208201915060208101905060208303925061033a565b6001836020036101000a03801982511681845116808217855250505050505090500191505090815260200160405180910390206001018054600181600116156101000203166002900480601f0160208091040260200160405190810160405280929190818152602001828054600181600116156101000203166002900480156104295780601f106103fe57610100808354040283529160200191610429565b820191906000526020600020905b81548152906001019060200180831161040c57829003601f168201915b50505050509050606060038054600181600116156101000203166002900480601f0160208091040260200160405190810160405280929190818152602001828054600181600116156101000203166002900480156104c85780601f1061049d576101008083540402835291602001916104c8565b820191906000526020600020905b8154815290600101906020018083116104ab57829003601f168201915b50505050509050826040516020018082805190602001908083835b60208310151561050857805182526020820191506020810190506020830392506104e3565b6001836020036101000a03801982511681845116808217855250505050505090500191505060405160208183030381529060405280519060200120846040516020018082805190602001908083835b60208310151561057c5780518252602082019150602081019050602083039250610557565b6001836020036101000a0380198251168184511680821785525050505050509050019150506040516020818303038152906040528051906020012014151561062c576040517f08c379a00000000000000000000000000000000000000000000000000000000081526004018080602001828103825260148152602001807f4e4f54205448452052494748542054454e414e5400000000000000000000000081525060200191505060405180910390fd5b816040516020018082805190602001908083835b6020831015156106655780518252602082019150602081019050602083039250610640565b6001836020036101000a03801982511681845116808217855250505050505090500191505060405160208183030381529060405280519060200120816040516020018082805190602001908083835b6020831015156106d957805182526020820191506020810190506020830392506106b4565b6001836020036101000a03801982511681845116808217855250505050505090500191505060405160208183030381529060405280519060200120141515610789576040517f08c379a00000000000000000000000000000000000000000000000000000000081526004018080602001828103825260148152602001807f4e4f54205448452052494748542054454e414e5400000000000000000000000081525060200191505060405180910390fd5b6107916109a2565b606060405190810160405280898152602001428152602001888152509050600d819080600181540180825580915050906001820390600052602060002090600302016000909192909190915060008201518160000190805190602001906107f99291906109c4565b50602082015181600101556040820151816002015550505061082a816040015160045461091890919063ffffffff16565b6004819055507fc0c44e71b116e1f49f140c0af676d78bcbf56d7a7a3fba7ecaa5eb76a477ee4a8160000151826020015183604001516040518080602001848152602001838152602001828103825285818151815260200191508051906020019080838360005b838110156108ac578082015181840152602081019050610891565b50505050905090810190601f1680156108d95780820380516001836020036101000a031916815260200191505b5094505050505060405180910390a15050505050505b5050565b60006001544211905090565b600080821415151561091057600080fd5b819050919050565b6000808284019050838110151515610998576040517f08c379a000000000000000000000000000000000000000000000000000000000815260040180806020018281038252601b8152602001807f536166654d6174683a206164646974696f6e206f766572666c6f77000000000081525060200191505060405180910390fd5b8091505092915050565b6060604051908101604052806060815260200160008152602001600081525090565b828054600181600116156101000203166002900490600052602060002090601f016020900481019282601f10610a0557805160ff1916838001178555610a33565b82800160010185558215610a33579182015b82811115610a32578251825591602001919060010190610a17565b5b509050610a409190610a44565b5090565b610a6691905b80821115610a62576000816000905550600101610a4a565b5090565b9056fea165627a7a7230582058f5759e28088ee71a50e712600e9f57d0616deb9bf430a3fa0f6f3e29832e270029",
  "source": "pragma solidity ^0.5.0;\n\nimport \"./SafeMath.sol\";\n\ncontract RentToContract {\n\n  using SafeMath for uint;\n  \n  bool public circuitBreakerStopped = false;\n  address owner;\n  uint contractExpired; // THE RENT EXPIRATION DATE \n  // \n  string landlord;\n  string tenant;\n  uint totalRentPaid;\n  Rent rentSetup;\n  RentPayment[] payments;\n  // \n  mapping(address => bool) admins;\n  mapping(string => Rent) rentSetupMap;\n  // \n  event RentPaymentMade(string tenantEmail, uint paymentDate, uint amount);\n  // \n  struct Rent {\n    string landlordName;\n    string tenantName;\n    string tenantEmail;\n    RentPayment firstPayment;\n    uint firstPaymentDate;\n    uint rentExpirationDate;\n  }\n\n  struct RentPayment {\n    string tenantEmail;\n    uint paymentDate;\n    uint amount;\n  }\n\n  modifier validateTenant(string memory tenantEmail) { // CHECKS IF THE TENANT (tenantEmail) INDEED IN THE RENT PAYER\n    string memory te = rentSetup.tenantEmail;\n    string memory tn = rentSetupMap[tenantEmail].tenantName;\n    string memory mainTn = tenant;\n    require((keccak256(abi.encodePacked(tenantEmail)) == keccak256(abi.encodePacked(te))), \"NOT THE RIGHT TENANT\");\n    require((keccak256(abi.encodePacked(mainTn)) == keccak256(abi.encodePacked(tn))), \"NOT THE RIGHT TENANT\");\n    _;\n  }\n  \n  modifier validateAmount(uint amount) { // CHECKS IF THE AMOUNT IS HIGHER THAN 0\n    throwsErrorIfZero(amount); // NO NEED TO WORK WITH THE RETURN VALUE FOR NOW ..\n    _;\n  }\n\n  function throwsErrorIfZero(uint num) private pure returns (uint) {\n    require(num != 0);\n    return num;\n  }\n\n  modifier isNotDeprecated {\n    if(!rentContractExpired()) _;\n  }\n\n  modifier isDeprecated {\n    if(rentContractExpired()) _;\n  }\n\n  function rentContractExpired() private view returns (bool) {\n    return now > contractExpired;\n  }\n\n  modifier ownerOnly() {\n    require(msg.sender == owner);\n    _;\n  }\n\n  modifier onlyAdmin {\n    require(admins[msg.sender] == true, \"NOT AN ADMIN\");\n    _;\n  }\n\n  function addAdmin(address _a) private onlyAdmin returns (bool) {\n    admins[_a] = true;\n    return true;\n  }\n\n  modifier stopInEmergency { require(!circuitBreakerStopped, \"...\"); _; }\n  modifier onlyInEmergency { require(circuitBreakerStopped, \"...\"); _; }\n  \n  /* SAMPLE FUNCTIONS TO TEST THE CIRCUIT BREAKER DESIGN PATTERN ..\n  function deposit() public stopInEmergency {}\n  function withdraw() public onlyInEmergency {} \n  */\n\n\n  constructor(string memory tenantEmail, string memory tenantName, string memory landlordName, uint amount, uint duration) public {\n    contractExpired = now + duration; // SET THE RENT duration AS THE DATE THAT THIS CONTRACT TO EXPIRE (Auto Deprecate Design Pattern)\n    owner = msg.sender; \n    // addAdmin(msg.sender);\n    tenant = tenantName; landlord = landlordName;\n    RentPayment memory payment1 = RentPayment({\n      tenantEmail: tenantEmail,\n      paymentDate: now,\n      amount: amount\n    }); // SETUP THE FIRST RENT PAYMENT OBJECT\n    rentSetup = Rent({\n      tenantEmail: tenantEmail,\n      tenantName: tenantName,\n      landlordName: landlordName,\n      firstPayment: payment1,\n      firstPaymentDate: payment1.paymentDate,\n      rentExpirationDate: contractExpired\n    }); // SETUP THE RENT OBJECT\n    rentSetupMap[tenantEmail] = rentSetup; // DO THIS IN CASE IN FUTURE, YOU'LL WANT TO MANAGE MULTIPLE RENT SETUPS\n    payments.push(payment1); // LET'S NOT emit THE RentPaymentMade EVENT ON THE 1ST PAYMENT\n    totalRentPaid = totalRentPaid.add(payment1.amount);\n  }\n\n  function receiveMonthlyRent(string memory tenantEmail, uint amount) public payable\n    ownerOnly() \n    // onlyAdmin()\n    isNotDeprecated() \n    validateAmount(amount)\n    validateTenant(tenantEmail) \n  { // WHEN EXPANDING THE PLATFORM, THIS FUNCTION SHOULD BE ABLE TO RECEIVE RENT IN ETHER TOO ..\n    RentPayment memory payment = RentPayment({\n      tenantEmail: tenantEmail,\n      paymentDate: now,\n      amount: amount\n    }); // SETUP A RENT PAYMENT OBJECT\n    payments.push(payment); // ADD RENT payment, THEN EMIT THE RentPaymentMade EVENT\n    totalRentPaid = totalRentPaid.add(payment.amount);\n    emit RentPaymentMade(payment.tenantEmail, payment.paymentDate, payment.amount);\n  }\n\n  function killContract() public ownerOnly() {\n    selfdestruct(address(uint160(owner))); // TAKES AN ADDRESS OF CONTRACT TO KILL\n  }\n\n  // FALLBACK FUNCTION TO RUN WHENEVER THERE'S SOME KINDA ISSUE ..\n  function () external payable { // NO function name, params, or return values ..\n      /* THIS FALLBACK FUNCTION WILL EXECUTE IF THE CLIENT CALLS A FUNCTION\n        THAT DOESN'T EXIST IN THIS CONTRACT (i.e. funct's identifier isn't defined)\n        CONTRACTS CAN HAVE ONLY 1 FALLBACK FUNCTION\n        AUTOMATICALLY HAS A GAS LIMIT OF 2300, \n        MAKE FALLBACK FUNCTIONS AS CHEAP AS POSSIBLE\n      */\n  }\n\n}\n",
  "sourcePath": "C:\\Users\\kwadw\\OneDrive\\Desktop\\WORK\\personal-projects\\blockchain\\blockchain-dapp\\land-real-estate-project\\real-estate-blockchain\\ethereum\\contracts\\RentToContract.sol",
  "compiler": {
    "name": "solc",
    "version": "0.5.0+commit.1d4f565a.Emscripten.clang"
  },
  "schemaVersion": "3.0.6",
  "updatedAt": "2019-06-19T12:38:17.621Z",
  "devdoc": {
    "methods": {}
  },
  "userdoc": {
    "methods": {}
  }
}