{
  "contractName": "RentToContract",
  "abi": [
    {
      "constant": true,
      "inputs": [],
      "name": "stopped",
      "outputs": [
        {
          "name": "",
          "type": "bool"
        }
      ],
      "payable": false,
      "stateMutability": "view",
      "type": "function"
    },
    {
      "inputs": [
        {
          "name": "tenantEmail",
          "type": "string"
        },
        {
          "name": "tenantName",
          "type": "string"
        },
        {
          "name": "landlordName",
          "type": "string"
        },
        {
          "name": "amount",
          "type": "int256"
        },
        {
          "name": "duration",
          "type": "uint256"
        }
      ],
      "payable": false,
      "stateMutability": "nonpayable",
      "type": "constructor"
    },
    {
      "payable": true,
      "stateMutability": "payable",
      "type": "fallback"
    },
    {
      "anonymous": false,
      "inputs": [
        {
          "indexed": false,
          "name": "tenantEmail",
          "type": "string"
        },
        {
          "indexed": false,
          "name": "paymentDate",
          "type": "uint256"
        },
        {
          "indexed": false,
          "name": "amount",
          "type": "int256"
        }
      ],
      "name": "RentPaymentMade",
      "type": "event"
    },
    {
      "constant": true,
      "inputs": [],
      "name": "rentContractExpired",
      "outputs": [
        {
          "name": "",
          "type": "bool"
        }
      ],
      "payable": false,
      "stateMutability": "view",
      "type": "function"
    },
    {
      "constant": false,
      "inputs": [
        {
          "name": "tenantEmail",
          "type": "string"
        },
        {
          "name": "amount",
          "type": "int256"
        }
      ],
      "name": "receiveMonthlyRent",
      "outputs": [],
      "payable": false,
      "stateMutability": "nonpayable",
      "type": "function"
    },
    {
      "constant": false,
      "inputs": [],
      "name": "killContract",
      "outputs": [],
      "payable": false,
      "stateMutability": "nonpayable",
      "type": "function"
    }
  ],
  "bytecode": "0x608060405260008060006101000a81548160ff0219169083151502179055503480156200002b57600080fd5b50604051620010ae380380620010ae833981018060405260a08110156200005157600080fd5b8101908080516401000000008111156200006a57600080fd5b828101905060208101848111156200008157600080fd5b81518560018202830111640100000000821117156200009f57600080fd5b50509291906020018051640100000000811115620000bc57600080fd5b82810190506020810184811115620000d357600080fd5b8151856001820283011164010000000082111715620000f157600080fd5b505092919060200180516401000000008111156200010e57600080fd5b828101905060208101848111156200012557600080fd5b81518560018202830111640100000000821117156200014357600080fd5b5050929190602001805190602001909291908051906020019092919050505080420160038190555033600060016101000a81548173ffffffffffffffffffffffffffffffffffffffff021916908373ffffffffffffffffffffffffffffffffffffffff1602179055508360029080519060200190620001c4929190620004aa565b508260019080519060200190620001dd929190620004aa565b50620001e862000531565b60606040519081016040528087815260200142815260200184815250905060c06040519081016040528085815260200186815260200187815260200182815260200182602001518152602001600354815250600460008201518160000190805190602001906200025a92919062000553565b5060208201518160010190805190602001906200027992919062000553565b5060408201518160020190805190602001906200029892919062000553565b506060820151816003016000820151816000019080519060200190620002c092919062000553565b50602082015181600101556040820151816002015550506080820151816006015560a082015181600701559050506004600d876040518082805190602001908083835b6020831015156200032a578051825260208201915060208101905060208303925062000303565b6001836020036101000a03801982511681845116808217855250505050505090500191505090815260200160405180910390206000820181600001908054600181600116156101000203166002900462000386929190620005da565b5060018201816001019080546001816001161561010002031660029004620003b0929190620005da565b5060028201816002019080546001816001161561010002031660029004620003da929190620005da565b506003820181600301600082018160000190805460018160011615610100020316600290046200040c929190620005da565b50600182015481600101556002820154816002015550506006820154816006015560078201548160070155905050600c819080600181540180825580915050906001820390600052602060002090600302016000909192909190915060008201518160000190805190602001906200048692919062000553565b50602082015181600101556040820151816002015550505050505050505062000690565b828054600181600116156101000203166002900490600052602060002090601f016020900481019282601f10620004ed57805160ff19168380011785556200051e565b828001600101855582156200051e579182015b828111156200051d57825182559160200191906001019062000500565b5b5090506200052d919062000668565b5090565b6060604051908101604052806060815260200160008152602001600081525090565b828054600181600116156101000203166002900490600052602060002090601f016020900481019282601f106200059657805160ff1916838001178555620005c7565b82800160010185558215620005c7579182015b82811115620005c6578251825591602001919060010190620005a9565b5b509050620005d6919062000668565b5090565b828054600181600116156101000203166002900490600052602060002090601f016020900481019282601f1062000615578054855562000655565b828001600101855582156200065557600052602060002091601f016020900482015b828111156200065457825482559160010191906001019062000637565b5b50905062000664919062000668565b5090565b6200068d91905b80821115620006895760008160009055506001016200066f565b5090565b90565b610a0e80620006a06000396000f3fe608060405260043610610062576000357c0100000000000000000000000000000000000000000000000000000000900463ffffffff168063042171c414610064578063104347ce146100935780631c02708d1461016557806375f12b211461017c575b005b34801561007057600080fd5b506100796101ab565b604051808215151515815260200191505060405180910390f35b34801561009f57600080fd5b50610163600480360360408110156100b657600080fd5b81019080803590602001906401000000008111156100d357600080fd5b8201836020820111156100e557600080fd5b8035906020019184600183028401116401000000008311171561010757600080fd5b91908080601f016020809104026020016040519081016040528093929190818152602001838380828437600081840152601f19601f820116905080830192505050505050509192919290803590602001909291905050506101b7565b005b34801561017157600080fd5b5061017a610872565b005b34801561018857600080fd5b50610191610909565b604051808215151515815260200191505060405180910390f35b60006003544211905090565b600060019054906101000a900473ffffffffffffffffffffffffffffffffffffffff1673ffffffffffffffffffffffffffffffffffffffff163373ffffffffffffffffffffffffffffffffffffffff1614151561021357600080fd5b61021b6101ab565b151561086e5781606060046002018054600181600116156101000203166002900480601f0160208091040260200160405190810160405280929190818152602001828054600181600116156101000203166002900480156102bd5780601f10610292576101008083540402835291602001916102bd565b820191906000526020600020905b8154815290600101906020018083116102a057829003601f168201915b505050505090506060600d836040518082805190602001908083835b6020831015156102fe57805182526020820191506020810190506020830392506102d9565b6001836020036101000a03801982511681845116808217855250505050505090500191505090815260200160405180910390206001018054600181600116156101000203166002900480601f0160208091040260200160405190810160405280929190818152602001828054600181600116156101000203166002900480156103c85780601f1061039d576101008083540402835291602001916103c8565b820191906000526020600020905b8154815290600101906020018083116103ab57829003601f168201915b50505050509050606060028054600181600116156101000203166002900480601f0160208091040260200160405190810160405280929190818152602001828054600181600116156101000203166002900480156104675780601f1061043c57610100808354040283529160200191610467565b820191906000526020600020905b81548152906001019060200180831161044a57829003601f168201915b50505050509050826040516020018082805190602001908083835b6020831015156104a75780518252602082019150602081019050602083039250610482565b6001836020036101000a03801982511681845116808217855250505050505090500191505060405160208183030381529060405280519060200120846040516020018082805190602001908083835b60208310151561051b57805182526020820191506020810190506020830392506104f6565b6001836020036101000a038019825116818451168082178552505050505050905001915050604051602081830303815290604052805190602001201415156105cb576040517f08c379a00000000000000000000000000000000000000000000000000000000081526004018080602001828103825260148152602001807f4e4f54205448452052494748542054454e414e5400000000000000000000000081525060200191505060405180910390fd5b816040516020018082805190602001908083835b60208310151561060457805182526020820191506020810190506020830392506105df565b6001836020036101000a03801982511681845116808217855250505050505090500191505060405160208183030381529060405280519060200120816040516020018082805190602001908083835b6020831015156106785780518252602082019150602081019050602083039250610653565b6001836020036101000a03801982511681845116808217855250505050505090500191505060405160208183030381529060405280519060200120141515610728576040517f08c379a00000000000000000000000000000000000000000000000000000000081526004018080602001828103825260148152602001807f4e4f54205448452052494748542054454e414e5400000000000000000000000081525060200191505060405180910390fd5b61073061091b565b606060405190810160405280888152602001428152602001878152509050600c8190806001815401808255809150509060018203906000526020600020906003020160009091929091909150600082015181600001908051906020019061079892919061093d565b5060208201518160010155604082015181600201555050507fe13f15adebe940e007d6e953ac9952e15e6b205a24d34253368bd162fc117f468160000151826020015183604001516040518080602001848152602001838152602001828103825285818151815260200191508051906020019080838360005b8381101561082c578082015181840152602081019050610811565b50505050905090810190601f1680156108595780820380516001836020036101000a031916815260200191505b5094505050505060405180910390a150505050505b5050565b600060019054906101000a900473ffffffffffffffffffffffffffffffffffffffff1673ffffffffffffffffffffffffffffffffffffffff163373ffffffffffffffffffffffffffffffffffffffff161415156108ce57600080fd5b600060019054906101000a900473ffffffffffffffffffffffffffffffffffffffff1673ffffffffffffffffffffffffffffffffffffffff16ff5b6000809054906101000a900460ff1681565b6060604051908101604052806060815260200160008152602001600081525090565b828054600181600116156101000203166002900490600052602060002090601f016020900481019282601f1061097e57805160ff19168380011785556109ac565b828001600101855582156109ac579182015b828111156109ab578251825591602001919060010190610990565b5b5090506109b991906109bd565b5090565b6109df91905b808211156109db5760008160009055506001016109c3565b5090565b9056fea165627a7a723058209cc99b86a564a62708f638cbfdd511f382b38284be41b01f46ebfdfa577c61950029",
  "source": "pragma solidity ^0.5.0;\n\n\ncontract RentToContract {\n  \n  bool public stopped = false;\n\n  address owner;\n  string landlord;\n  string tenant;\n  uint contractExpired; // THE RENT EXPIRATION DATE \n  Rent rentSetup;\n  RentPayment[] payments;\n  \n  mapping(string => Rent) rentSetupMap;\n  event RentPaymentMade(string tenantEmail, uint paymentDate, int amount);\n\n  struct Rent {\n    string landlordName;\n    string tenantName;\n    string tenantEmail;\n    RentPayment firstPayment;\n    uint firstPaymentDate;\n    uint rentExpirationDate;\n  }\n\n  struct RentPayment {\n    string tenantEmail;\n    uint paymentDate;\n    int amount;\n  }\n\n  modifier validateTenant(string memory tenantEmail) { // CHECKS IF THE TENANT (tenantEmail) INDEED IN THE RENT PAYER\n    string memory te = rentSetup.tenantEmail;\n    string memory tn = rentSetupMap[tenantEmail].tenantName;\n    string memory mainTn = tenant;\n    require((keccak256(abi.encodePacked(tenantEmail)) == keccak256(abi.encodePacked(te))), \"NOT THE RIGHT TENANT\");\n    require((keccak256(abi.encodePacked(mainTn)) == keccak256(abi.encodePacked(tn))), \"NOT THE RIGHT TENANT\");\n    _;\n  }\n\n  modifier stopInEmergency { require(!stopped, \"...\"); _; }\n  modifier onlyInEmergency { require(stopped, \"...\"); _; }\n  \n  /* SAMPLE FUNCTIONS TO TEST THE CIRCUIT BREAKER DESIGN PATTERN ..\n  function deposit() public stopInEmergency {}\n  function withdraw() public onlyInEmergency {} \n  */\n\n  modifier isNotDeprecated {\n      if(!rentContractExpired()) _;\n  }\n\n  modifier isDeprecated {\n      if(rentContractExpired()) _;\n  }\n\n  modifier ownerOnly() {\n      require(msg.sender == owner);\n      _;\n  }\n\n  function rentContractExpired() public view returns (bool) {\n      return now > contractExpired;\n  }\n\n  constructor(string memory tenantEmail, string memory tenantName, string memory landlordName, int amount, uint duration) public {\n    contractExpired = now + duration; // SET THE RENT duration AS THE DATE THAT THIS CONTRACT TO EXPIRE (Auto Deprecate Design Pattern)\n    owner = msg.sender; tenant = tenantName; landlord = landlordName;\n    RentPayment memory payment = RentPayment({\n      tenantEmail: tenantEmail,\n      paymentDate: now,\n      amount: amount\n    }); // SETUP THE FIRST RENT PAYMENT OBJECT\n    rentSetup = Rent({\n      tenantEmail: tenantEmail,\n      tenantName: tenantName,\n      landlordName: landlordName,\n      firstPayment: payment,\n      firstPaymentDate: payment.paymentDate,\n      rentExpirationDate: contractExpired\n    }); // SETUP THE RENT OBJECT\n    rentSetupMap[tenantEmail] = rentSetup; // DO THIS IN CASE IN FUTURE, YOU'LL WANT TO MANAGE MULTIPLE RENT SETUPS\n    payments.push(payment); // LET'S NOT emit THE RentPaymentMade() EVENT ON THE 1ST PAYMENT\n  }\n\n  function receiveMonthlyRent(string memory tenantEmail, int amount) public ownerOnly() isNotDeprecated() validateTenant(tenantEmail) {\n    RentPayment memory payment = RentPayment({\n      tenantEmail: tenantEmail,\n      paymentDate: now,\n      amount: amount\n    }); // SETUP A RENT PAYMENT OBJECT\n    payments.push(payment);\n    emit RentPaymentMade(payment.tenantEmail, payment.paymentDate, payment.amount);\n  }\n\n  function killContract() public ownerOnly() {\n    selfdestruct(address(uint160(owner))); // TAKES AN ADDRESS OF CONTRACT TO KILL\n  }\n\n  // FALLBACK FUNCTION TO RUN WHENEVER THERE'S SOME KINDA ISSUE ..\n  function () external payable { // NO function name, params, or return values ..\n      /* THIS FALLBACK FUNCTION WILL EXECUTE IF THE CLIENT CALLS A FUNCTION\n        THAT DOESN'T EXIST IN THIS CONTRACT (i.e. funct's identifier isn't defined)\n        CONTRACTS CAN HAVE ONLY 1 FALLBACK FUNCTION\n        AUTOMATICALLY HAS A GAS LIMIT OF 2300, \n        MAKE FALLBACK FUNCTIONS AS CHEAP AS POSSIBLE\n      */\n  }\n\n}\n",
  "sourcePath": "C:\\Users\\kwadw\\OneDrive\\Desktop\\WORK\\personal-projects\\blockchain\\blockchain-dapp\\land-real-estate-project\\real-estate-blockchain\\ethereum\\contracts\\RentToContract.sol",
  "compiler": {
    "name": "solc",
    "version": "0.5.0+commit.1d4f565a.Emscripten.clang"
  },
  "schemaVersion": "3.0.6",
  "updatedAt": "2019-06-17T22:27:54.924Z",
  "devdoc": {
    "methods": {}
  },
  "userdoc": {
    "methods": {}
  }
}